:020000040000fa
:080000000001040000000000f3
:020000040000fa
:100008009a0100009a0100009a0100009a0100007c
:100018009a0100009a0100009a0100009a0100006c
:100028009a010000f61c00009a0100009a010000e5
:100038009a0100009a010000a61c0000d01c0000d4
:10004800dc1b00009a0100009a010000fc1a000065
:100058009a0100009a0100009a0100009a0100002c
:100068009a0100009a0100009a0100009a0100001c
:100078009a010000821b00009a0100009a0100000a
:10008800d01800009a0100009a0100009a010000af
:100098009a0100009a0100009a0100009a010000ec
:1000a8009a0100009a0100009a0100009a010000dc
:1000b8009a0100009a0100009a0100009a010000cc
:1000c8009a0100009a0100009a0100009a010000bc
:1000d8009a0100009a0100009a0100009a010000ac
:1000e8009a0100009a0100009a0100009a0100009c
:0800f8009a0100009a010000ca
:020000040000fa
:100108009a0100009a0100009a0100009a0100007b
:100118009a0100009a0100009a0100009a0100006b
:100128009a010000f61c00009a0100009a010000e4
:100138009a0100009a010000a61c0000d01c0000d3
:10014800dc1b00009a0100009a010000fc1a000064
:100158009a0100009a0100009a0100009a0100002b
:100168009a0100009a0100009a0100009a0100001b
:100178009a010000821b00009a0100009a01000009
:10018800d01800009a0100009a0100009a010000ae
:100198009a0100009a0100009a0100009a010000eb
:1001a8009a0100009a0100009a0100009a010000db
:1001b8009a0100009a0100009a0100009a010000cb
:1001c8009a0100009a0100009a0100009a010000bb
:1001d8009a0100009a0100009a0100009a010000ab
:1001e8009a0100009a0100009a0100009a0100009b
:0801f8009a0100009a010000c9
:020000040000fa
:100200002f9720000eff20000e0188000000000044
:10021000000020000000e000020032000001200089
:10022000200288000c000700009921000100200036
:1002300011000700000020000000e0000200320072
:1002400000000200000000005c1c02000000000032
:100250000040da000000fe004440a90060122000c7
:100260000000e0000300320000002000a001880030
:100270004440a8000000060091018800800078003a
:100280000000eb0015003700e280400032a0b4000f
:100290009101ba00e280400032a0b4009102ba009d
:1002a000e280400032a0b4000002eb00472bde00e9
:1002b000f507b200602ce10004003a000059eb00a1
:1002c0008301e900fdff3e00040037006128e100e2
:1002d000010032000082eb00040007001101ba00a7
:1002e0000200e000e8ff3a00000006003159ba00c1
:1002f0008301e9000c0032002159ba008301e900b2
:10030000080032000400e00003003a00e2804000f0
:1003100032a0b400f5ff370011d9ba008301e9001b
:10032000faff3a008100e800e180400032a0b4000a
:10033000000006000040da000000fe001004b100da
:10034000070035009001b100040034007000b100d6
:10035000030035009001b10001003c0010000500d1
:10036000000005006900e100040035006d00e100b7
:10037000030034000002b10001003200000005005b
:10038000100005001004b100030035009001b10019
:1003900001003c001000050000000500800078000e
:1003a0001104b100030035009101b10001003c00cf
:1003b0000050a000000006000a00fa00e00f500004
:1003c00027003a00344b8000e10f52000600320053
:1003d000e7212000c6212000852120006421200083
:1003e000e08f530004003a0047212000262120001e
:1003f000e5202000c4202000000028001400600038
:1004000003003a00800b780007002800148a73006c
:10041000020278000c0037008703e900950178009c
:100420006180610002003a00e08f5300faff3a0059
:1004300015007800e10360000700320096037800a1
:100440000402e90087587800e00f520002003200f1
:10045000070a2000f1ff37000400510008003700b0
:1004600024002000c0bf9f00b4bf9f006a805700d7
:10047000d1bf9f00e2bf9f00e40607006fb897005e
:100480000080fa00000006000a00fa00e20f5000a7
:1004900022003e00344b8000e10f52000600320083
:1004a000e7212000a62120008421200065212000d2
:1004b000e08f530004003a0047212000062120006d
:1004c000e4202000c5202000000028001500600066
:1004d00003003a00800b780007002800958a73001b
:1004e000054020009482620001003a0014a0a000a0
:1004f0008202780006003700940378000710b200eb
:10050000fdff3200b103fb00070b78008502e90014
:10051000e08f5200f8ff3a00080037003400200056
:10052000c0bf9f00e2bf9f00b4bf9f00d1bf9f002c
:100530006a805700b70607006fb99700020078007d
:100540000080fa0000000600b4108000660262001d
:10055000e60f520002003a00e010800000000600a2
:10056000e0108000f00fb2000000060000027800ea
:1005700002003700315a78000201e900e00f510013
:10058000fcff3a0000000600b042780031c2520081
:1005900002003a00e0cf5200fbff3a000400fb00eb
:1005a000000006000b00370030427800e04f520098
:1005b000030032000201e900b14f52000500320091
:1005c0000480fb00954278008582fb000500500006
:1005d0000000060081027800e00f5100f2ff3a00af
:1005e00002007800000006000c00fa00a0bf9f0087
:1005f000c0bf9f0033020700140c2000b0bf9f0053
:10060000f0bf9f00d4bf9f0074815700efb09700e8
:100610006c805700340007000080fa0000000600dc
:10062000881f7800404b8000a50107000004780077
:10063000080078004bff0700e00f5000f9ff3a0078
:10064000e10f440003003200414b800008007800b5
:10065000230207004f04780000000600889fbe00b8
:10066000000478008a1f7800814478000205780031
:1006700004fd2f0008024200e90f520002003e0074
:10068000040478000f003700080078003dff0700e1
:10069000e00f500005003200e00f5500030032006b
:1006a000080078003dff070000047800080078008b
:1006b00022ff070000c2eb00e00f500006003200ee
:1006c0007805b1008984fb0000c2eb00890f54005b
:1006d00001003d00084278004f0578000440780092
:1006e0004f04be00000006000002eb00f087470048
:1006f000404b8800889fbe00044478008a9fbe005b
:10070000810478008c9fbe00020578008e1f78005f
:10071000e4b79f0088f79f00380137008885fb0009
:100720008904e8000b0078000eff0700e00f50007e
:1007300002003200baff07003001370055c2b30093
:10074000854f540020013a000044780024c0b300d3
:1007500000477800844578000900780004003700dd
:100760004bc0b300010037002bc0b3000900780074
:100770003942780095c6b300854f52009700320089
:100780001b003e00e6c25200854f52006900320055
:1007900010003e00f7c25200854f52002e0032007a
:1007a00006003e00e04f520027003200a5c2b30011
:1007b000854f520076003a002500370085c5b3000a
:1007c000854f520072003a009bef9f0014002000fa
:1007d0001a00370045c6b300854f52007f00320033
:1007e000e4c24200854f520069003a00deff370044
:1007f00035c7b300854f52001b00320007003e0092
:10080000e7c25200854f520013003200e3c242009b
:10081000854f52005e003a007400370055c7b300a0
:10082000854f52006d003200e3c24200854f5200f6
:1008300057003a009bef9f000002eb00e4b79f00d7
:1008400005c1b3006b0037000ff49700820037003a
:100850000e47e800c5ff3700e2cf5500c0ff320069
:100860008bc0b300c1ff37006dff0700e04f57009a
:1008700002003a004a027800f4b79f00404b800023
:100880000f01070080057800e18f450013003a0052
:100890000ff497000b007800d50037001902fb0019
:1008a000848f550004003a008c0278008904e80027
:1008b000f5b79f0017003700e04f570001003a00de
:1008c0000b5e78000844e9000d003200404b8000c8
:1008d000fb00070080057800010037007fb6970015
:1008e0000b02e800e10f5200080036000b00780010
:1008f0009cfe0700e00f5000e8ff320003003700c5
:100900008c027800f5b79f00020037000c027800d7
:10091000f4b79f00e04f5700b8003a008ff29700fd
:100920007fb297008542e80085f79f000e4a780065
:10093000b2003700e04f570005003a008ff29700f1
:100940008542e80085f79f00ca057800010037005e
:10095000ffb59700404b8000d9000700e10f400031
:1009600002003a000ff49700a1003700e04f570053
:1009700001003a00805d78000844e9004240a90087
:10098000f4ff3c008b027800f5b79f009b00370016
:100990000484fb0004fd2f0008024200e90f52000e
:1009a00009003e00a7000700090278000044780013
:1009b00084047800b402fb000503b100e98f520003
:1009c000fbff360069ff3700404b8000bc0007008a
:1009d000800f540080003a0088003700a4c0b300a4
:1009e0009bef9f00a4ef9f00030037009bef9f0049
:1009f00085c0b300a5ef9f0009ff0700404b8000b2
:100a0000af0007000042eb008005780084ef9f00f4
:100a1000d4022000848f550005003a00404b80002e
:100a2000a700070015c0b3008005780085ef9f0080
:100a30006fb19700afe897000b00780007ff070041
:100a4000e14f40000c003a000ff49700414b80004a
:100a50000b00780022010700e04f54006b003a00c1
:100a6000444b800034009000700060006800320049
:100a70000080eb006600370004032000848f5500df
:100a800015003a00404b80008d00070084072000cd
:100a9000840f500004003a006fb29700e00f52003c
:100aa000070032000a00370084052000840f500040
:100ab00007003a00efb29700e08f520004003200c6
:100ac000404b80007e000700800578000200370060
:100ad000414b800002010700afea97000582fb004e
:100ae00005002000a4b79f00b5b79f006066b8005e
:100af0002fb19700bfb197000c00be000844e90079
:100b0000560507006fb197000006be00afe89700da
:100b10000b007800d1fe07000080fb0001002000e0
:100b20000006460081864e00e04f54000900320066
:100b3000404b8000620007006fb19700800578008d
:100b4000afe897000b007800c4fe0700e14f4000bb
:100b5000e7ff3a006fb19700afe897000b0078000d
:100b6000befe0700e14f400003003a00414b800009
:100b70000b007800da0007000fea9700e04f520000
:100b80000200320060061600e0861e00e04f5700ab
:100b90001a003a008ff297000a85e9008542e800c2
:100ba0001fea970085f79f00e44f520003003a00c8
:100bb0001a0278000c8abe00100037001a02780072
:100bc0000c0a78000d003700404b80003c00070005
:100bd000808f5500090032000ff49700e10f4000ac
:100be00003003200414b8000bd00070007003700c2
:100bf000e04f540005003a00050037001944780022
:100c0000e04f5400c5fe3a000ff497000880fb0047
:100c10004f0778004f06be004f05be004f04be00d0
:100c20000f01b10000000600e09420000000fa006f
:100c300068815700cfb89700c80007000080fa000d
:100c40000000060006c2b30000027800040078002d
:100c5000b042780086cf5200fbff3200e9cf52004d
:100c6000f9ff3200d6c2b30086cf520003003a002b
:100c70000002780016c0b300050037000043eb0007
:100c8000b7c2b30087cf520001003a0000027800db
:100c90000000eb00020037006a00b900008042004b
:100ca000b402fb000503b100e98f5200faff3600e1
:100cb000e04f5300010032000000ea00000006008f
:100cc000881f78000004780038029000f10262006a
:100cd000e18f520006003a00840278000520b2003d
:100ce0000800320098029000e08f520005003200a8
:100cf000380290000080eb000440a000340498000b
:100d0000200037000490a1003404980018029000dd
:100d1000e00f5200070034000402e90014049800b8
:100d20001802780094427800040ce8000580fb006b
:100d300005003700380290000404b200ecff3a00ce
:100d40000800780011000700380290000408b20083
:100d50000c003a00fa0f500008003a0028029000f8
:100d6000e00f5200e2ff320018029000180ce90078
:100d70000402e80014049800ddff3700ed0f500076
:100d8000e2ff32004f047800000006000200fa0083
:100d9000889fbe00000478000002eb008a9fbe001e
:100da000140498000080eb00380290006102620099
:100db00040003200c49620008042eb0094cf120025
:100dc0000f0032006b9620002a102000c9fd2f0072
:100dd0008b844400390290002410b2008a0f520024
:100de00002003a0009007800d8030700ec844400b0
:100df0008b8f5400f7ff3a00c4962000004aeb00a6
:100e000058019000e00f51000e003a0012049800c3
:100e1000ea805700120020004800900066fd07009d
:100e2000e10f500003003a006ff297000480fb00ce
:100e300020003700380290000440a00034049800dd
:100e400013003700a8009000480090005afd0700ea
:100e500010049800e00f500003003200e10f400042
:100e60000d003a0003003700380290000440a00053
:100e700002003700380290000403b30034049800e5
:100e8000a80290000002eb00050c78001404980002
:100e90000080eb0007003700280290000000e90006
:100ea000040c78001004980094427800040ce800c8
:100eb0000580fb004f05be004f04be000080fa0015
:100ec00000000600000278008042eb00b4cf120060
:100ed000fdff3a000080ea0000004200000006002a
:100ee000e10f40001c003200310290001420b200db
:100ef000e10f520015003a0021039000e00f53006b
:100f00001200320011029000d1029000850f5200b1
:100f10001000320091027800868f520002003a00e1
:100f20008508e800020037000402e80094009800f9
:100f30009102e90031029000850878000404b200b3
:100f400005003a00804a7800000006000080eb00af
:100f5000000006000080eb0000000600ef03b00078
:100f6000889fbe008a9fbe008c9fbe0080067800ce
:100f70008e1f78000007eb00d1af9f00a2b79f0043
:100f800066033700dfa8970054c2b3008100e80071
:100f9000d1af9f00844f500006003a000102780054
:100fa0000006eb0001c3b30000c2b300b7c2b30038
:100fb0000e0037003d0290000404b200040032002d
:100fc0001d027800004a7800840ee8000500370012
:100fd0000000fb008d00780086030700e10f400051
:100fe0004e0332000e07e8004c03370084027800fd
:100ff000d2c2b30034437800824f5300090032005c
:1010000005003c00804f530008003200874f53001a
:101010000c003a0007003700814f530009003a00e6
:10102000060037000c30a000f0ff37000c00a000d5
:10103000eeff37000c10a000ecff37000c20a000e2
:10104000eaff370062026600010032000c00a100d6
:1010500068026600010032000c20a1000602fb00bd
:101060000403b100e90f52000c003e0005037800b4
:101070000002eb00b603fb006a22b9000703b100cf
:1010800086027800048243009603fb000703b10048
:10109000e98f5300f7ff3600080037000002eb002d
:1010a000a7c2b300874f530004003a00afb19700c6
:1010b0008502e80043027800a3b79f000003eb001d
:1010c00096b79f00e6c2b300954f13000c003a009c
:1010d0000ce0a00064435300d54f1300030032001e
:1010e000050378000000eb0009003700afb397005c
:1010f0008502e80047047800a7b79f0098b79f00d3
:1011000005037800090037006a00b9000080430039
:1011100086027800b603fb000703b100e98f530095
:10112000f9ff360090b79f00f5ff3700b642780010
:10113000cac6b300d6af9f008acf52002500320046
:101140000f003c0036c6b30086cf52009e0032002e
:1011500004003c00e0cf5200f50232006b43530024
:101160000f00370046c6b30086cf5200170032008a
:101170006543430086cf5200b2003a0013003700a7
:1011800036c7b30086cf52001f00320007003c0074
:101190006443530086cf5200140032000643e80037
:1011a00086cf5200a7003a001300370056c7b3009d
:1011b00086cf5200aa0032006343430086cf52001c
:1011c000a0003a00e5779f000d003700e5779f000b
:1011d000a5003700f0036600050120000100320081
:1011e000050028000c867200d0ff3700e5779f00cd
:1011f0000c60a0009c003700e5779f000c50a00019
:101200000c70a00098003700afb59700e5779f00fd
:10121000cb027800abb79f00b5b79f00e08f5200bc
:1012200002003a00a1932000b1b79f003fb397009e
:101230008002eb00010037008502e800e6c37a0077
:10124000e0cf5300fcff3a00c5b79f001fb19700e5
:10125000e00f510005003200cfb19700830f51001d
:101260000200310082027800c5b79f00cfb297001c
:101270000004eb00850f5200010036000504520007
:101280006806660009c2b3000f003200290037006b
:101290003d0290000404b200040032001d027800f8
:1012a000094a7800840ee800050037008d007800b8
:1012b00000022000cf020700e10f400001003200d1
:1012c0000e07e8000804e900e00f5400f0ff3a00c0
:1012d0000084eb0017003700bd0290000504b20047
:1012e00009003200880278009d03780035437800b9
:1012f000864b780005047800870ee800e04f530025
:101300000a003a0011003700880278008d0078004a
:101310003500fb0084bf9f0005047800b50207007c
:101320000fba9700e10f4000080032000e07e800f6
:10133000060037000c027800080678003fb49700da
:10134000cfb497005fb59700efb59700890278009a
:101350008504e900e08f5200dfff3a00b8b79f0034
:10136000c9b79f00dab79f00ebb79f000c04780065
:1013700009c2b30004067800e00f56000f003a00df
:10138000660237003d0290000404b20004003200ff
:101390001d027800094a7800840ee8000500370035
:1013a0008d0078000002200092020700e10f40004b
:1013b000010032000e07e8000804e900e00f5400c5
:1013c000f0ff3a0055023700afb097007003660097
:1013d00041047800a1b79f00cfc4de000905780062
:1013e0008a0578000800be000a01be004800de0041
:1013f000c80add0000807200e0779f00e00f530014
:1014000009003200e04f500007003200e14f400079
:101410000500320026002000f0779f00887f9f00a3
:10142000c6b79f000300370017002000c7b79f0012
:10143000f8779f0078fb2f0008844700b8b79f001b
:1014400082ff370069fb2f001a00200089844700c3
:10145000e5779f00b9b79f00cab79f007bff3700b1
:10146000e5779f000c0cb3008c027800050cb200ed
:101470003b003a00e00f560005003d00afb2970078
:101480004501be004500be00a5b79f000f00370014
:10149000f0026600120032002fb497004803be002d
:1014a000f69f9f0087a79f00a8b79f009802900013
:1014b000cfaade0095a79f00a5a79f007f98970061
:1014c0008fa097001fa19700afa19700b0b79f0012
:1014d000c1b79f00d2b79f00e3b79f000b00370052
:1014e000afb09700c102780005047800cfc4de00d9
:1014f000090578008a057800a1b79f00b8b79f005a
:10150000c9b79f00dab79f00ebb79f003fb09700c5
:10151000cfb097005fb19700efb19700e00f500098
:10152000e08f5800e00f5900e08f590032003d0075
:101530006000b8006011b8003fb49700cfb49700c6
:101540005fb59700efb597003c00b300080450006a
:10155000898458000a0559008b85590022003700fc
:10156000e00f560005003d00afb297004501be00f8
:101570004500be00a5b79f000f003700f0026600cf
:10158000120032002fb497008004eb004803be0025
:101590000005eb0096af9f00a7af9f00b9af9f007b
:1015a000caaf9f001fa89700afa897003fa9970058
:1015b000cfa99700a8b79f00b0b79f00c1b79f0001
:1015c000d2b79f00e3b79f000b003700afb0970082
:1015d000c1027800a1b79f0005047800090020002f
:1015e0000a0020000b002000b8b79f00c9b79f0079
:1015f000dab79f00ebb79f009fb49700e08f5400cd
:101600000d003a001a0020003fb09700cfb09700bd
:101610005fb19700efb197009ab79f00e00f5000bd
:10162000e08f5800e00f5900e08f590002003200af
:101630008000eb0091b79f000c01780005042000aa
:10164000020cb20082b79f00850f510034003200b7
:1016500003003c00e00f5100080032004800370052
:10166000050820008fb19700858f510014003200cb
:10167000050c2000858f510041003a0006882000ab
:1016800015c0b3003600be003601be003fb497005f
:10169000cfb497005fb59700efb597000040e10029
:1016a00001c8e10002d0e10003d8e10033003900b5
:1016b0008542e800f4cf5200f2ff3a002f003700d5
:1016c00015c0b30000012000010020006011b80027
:1016d0003fb49700cfb497005fb59700efb5970080
:1016e0000040e10001c8e10002d0e10003d8e100c0
:1016f00022003900490020000000d0008180d20083
:101700000281d2008381d2008904e900faff3a0005
:101710008542e800f0cf5200edff3a001700370095
:1017200015c0b30080002000010020006011b80047
:101730003fb49700cfb497005fb59700efb597001f
:101740000040e10001c8e10002d0e10003d8e1005f
:101750000a003900390020000000d0008180d2004a
:101760000281d2008381d2008904e900faff3a00a5
:101770008542e800f5cf5200edff3a00e5779f0083
:101780006f7597009fb597008a02fb008b8f520000
:1017900002003d00eb779f00040037001fb0970068
:1017a000850f500001003d0095b79f00e00f5200eb
:1017b00003003200e3026600010032000402e90087
:1017c0000500240085026600060032009fb09700e5
:1017d000810f520002003400010252000100370064
:1017e0000002eb006f7197008001eb008202fb00aa
:1017f000f3af9f00850f52000200340085025200b3
:10180000f5af9f00640266003b003200e202660012
:1018100061026600e08f520011003200bd029000ac
:101820000504b200080032009d027800b6c2b30081
:10183000e00f52000100320006c3e800864a78003b
:10184000850ee80015003700b0022000e00f5200be
:10185000010032000080e8008d0078000c003700a5
:10186000e00f52000e0032003d0290000404b2006e
:10187000050032001d02780005c2b300054a780059
:10188000840ee800050037008d007800000220007b
:1018900058010700e10f4000010032000e07e80088
:1018a0007faa9700e00f52004f00320008c3b30038
:1018b000840478003d0290000404b2000400320069
:1018c0001d027800084a7800840ee8000500370001
:1018d0008d0078000003200046010700e10f400062
:1018e000010032000e07e8008904e900f1ff3a0028
:1018f000f9af9f003c003700ffaa9700e08f52002d
:10190000140032006802660012003a0008c2b300f8
:10191000850478003d0290000404b2000400320007
:101920001d027800084a7800840ee80005003700a0
:101930008d007800000220002e010700e10f40001a
:10194000010032000e07e8008904e900f1ff3a00c7
:10195000f9af9f00e202660061026600e08f52006c
:1019600011003200bd0290000504b20008003200f0
:101970009d027800b6c2b300e00f520001003200b1
:1019800006c3e800864a7800850ee8001500370097
:10199000b0022000e00f5200010032000080e80099
:1019a0008d0078000c003700e00f52000e0032006e
:1019b0003d0290000404b200050032001d027800d0
:1019c00005c2b300054a7800840ee8000500370020
:1019d0008d0078000002200006010700e10f4000a2
:1019e000010032000e07e8001fb397008587200032
:1019f0000602e900f0046600c223dd000c05780051
:101a0000c7a79f000a02b2006323b900e99f9f00a5
:101a1000060478004322dd00b8a79f00850242003b
:101a2000da9f9f00e5af9f00a30037009fb59700a6
:101a30000fb097008b05e900010420009bb79f00c1
:101a4000810f50007300320003003c00e00f500093
:101a5000080032007e003700040820000fb1970014
:101a6000840f510056003200040c2000840f5100f6
:101a700077003a00e00f56001f003d00efa99700e5
:101a80003304be002305be003fb09700cfb09700df
:101a90005fb19700efb197000802be000a03be00d5
:101aa0001f0207000802be000a03be00e0779f0085
:101ab0000000fb00cf80de00010178008201780089
:101ac000800207003fb29700cfb297005fb3970044
:101ad000efb397000002520081825a0002035b00bc
:101ae00083835b00b4b79f00c5b79f00d6b79f0044
:101af000e7b79f002e003700ef9a9700e08f520063
:101b0000220032006fab97003fb29700cfb2970030
:101b10003604be002605be000400be000801be005b
:101b200084bf9f00f5b79f000005eb003b01070055
:101b30000801be00e0779f000000fb00cf80de00c0
:101b4000460107000fba9700ffb297008aaf9f00c7
:101b50000004520081845a00d8a79f00e9a79f0083
:101b60008004eb00f9a79f005fa09700efa097000b
:101b70007fa197008fa99700b0b79f00c1b79f00c2
:101b8000d2b79f00e3b79f0009003700efa8970086
:101b90003fb1970011027800110009000481d800bc
:101ba000a4002000110009000480d800e1779f0004
:101bb000ef7197000343b000e3779f0024003700e4
:101bc00094922000df9a9700e08f520001003200cb
:101bd000849120003fb09700cfb097005fb197008d
:101be000efb197004fa397000603e900050033000b
:101bf0008301d1000281d3008180d3000080d30013
:101c0000f9ff37006f00600064407800e0779f00c4
:101c10000f0037003fb29700cfb297005fb3970035
:101c2000efb397003fa497000804e90005003300d4
:101c30008703d1000683d3008582d3000482d300ba
:101c4000f9ff3700674262000443b000e4779f0069
:101c50003d0290000404b200070032009d027800ab
:101c60006f729700844a7800850ee800e04f5200ba
:101c700007003a0007003700ef7497008d007800e6
:101c80000900fb005b000700e10f4000010032008b
:101c90000e07e8004fa59700bfa597006fa8970013
:101ca00064055500e385550068005000caa79f00f1
:101cb000bba79f00e0af9f009fb09700e08f500050
:101cc0005aff3a0068066600140032007fa99700a8
:101cd000e00f51001100340008c2b3008204780004
:101ce0003d0290000404b200040032001d0278009e
:101cf000084a7800840ee800050037008d0078005f
:101d0000000220003b000700e10f4000010032000c
:101d10000e07e8008904e900f1ff3a00dfa9970007
:101d200013407800e0779f00e04f500095fc3a00a8
:101d30000e0078004f0778004f06be004f05be002a
:101d40004f04be00ef03b10000000600881f7800ba
:101d50000004780038009000000278001420b200df
:101d6000e10f520005003a000002eb001404980055
:101d700028029000040c78001900370080027800d7
:101d8000242020002520b2000000eb00848f5200a8
:101d900016003a00a8009000808f50001300320017
:101da00018019000800f5100100032004800900090
:101db000b5f9070018029000840f500003003200ac
:101dc000380290000403b3003404980038009000f7
:101dd0000002eb001404980028029000040c780024
:101de0000002b200010032000080eb004f047800d6
:101df00000000600889fbe00010478008084eb008c
:101e000038029000e20262003b00320004037800d6
:101e1000980290000620b20002003a00e08f5200c3
:101e200035003a000490a000800478003404980043
:101e3000f90fb200e08f520002003a00a8029000b1
:101e4000050c7800ea8f540005003a000408b2003f
:101e500003003a0088007800d0002000e5ff07006a
:101e600018029000d8029000850f52000b0032003b
:101e70000402e80015c0b3001404980018027800aa
:101e8000094a7800040ce800c4962000054a78004e
:101e9000ea8f540018003a00050037000940780026
:101ea00088007800170007008004780012003700cf
:101eb000380290000410b2000f00320018019000a8
:101ec000a8009000480090006ff9070018029000e9
:101ed000840f500004003200380290000403b30065
:101ee000340498008084eb000002eb001404980096
:101ef00028029000040c7800090078004f04be000e
:101f0000000006000200fa00889fbe00010478006d
:101f1000a0ff9f0038029000840278000504b20000
:101f2000020032000000fb0035003700e2026200d0
:101f300005003a000403b300150498003404980027
:101f40000080eb002e003700d8049000e08f540092
:101f500006003a0012002000e6805700480090007a
:101f600049f907001904980023003700a8029000df
:101f7000e08f520008003a00059720000430a000ce
:101f800025049800050c78003404980025002000f2
:101f9000550498001504980018019000a8009000be
:101fa0004800900038f90700280290008082eb007a
:101fb00015049800affa9700054a7800040ce80071
:101fc0002ffa9700ea4f52000b003a0038029000b7
:101fd0000410b2000800320018019000a800900020
:101fe0004800900028f907000002eb00a8029000ca
:101ff00014049800050c78002ffa97000400fb00e9
:102000004f04be000080fa000000060000c0da00a5
:102010000000060000c0da00000006006022b800e0
:10202000060220000000d0008180d2000482d2008d
:102030008582d2000000a0000202520083825a0072
:10204000030031000202420083824a000000a10026
:102050000603e900f3ff3a0000000600020ab90097
:10206000001bb9000200b80081004200810043005b
:1020700000000600889fbe008a9fbe003004be009c
:102080002005be000404440085844c0006054d0074
:1020900087854d000898be000a90be000440e1000c
:1020a00005c8e10006d0e10007d8e10002003100d8
:1020b000680040001008e8004f05be004f04be0055
:1020c000000006001000fa00889fbe008a9fbe0034
:1020d000110020000605be000404be003002be0050
:1020e0002003be00c4b79f00d5b79f00e6b79f008e
:1020f000f7b79f000802520089825a000a035b006a
:102100008b835b0084bf9f0095bf9f00a6bf9f008d
:10211000b7bf9f000498be000698be004fb297005c
:10212000dfb297006fb39700ffb397000820e1007c
:1021300009a8e1000ab0e1000bb8e1000100390094
:102140008000eb004f05be00108810004f04be0059
:102150000080fa00000006001400fa00889fbe000c
:102160008a9fbe008c9fbe000006eb003e00070069
:10217000ccb79f00bcb79f00acb79f009cb79f0037
:102180008cb79f000605be000404be000d042000ad
:102190004fb39700bfb29700860343002fb297005a
:1021a000e00f530004003d003d0007000f00400019
:1021b000b0ff070003003700390007000f004000a0
:1021c000c0ff0700cfb2970095bf9f00e08f52007d
:1021d000090035002b000700140020000500200036
:1021e0006033b80000007200818072000201730049
:1021f000838173001c0007000c06e8008d0f560059
:10220000e3ff3a001fba9700e00f520005003d00bf
:102210000802be000a03be0000fe2f000f004000af
:1022200094ff07004faa9700e00f520008003a0001
:102230000fb497009fb497002fb59700bfb59700d4
:10224000d8b79f00e9b79f00fab79f008bbf9f00e8
:102250000c0007004f06be004f05be004f04be0035
:102260000080fa00000006000100070000000600e0
:1022700090b79f00a1b79f00b2b79f00c3b79f0060
:102280000000060001000700000006001fb09700d4
:10229000afb097003fb19700cfb1970000000600a4
:1022a0004f2bde00f9ff0700868373008582420012
:1022b0004f23de00a7b79f0086827200040242000f
:1022c00095b79f00ffaa97004f2bde008582420042
:1022d0000602720084b79f006faa97004f23de00aa
:1022e0000402420086827200f5af9f004f18de00a4
:1022f00000027200e5ff0700e4af9f00000040000d
:102300008180480002014900838149000802be0023
:102310000a03be00d6ff070000fe2f0000000600e3
:10232000881f780018002000881f78008aff0700a7
:102330008f87e9004f04780000000600801feb0043
:1023400085ff07008f87e90000000600889fbe0018
:102350008a9fbe00e00f5000e08f5800e00f590048
:10236000e08f59000c003d006044b8006055b80093
:102370000000540081805c0002015d0083815d00eb
:10238000180020001500070008003d001800070095
:102390000004eb00050037000004eb000f0007000d
:1023a00002003d001200070018002000dcff0700bb
:1023b000e00f5400060032006022b8006033b8001d
:1023c0000000520081805a0002015b0083815b00a3
:1023d0004f05be004f04be0000000600e00f520093
:1023e000e08f5a00e00f5b00e08f5b00000006000a
:1023f0006044b8006055b8000402540085825c0057
:1024000006035d0087835d0000000600889fbe0014
:102410008a9fbe008c1f7800e00f5000e08f5800ac
:10242000e00f5900e08f59000d003d006044b800f6
:102430006055b8001c0020000000540081805c0042
:1024400002015d0083815d000820e10009a8e10030
:102450000ab0e1000bb8e1000d003d0008003700b4
:102460000006eb00e00f5200e08f5a00e00f5b0027
:10247000e08f5b0006003d006044b8006055b80086
:102480000402540085825c0006035d0087835d00c2
:10249000aaff0700e00f5600060032006022b800d5
:1024a0006033b8000000520081805a0002015b00d6
:1024b00083815b004f0678004f05be004f04be00cd
:1024c00000000600889fbe008a9fbe008c1f780017
:1024d0000006eb00e00f5000e08f5800e00f5900bd
:1024e000e08f590007003d006044b8006055b80017
:1024f0001c0020000000540081805c0002015d008f
:1025000083815d00e00f5200e08f5a00e00f5b0016
:10251000e08f5b0007003d006044b8006055b800e4
:102520000c00a2000402540085825c0006035d00da
:1025300087835d000c000700e00f560006003200a4
:102540006022b8006033b8000000520081805a0059
:1025500002015b0083815b004f0678004f05be00df
:102560004f04be0000000600889fbe008a9fbe0088
:102570008c9fbe000404b8000506b800890446001c
:1025800060854e000606b8000a054600e0854e004c
:102590000706b8008b054600040eb8008904460003
:1025a0000a854e00e0854d00050eb8000a0546007c
:1025b0008b854e00060eb8008b0546000416b80049
:1025c0000a0546008b854e000516b8008b054600af
:1025d000041eb8008b0546000800be000a01be00bc
:1025e0004f06be004f05be004f04be0000000600af
:020000040000fa
:1025f0004944000053090000454c000041420000de
:102600005f4d00004f4c0000415f0000445300004c
:1026100050490000435f0000563000002e3100009a
:1026200009250000730d000000530000544f000006
:102630005045000044000000535400004f5000007b
:10264000504900004e470000005200004553000072
:1026500045540000494e0000470000006964000036
:10266000730000006366000067000000252a000078
:1026700073090000256400000925000064090000ba
:10268000256400000925000064090000256400009d
:1026900000430000464700000925000064090000cf
:1026a000256400000925000064090000256400007d
:1026b00009250000640d0000004300004f4e00009b
:1026c0004649000047550000524900004e470000af
:1026d00000630000757200000043000055520000c6
:1026e0000925000064090000256400000925000098
:1026f000640900002564000009250000640d000045
:102700000073000074720000005300005441000088
:1027100052540000494e000047000000535400008e
:10272000520d000000530000545000000d00000046
:10273000535400004f500000504900004e47000025
:1027400000530000544f00005045000044000000ba
:1027500053540000504f00004b0d00000043000098
:102760004f4e000046490000475500005249000006
:102770004e47000000530000544100005254000036
:10278000494e00004700000052450000534500003c
:10279000544900004e470000004300004f4e000027
:1027a0004649000047550000524500004400000023
:1027b00043460000474f00004b0d0000005300004f
:1027c00054410000525400004544000000530000f2
:1027d000545200004f4b00000d0000005245000015
:1027e00053450000544500004400000052530000cf
:1027f000544f00004b0d0000000000004441000059
:10280000540d0000004500004e4400000d00000083
:102810002569000009250000690d00000000000086
:10282000535400004f5000004544000000000000d9
:0c28300052530000540d00000000000096
:020000040000fa
:10283c000000fa0081392900408520004ff707007d
:10284c0000027800e00f520005003a00e801070092
:10285c0072002000113a29004085200040f7070043
:10286c00113a29004085200044f707000002780047
:10287c00e00f52001d003a00843a2900841f7800b2
:10288c00e6f807008f87e900060037007200200089
:10289c00113a29004085200031f70700a6000700f7
:1028ac000060fe00f13a29004085200033f7070054
:1028bc0000027800e00f52000c003200b13b2900fe
:1028cc00408520002df7070000027800e00f520031
:1028dc0006003200413c29004085200027f7070004
:1028ec0000027800e00f5200e8ff3a00f13a2900ac
:1028fc004085200021f7070000027800e00f52000d
:10290c0004003a00b2002000d13c29004085200090
:10291c0013f70700d13c29004085200017f707006a
:10292c0000027800e00f520029003a00843d290093
:10293c00841f7800b9f807008f87e900060037007c
:10294c00b2002000d13c29004085200004f707008c
:10295c00790007000060fe00b13b29004085200093
:10296c0006f7070000027800e00f52001800320052
:10297c00413c29004085200000f707000002780048
:10298c00e00f5200120032008139290040852000ee
:10299c00faf6070000027800e00f52000c0032003b
:1029ac00413c290040852000f4f607000002780025
:1029bc00e00f520006003200f13a29004085200059
:1029cc00eef6070000027800e00f5200dcff3a0040
:1029dc00b13b290040852000e8f607000002780092
:1029ec00e00f520008003a0064438000e10f5200ef
:1029fc0001003a000201070082002000f13d29008d
:102a0c0040852000d6f60700f13d290040852000c6
:102a1c00daf6070000027800e00f52001d003a00c1
:102a2c00743e2900841f78007cf807008f87e9002a
:102a3c0064438000e10f520009003a00f4000700e3
:102a4c000800370082002000f13d2900408520005d
:102a5c00c3f60700380007000060fe0001003700d5
:102a6c00000000008139290040852000c3f60700d2
:102a7c0000027800e00f520006003200413c2900b1
:102a8c0040852000bdf6070000027800e00f5200e0
:102a9c00ecff3a00413c290040852000b7f60700c6
:102aac0000027800e00f520004003a00820020007f
:102abc00e13e290040852000a9f60700e13e2900ef
:102acc0040852000adf6070000027800e00f5200b0
:102adc0017003a00643f2900841f78004ff8070064
:102aec008f87e9000600370082002000e13e2900b4
:102afc00408520009af607000f0007000060fe00da
:102b0c00f13a2900408520009cf60700000278006d
:102b1c00e00f520006003200813929004085200068
:102b2c0096f6070000027800e00f5200eeff3a0024
:102b3c000080fa00000006000000fa002404800067
:102b4c0068026200e00f52002a0032008460a90083
:102b5c0085168000040024000482620004f0a700a3
:102b6c000402ea000402e9004f22de00044278006d
:102b7c000482fb00610262004e22dd00861680009a
:102b8c00f5ff2b0085026300050272008416880095
:102b9c0044852000841f7800842f2900841f78002e
:102bac001ef80700e48757005131290040852000aa
:102bbc0072f6070000027800e00f520003003200aa
:102bcc00544380000402e8005443880055438000bd
:102bdc00340b2000848f5200060034009200200039
:102bec00c1312900408520005df607000002eb0092
:102bfc0054438800053a80000404200004826200db
:102c0c00e00f520004003a00043a800070026200a7
:102c1c00e00f52000600320040c7a9004087a9000f
:102c2c009200200051322900408520004cf607000c
:102c3c003b01070000027800e00f520003003a004d
:102c4c0044438000e10f520066003a00320020003d
:102c5c00e1322900008020004ff6070000027800c6
:102c6c00e00f520006003a0044852000841f7800d3
:102c7c00842f2900841f7800e8f70700e4875700a9
:102c8c0032002000213329000080200042f607008a
:102c9c0000027800e00f520021003a004487200027
:102cac00841f780024872000841f7800048720006c
:102cbc00841f7800e4862000841f7800c4862000de
:102ccc00841f780064332900841f78000080200062
:102cdc0042f60700ec875700a04380009743800022
:102cec00864380007543800064438000801f780019
:102cfc00871f7800861f7800851f7800841f780056
:102d0c0094342900841f7800c4f70700ec8757001f
:102d1c00c2002000d13529004085200010f60700a4
:102d2c003200200091362900008020001af607009e
:102d3c0000027800e00f52000e003a00a043800021
:102d4c009743800086438000754380006443800075
:102d5c00801f7800871f7800861f7800851f7800f9
:102d6c00841f7800d4362900841f7800abf7070045
:102d7c00ec87570032002000113829000080200019
:102d8c0005f6070000027800e00f520008003a0038
:102d9c00920020005138290040852000f0f50700f2
:102dac00e4382900841f78009cf707008f87e9001e
:102dbc0044438000e10f52000a003a000002eb008d
:102dcc004443880034392900841f780093f70700a6
:102ddc008f87e90092002000c13129004085200036
:102dec00dff507000080fa00000006000000fa0082
:102dfc000000eb00970007000080fa0000000600be
:102e0c000000fa00e202a8000080fa0000000600b0
:102e1c000400fa00744380008402780005f0a700d7
:102e2c008502ea008643800074438000040253004c
:102e3c0004f0a7000402ea0004024200848242006b
:102e4c0094438000110009008402d800000278002d
:102e5c00040f78001e027800e00f520002003a00c6
:102e6c0014002000040f7800e43f2900841f780030
:102e7c006af707008f87e90074438000e00f520067
:102e8c000d003d000002eb00140798000500370010
:102e9c001e0090005c0007001e0290001e025200f3
:102eac0014079800744380009e029000848f520097
:102ebc00f7ff3c000f00370074438000e00f520016
:102ecc000c0034000002eb001407980005003700da
:102edc001e0090004c0007001e0290001e024200d3
:102eec0014079800744380009e029000848f520057
:102efc00f7ff35008543800074438000848f5200b7
:102f0c0019003d0074438000140798000500370039
:102f1c001e0090003c0007001e0290001e02520092
:102f2c0014079800844380009e029000848f520006
:102f3c00f7ff3c0080438000100798000500370025
:102f4c001e009000300007001e0290001e0242007e
:102f5c0014079800744380009e029000848f5200e6
:102f6c00f7ff35001c003700854380007443800058
:102f7c00848f5200180034007143800011079800b0
:102f8c00050037001e0090001f0007001e02900075
:102f9c001e02420014079800844380009e02900099
:102fac00848f5200f7ff350084438000140798008b
:102fbc00050037001e009000130007001e02900051
:102fcc001e02520014079800744380009e02900069
:102fdc00848f5200f7ff3c0034402900841f780096
:102fec000ef707008f87e9000080fa00000006004a
:102ffc000000fa000000eb0016000700e202a90036
:10300c000080fa00000006000600fa002007980075
:10301c002e0090000f000700400120000c0207005a
:10302c00d4148000040f7800e41480001407980076
:10303c001e029000841f78009e1f78008440290097
:10304c00841f7800f5f60700e68757000080fa0029
:10305c00000006000200fa00000f78009e027800c3
:10306c00f411200004aab90084027800c46621007f
:10307c008482420044012000110009008402d8001f
:10308c0000027800c414b000340c88000080fa00f0
:10309c00000006000000fa00048020008442880032
:1030ac0017e2a80017a2a90016e2a80016c2a900f0
:1030bc0016a2a900b41080000410a1000420a100e5
:1030cc00b41088001602a90019e2a8001962a90020
:1030dc001942a800c41080000460a1000470a10073
:1030ec00c410880018a2a900f4002000f410880075
:1030fc008700a9008f20a9008f00a800040580007c
:10310c000400a0000410a0000420a1000405880005
:10311c0024002000344b88000080fa0000000600d8
:10312c000000fa0094428000e10f520004003a00c3
:10313c000002eb00944288001400200001003700cc
:10314c000002eb00040078000080fa00000006008a
:10315c000200fa000002eb00040f780005003700b3
:10316c00048020001e0242008042eb00054a7800d9
:10317c001e0fe800f40420009e027800848f520099
:10318c00f7ff340004802000844288000080fa009d
:10319c00000006003600f800809fbe00829fbe0033
:1031ac00849fbe00869fbe00881f78003400f80004
:1031bc0000002000a00188000000fa008700a90090
:1031cc0088428000ddf40700000278000442780099
:1031dc00044c78003480200014427800ed4f5200eb
:1031ec0030003a00058020009542780034c7b300c7
:1031fc0084cf520015003a001580200095427800cb
:10320c0044c7b30084cf520010003a002580200040
:10321c009542780004c7b30084cf52000b003a00eb
:10322c0014002000444388000042eb000443780063
:10323c0035802000864a7800048020008442880073
:10324c000002eb0094428800290037000580200022
:10325c009542780024c7b30084cf520011003a0085
:10326c00158020009542780034c7b30084cf5200fb
:10327c000c003a00258020009542780044c7b3002a
:10328c0084cf520007003a0084412900841f780043
:10329c0062f607008f87e900401f20006c010700d1
:1032ac000000fe0085428000f4842000848f5200d0
:1032bc00040032008442800014427800ed4f52002a
:1032cc0008003a00844280008042eb00054a7800f6
:1032dc00048020008442880014002000944288005e
:1032ec0003003700844280000402e8008442880016
:1032fc000080fa003400f9004f0478004f03be0040
:10330c004f02be004f01be004f00be003600f90058
:04331c000040060067
:020000040000fa
:1033200076080000020000000000000054080000c1
:10333000220000000000000000080000540000000f
:10334000000000006609000002000000020000000a
:1033500001000000680900000200000000000000f9
:103360004209000024000000020000006e09000075
:10337000006e090009000000000200007009000052
:10338000007009000e0201000000000000000000b3
:103390000000000006020200000000006a090000b0
:1033a0000200000002000000420900006c09000059
:1033b00002000000000000006e0900000200000092
:1033c0000000000070090000020000000000000082
:1033d000180900002a00000002000000303132000d
:1033e0003334350036373800394142004344450014
:1033f000460030003132330034353600373839007a
:10340000616263006465660000286e00756c6c0084
:103410002900000078080000a00000000200000061
:10342000010000000000000000000a000000000091
:103430000000000000640000000000000000000028
:10344000e80300000000000000001000270000005a
:103450000000000000a08600010000000000000045
:1034600040420f000000000000008000969800001d
:10347000000000000000e100f50500000000000071
:1034800000ca9a003b00000000000000e40b54005a
:10349000020000000000e80076481700000000006d
:1034a0000010a500d4e8000000000000a0724e004b
:1034b00018090000000040007a10f3005a000000d4
:1034c0000080c600a47e8d000300000000c16f00d4
:1034d000f2862300000000008a5d78004563010049
:1034e00000006400a7b3b600e00d000000e889000a
:0c34f0000423c7008a0000000000000058
:020000040000fa
:1034fc000000fa00c4ff2f0044158800041580005a
:10350c000480a1000490a10004158800041580001b
:10351c000450a0000460a0000470a00004158800f2
:10352c00a062a800a042a800a022a9001415800047
:10353c0004d0a10004e0a10004f0a100141588003f
:10354c00a342a900141580000480a0000490a100df
:10355c0014158800141580000420a0000430a0006d
:10356c000440a0000450a00014158800a222a90059
:10357c00a202a90025158000f40f2e00848262009f
:10358c0004a020000502720024158800a4e2a90002
:10359c0025158000f4032000050272002415880014
:1035ac00341580000460a1000470a100341588005b
:1035bc00a6a2a900a682a900341580000400a000d0
:1035cc000410a1000420a1000430a10034158800cf
:1035dc003400200054158800a1e2a9008560a900e0
:1035ec008d60a8000080fa00000006000000fa00c0
:1035fc008560a900a1e2a9000080fa000040060045
:10360c000000fa000002eb000408880005e1a800a5
:10361c0005a1a90004c1a900240880000440a00051
:10362c000450a000240888000421a90004082700e5
:10363c00140888008460a9008c60a800a404800091
:10364c0004c0a00004d0a00004e0a100a4048800e1
:10365c004227a9000080fa00000006000000fa00d2
:10366c000002eb000408880005e1a80005a1a900f0
:10367c0004c1a900240880000440a0000450a0004c
:10368c00240888000421a9000082eb00140888009b
:10369c008460a9008c60a900a404800004c0a1006f
:1036ac0004d0a10004e0a100a40488004227a900d2
:1036bc000080fa00000006000000fa000002eb0097
:1036cc00f40888000002eb00a408880004102e0007
:1036dc00d40888008ea0a800f40880000440a00044
:1036ec000450a000f408880086a0a9001fe1a800df
:1036fc000080fa0000000600849fbe00861f780040
:10370c000000fa0086a0a9008516800004002400a1
:10371c000482620004f0a7000402ea000402e9003b
:10372c004f22de00044278000482fb00610262003a
:10373c004e22dd0086168000f5ff2b00850263000b
:10374c00050272008416880014002000b44388001f
:10375c000080fa004f0378004f02be0000400600c4
:10376c000000fa002342a80022a2a8002302a8000d
:10377c00141180000420a1000430a1000440a10019
:10378c0014118800141180000400a0000410a00083
:10379c00141188008500a9008d00a80020c2a90082
:1037ac0021e2a8000080fa00000006000000fa00e8
:1037bc008500a90020c2a9000080fa000040060084
:1037cc000200fa00000f7800f4ff20001e0f6200c8
:1037dc00040021001e027200241188000080fa00ef
:1037ec00000006000000fa008ba1a9008a81a90044
:1037fc008a61a900540c80000400a1000410a000f0
:10380c000420a000540c88000080fa000000060080
:10381c000000fa0097a1a9009681a9009661a90061
:10382c00b40c80000400a0000410a1000420a0002f
:10383c00b40c8800640880000402d100a40c880039
:10384c0064088000940c88000080fa0000000600d8
:10385c000600fa00200798000f003700c4cc2100a6
:10386c0005002000048fbe00040037000082eb002e
:10387c008082eb001e0f42005e974a001e02be00c3
:10388c00e00f5200e08f5a00f8ff3a002e02900031
:10389c000402e900240798002e029000e00f520069
:1038ac00eeff3a000080fa00000006000000fa006b
:1038bc004f000700f7fd070011000700c9ff0700c4
:1038cc000000eb00e3fd07007bff070008ff07008b
:1038dc00803e2000deff07001dfe07007200200066
:1038ec0001412900408520001df3070092fc0700d0
:1038fc005aff0700cefb07000060fe00fdff3700fb
:10390c000000fa000002eb00840888000002eb00c3
:10391c0034088800a4402200640888008cc0a800e9
:10392c00840880000440a1000450a0008408880092
:10393c0011e1a80084c0a9000080fa000000060074
:10394c000000fa0084c0a900a1e2a8000080fa00df
:10395c00004006000000fa000002eb00940888000a
:10396c000002eb0054088800c41220007408880080
:10397c008ce0a800940880000440a1000450a10031
:10398c009408880084e0a90013e1a8000080fa00e4
:10399c00000006000000fa0084e0a9000080fa0094
:1039ac00004006000000fa00140a80000400a10088
:1039bc000410a0000420a100140a8800140a80003e
:1039cc000450a1000460a100140a880042e1a9007f
:1039dc008420a9008c20a8000080fa0000000600ba
:1039ec000000fa008420a9000080fa0000400600c4
:1039fc000000fa00d902a800c602a800c622a8003e
:103a0c00cdc2a900cda2a900d222a900de02a90034
:083a1c000080fa000000060022
:020000040000fa
:0200000401f009
:04000000f7bf000046
:020000040000fa
:0200000401f009
:04000400ffff0000fa
:00000001FF
