:020000040000fa
:080000000001040000000000f3
:020000040000fa
:1000080090010000900100009001000090010000a4
:100018009001000090010000900100009001000094
:10002800900100006018000090010000900100009d
:100038009001000090010000dc1600003a18000052
:10004800761700009001000090010000b016000033
:100058009001000090010000900100009001000054
:100068009001000090010000900100009001000044
:1000780090010000b21700009001000090010000fc
:10008800041500009001000090010000900100009c
:100098009001000090010000900100009001000014
:1000a8009001000090010000900100009001000004
:1000b80090010000900100009001000090010000f4
:1000c80090010000900100009001000090010000e4
:1000d80090010000900100009001000090010000d4
:1000e80090010000900100009001000090010000c4
:0800f8009001000090010000de
:020000040000fa
:1001080090010000900100009001000090010000a3
:100118009001000090010000900100009001000093
:10012800900100006018000090010000900100009c
:100138009001000090010000dc1600003a18000051
:10014800761700009001000090010000b016000032
:100158009001000090010000900100009001000053
:100168009001000090010000900100009001000043
:1001780090010000b21700009001000090010000fb
:10018800041500009001000090010000900100009b
:100198009001000090010000900100009001000013
:1001a8009001000090010000900100009001000003
:1001b80090010000900100009001000090010000f3
:1001c80090010000900100009001000090010000e3
:1001d80090010000900100009001000090010000d3
:1001e80090010000900100009001000090010000c3
:0801f8009001000090010000dd
:020000040000fa
:10020000cf9520000eff20000e01880000000000a6
:100210000c000700c055210001002000110007005c
:10022000000020000000e000020032000000020098
:1002300000000000f0170200000000000040da009b
:100240000000fe004440a900000720000000e0007c
:100250000300320000002000a00188004440a800f4
:100260000000060091018800800078000000eb008b
:1002700015003700e280400032a0b4009101ba00be
:10028000e280400032a0b4009102ba00e280400057
:1002900032a0b4000002eb00472bde00f507b200ed
:1002a000602ce10004003a000059eb008301e900f2
:1002b000fdff3e00040037006128e100010032002c
:1002c0000082eb00040007001101ba000200e00008
:1002d000e8ff3a00000006003159ba008301e90046
:1002e0000c0032002159ba008301e90008003200f5
:1002f0000400e00003003a00e280400032a0b400b5
:10030000f5ff370011d9ba008301e900faff3a007e
:100310008100e800e180400032a0b4000000060047
:100320000040da000000fe001004b10007003500b4
:100330009001b100040034007000b10003003500ea
:100340009001b10001003c00100005000000050014
:100350006900e100040035006d00e1000300340095
:100360000002b1000100320000000500100005008d
:100370001004b100030035009001b10001003c0001
:100380001000050000000500800078001104b10095
:10039000030035009101b10001003c000050a000b5
:1003a00000000600f2108800b0108800c11088001c
:1003b00000000600889fbe000004be000600370053
:1003c0000000fb008900780078020700e10f400080
:1003d000050032000804e80018407800e04f5000a3
:1003e000f7ff3a000000eb004f04be0000000600db
:1003f000881f780081932000eeff0700000478003a
:1004000081932000a0002000680207000800780007
:100410004f0478000000060081932000630237003b
:100420000000fa0068815700cfb897008093200041
:10043000c90207000080fa00000006000c00fa0064
:10044000a0bf9f00c0bf9f009d020700b0bf9f00dc
:10045000f0bf9f00100c2000d0bf9f007481570098
:10046000efb097006c805700340007000080fa005e
:1004700000000600881f7800d04a8000ca010700eb
:100480000004780008007800b1ff0700e00f50007a
:10049000f9ff3a00e10f440003003200d14a800026
:1004a000080078008d0207004f0478000000060065
:1004b000889fbe008a1f780000047800814478007d
:1004c0000205780000fd2f0008004000e90f5000f1
:1004d00002003e0000047800100037000800780099
:1004e000a3ff0700e00f500005003200e00f5500a9
:1004f0000300320008007800a3ff07000004780022
:100500000800780088ff07008000780000c0eb003a
:10051000e08f5000060032007805b1008984fb00ae
:1005200000c0eb00890f540001003d000840780036
:100530004f0578004f04be0000000600f287470018
:10054000889fbe008a9fbe008c9fbe008e1f7800d1
:1005500080017800e1b79f00d2b79f00d34a88009e
:100560000000eb00b0b79f0080407800e1ef9f00f3
:100570005d0137006fb097000000e800e0b79f0012
:100580000885fb000a00780071ff0700e00f5000ab
:1005900002003200b7ff07005301370051c2b30019
:1005a000814f540041013a0021c0b3000047780058
:1005b0006fb2970001457800840678000400370088
:1005c0002ac0b300010037004ac0b3000d02780012
:1005d0003d44780081c6b300814f5400f8ff3200db
:1005e00015003e00f0c05000814f54002f00320033
:1005f0000a003e00ecc05000814f5400270032003a
:1006000086003e00e04f5400bb003200a1c2b300a0
:10061000814f540081003a001e00370031c6b300fc
:10062000814f5400600032008140e800814f540047
:100630007a003a008d00370031c7b300814f540073
:100640002100320007003e00e7c05000814f5400f7
:1006500012003200e3c04000814f54006f003a00a6
:100660008700370051c7b300814f54007f0032002c
:10067000e3c04000814f540068003a00cae79f0081
:1006800000467800edb79f000000eb00b0b79f0078
:100690000b0037000e47e800ccff3700e24f550053
:1006a000c9ff32008ac0b300c8ff3700cae79f0005
:1006b00000467800edb79f0011002000b1b79f0001
:1006c0000dc1b3007200370000467800edb79f00ff
:1006d00068ff0700e04f570004003a005fb0970042
:1006e000c0007800d0b79f00c1b79f00d04a8000fb
:1006f0002d01070000047800e10f440014003a00c7
:1007000008007800f4003700efb097001100fb00fc
:10071000800f540005003a000a007800c0b79f001f
:100720008100e800e1b79f0017003700e04f570055
:1007300001003a00085d78000c46e9000d00320027
:10074000d04a80001801070000047800010037003b
:100750004fb597000800e800e10f50000800360090
:1007600008007800fafe0700e00f5000e6ff3200b4
:10077000030037000a007800c0b79f00020037006e
:100780008a007800c1b79f00e04f5700d6003a00ba
:100790006fe897000040e800e0ef9f00cfb09700bf
:1007a0008e487800d000370000467800edb79f00f3
:1007b000e04f570008003a006fe897000040e8005b
:1007c000e0ef9f00dfb0970041007800d1b79f00b5
:1007d00000047800010037004fb49700d04a800031
:1007e000f100070080007800e18f400002003a002d
:1007f00001007800b8003700e04f570001003a00d0
:10080000015c78000c46e9004240a900f3ff3c007f
:1008100008007800c0b79f00b30037000884fb00d1
:1008200000fd2f0008004000e90f500009003e00c5
:1008300004007800b8000700010037008d06e800ca
:100840009d00fb000103b100e98f5000fbff360063
:100850005eff3700edb79f00d04a8000d20007004e
:10086000800f540097003a009f003700cae79f00ae
:1008700000467800edb79f00adc0b300040037001c
:10088000cae79f0000467800edb79f008dc0b30017
:10089000f8fe0700d04a8000c300070080027800fd
:1008a0000040eb00b0e79f00d3022000838f52008e
:1008b00005003a00d04a8000bb00070080027800a3
:1008c00011c0b300b1e79f003fb197008d407800a1
:1008d0000500780085bf9f00f5fe07008041780085
:1008e0008fba9700e1cf41000e003a00d14a800054
:1008f00005007800790107006fe89700e04f50008d
:1009000002003200804078007c003700d04a80002e
:100910003000900070006000790032000080eb0031
:100920007700370003032000838f52001b003a003a
:10093000d04a800085bf9f009b000700800178009f
:10094000840720008fba9700848f510004003a007a
:100950003fb09700e00f5000070032000a00370058
:1009600084052000848f510007003a00bfb0970033
:10097000e08f500004003200d04a80008a00070057
:100980008002780005003700d14a8000030078001b
:1009900085bf9f00510107008fba97006044b800df
:1009a0000d85fb000b0020000e407800a0e79f00a3
:1009b000050778000a01be000800be001d060700fa
:1009c0000004be003fb197008d4078000e00780013
:1009d000b7fe0700004278000482fb0005002000fb
:1009e0000404440085844c000c46e9000a003200ef
:1009f000d04a80006c000700000778003fb19700e4
:100a00008d4078000e007800a9fe07008041780034
:100a1000e1cf4100e7ff3a008e0278002fe7970010
:100a20003fb197008d4078000500780085bf9f009a
:100a30009ffe0700804078008fba9700e1cf40000a
:100a400003003a00d14a8000050078002301070026
:100a5000bfe09700e0cf50000200320060041400b5
:100a6000e0841c00e04f57001f003a006fe8970039
:100a70000040e800e0ef9f00dfb097000180e90050
:100a8000cfe09700e4cf500004003a00d0b79f00b9
:100a9000900078008888be0013003700d0b79f0010
:100aa00090007800880878000f003700d04a800056
:100ab0003d00070080007800810f55000a003200d9
:100ac00001007800e10f400003003200d14a8000ad
:100ad0000201070008003700efe89700e0cf500060
:100ae00006003a00060037006fb097001044780007
:100af000e04f54009ffe3a00efe897000180fb00b2
:100b00004f0778004f06be004f05be004f04be00e1
:100b10002f01b1000000060002c2b300010037003f
:100b20000000e8009040780082cf5000fcff3200c7
:100b3000e9cf5000faff3200d2c2b30082cf50009a
:100b400003003a000000e80012c0b30005003700bf
:100b50000041eb00b3c2b30083cf500001003a0064
:100b60000000e8008000eb00050037006a0ab900c9
:100b700001fd2f0084804000838040000000e800d9
:100b80009001fb0004fd2f0003024200e90f520018
:100b9000f6ff3600e04f5100010032008100ea000c
:100ba0000100780000000600881f7800000478002b
:100bb00038009000f1006000e18f500006003a001c
:100bc000800078000120b2000800320098009000f8
:100bd000e08f500005003200380090000040a00077
:100be000300498000080eb00200037000090a10046
:100bf0003004980018009000e00f50000700340007
:100c00000000e90010049800980078001141780075
:100c10000280fb00010ce80005003700380090005e
:100c20000004b200ecff3a00080078001100070051
:100c3000b80090000108b2000c003a00fa0f500012
:100c400008003a0028009000e00f5000e2ff320058
:100c5000180090000000e80010049800180ce9004b
:100c6000ddff3700ed0f5000e2ff32004f04780047
:100c7000000006000200fa00889fbe008a9fbe00a6
:100c8000000478000000eb0010049800b800900009
:100c9000e18060000080eb004000320020952000e1
:100ca0008040eb0090cf10000f003200c99220006e
:100cb0002b1020004a022000090545003900900051
:100cc0002010b2008b0f500002003a00090078009b
:100cd00078040700ec8444008a8f5400f7ff3a0040
:100ce000209520000048eb0058019000e00f5100d3
:100cf0000e003a001204980012002000ea8057000b
:100d000048009000d7040700e10f500003003a00ac
:100d10006ff197000280fb00200037003800900040
:100d20000040a0003004980013003700a800900095
:100d300048009000cb04070010049800e00f50001a
:100d400003003200e10f40000d003a0003003700bd
:100d5000380090000040a0000200370038009000ea
:100d60000003b3003004980028009000000c7800c5
:100d70000000eb00100498000080eb000700370033
:100d8000a8009000010c78000000e9001004980011
:100d9000114178000280fb00010ce8004f05be0005
:100da0004f04be000080fa0000000600889fbe00cd
:100db00001047800b8009000628160008084eb003c
:100dc0003c003200810178000320b200180190003d
:100dd00002003a00e00f510036003a000190a000f6
:100de0003104980080047800f90fb200e00f510040
:100df00002003a0028009000000c7800ea8f5400ae
:100e000006003a00010078000008b20003003a0032
:100e100088007800d0002000e4ff07001800900050
:100e2000d8009000810f50000b0032000000e80055
:100e3000100498001800780009487800000ce800b9
:100e400010c0b3002195200080487800ea8f54003c
:100e500018003a0005003700880078000940780043
:100e60003e0407008004780012003700380090002c
:100e70000010b2000f00320018019000a80090008e
:100e800048009000ac04070098009000810f5000cb
:100e900004003200380090000003b30030049800d2
:100ea0008084eb000000eb00100498002800900004
:100eb000000c7800090078004f04be000000060016
:100ec000800078000041eb00b14f1100fdff3a00b7
:100ed0000080ea000080400000000600e10f4000b2
:100ee0001c003200310190001220b200e10f5100cd
:100ef00015003a0021029000e00f5200120032006b
:100f000011019000d1019000830f510010003200b8
:100f100091017800848f510002003a008308e800b4
:100f2000020037000201e800920098001101e90078
:100f300082087800b10090000104b20005003a0078
:100f400000497800000006000080eb000000060069
:100f50000080eb00000006000f04b000889fbe0078
:100f60008a9fbe008c9fbe008e1f7800c0b79f0076
:100f7000d1af9f00a2b79f000000eb00c003370075
:100f8000dfa897008100e800d1af9f0052c2b300f4
:100f900082cf520006003a000007eb0006c3b30000
:100fa00003c2b300b1c2b3005fa8970014003700ba
:100fb000cfb19700330190000204b2000500320067
:100fc000030278009401780085497800030ae8005c
:100fd000070037000501fb00cfb097000200780042
:100fe00072ff070000017800e10f4100a503320005
:100ff000bfb297008502e800b5b79f00a103370094
:1010000090427800d7c2b30087cf52000b00320065
:101010000001e80087cf520005003c0083cf52005a
:101020000900320081cf52000e003a00080037005c
:1010300086cf52000b003a00070037000e30a000a8
:101040000000e800eeff37000e00a00003003700ac
:101050000e10a000010037000e20a0000200780052
:10106000e7ff3700d0af9f00e201670001003200c8
:101070000e00a100e8016700010032000e20a1006f
:101080008501fb000303b100e98f51000d003e0014
:10109000000020005fa997006a00b9000003b100ba
:1010a0009200fb0001004000d200fb000103b100f0
:1010b000e98f5000f8ff3600c0af9f00d2af9f000d
:1010c0000c0037008004eb00c9af9f00a3c2b3003f
:1010d00083cf520007003a002fb59700ca05780069
:1010e000aab79f00cbaf9f005fa897000000e80061
:1010f000d0af9f008000eb00e1af9f00e3c2b300e0
:101100005fa9970092cf11001e003a000ee0a000e8
:10111000e4c151000201e800d2af9f001242780002
:10112000834f52000d003a00afb29700450378009c
:10113000a5b79f00e6af9f00820378008703e80011
:1011400007017800100037006a00b9000003b10001
:10115000020040008301e800020037006fa89700fa
:10116000dfa997001301fb0001fd2f0082804000e2
:10117000e98f5000f4ff3600e0af9f0003017800d4
:10118000010037005fa9970032427800c4779f00c2
:10119000c8c6b300884f520023003200d2af9f0070
:1011a0000f003c0035c6b300854f5200a700320047
:1011b00004003c00e04f52003703320083c5b30007
:1011c0000f00370043c6b300834f5200c400320003
:1011d000e5c14100834f5200ba003a00c000370019
:1011e00035c7b300854f52001a00320007003c009b
:1011f000f3c6b300834f5200110032008341e80070
:10120000834f5200af003a000f00370053c7b300be
:10121000834f5200b1003200e3c14100834f5200be
:10122000a8003a000900370070006700010028009c
:1012300001003a000101200001077700d2ff3700ca
:101240000e60a000a60037000e50a0000e70a00097
:10125000a3003700afb49700c9027800a9b79f0078
:10126000d5b79f00e08f520002003a004b92200059
:10127000dbb79f000000eb00e0b79f005fb0970076
:10128000efb097007fb197008fb99700010037004a
:101290008500e8008102780061427800e04f52004a
:1012a000fbff3a00d0b79f00e1b79f00f2b79f0065
:1012b00083bf9f00efaa9700e08f52000500320025
:1012c0006fb39700868f52000200310085037800cb
:1012d000e7b79f00efb297000006eb004fac970016
:1012e000850f5400010036000506540068076700aa
:1012f0002f003a008c01780008c2b300cfb69700e7
:10130000100037003d0090000004b20004003200dd
:101310001d00780008487800800ee80005003700be
:101320008d00780000022000a0fe0700e10f4000c1
:1013300003003200bfb497008904e800b9b79f00ea
:101340008c0178000c06e900e08f5100edff3a00b7
:10135000170037003d0090000004b2000900320081
:101360009d017800080178003240780080497800bb
:10137000830ee80002047800e04f500008003a00b5
:1013800010003700080178003200fb0002047800ea
:101390008d00780085fe0700e10f40000900320053
:1013a0003fb097000000e800b0b79f00050037008d
:1013b0005fb49700efb497007fb597008fbd97009b
:1013c000cfb69700090078008004e900e00f5000d4
:1013d000e0ff3a00d8b79f00e9b79f00fab79f0037
:1013e0008bbf9f00e00f5700a602320011003700ac
:1013f000380090000004b2000400320018007800a9
:101400000d487800000ce8000500370088007800df
:101410000002200065fe0700e10f400003003200db
:10142000bfb297008502e800b5b79f000e067800ae
:10143000020037000dc2b3004fb497000c07e9005b
:10144000e00f5600eaff3a008e0237002fb39700f4
:1014500046047800a6b79f00cfc4de0009057800d7
:101460008a0578000802be000a03be004822de009a
:101470004828dd0004027000c4779f0070066700f2
:1014800009003200e04f520007003200e14f4200f5
:1014900005003200d4779f00e8779f0021002000ec
:1014a000e1b79f0003003700d8779f0012002000ab
:1014b000e2b79f0053fb2f0083814700d3b79f0003
:1014c0007cff370044fb2f0004824700d4b79f0005
:1014d00015002000e5b79f0076ff37000e0cb30023
:1014e0000e007800000cb2003b003a00e00f5700fd
:1014f00005003d002fb097004005be004004be002f
:10150000a0b79f000f003700700067001200320084
:101510002fb297004401be00a4b79f00e29f9f0036
:10152000f39f9f00140090004f80de0080a79f0073
:1015300090a79f006f9c9700ff9c97000fa59700b6
:101540009fa59700d8b79f00e9b79f00fab79f0003
:101550008bbf9f000b003700afb4970049027800a3
:10156000a9b79f0004007800cf80de000101780059
:1015700082017800d0b79f00e1b79f00f2b79f00cb
:1015800083bf9f005fb29700efb297007fb39700d1
:101590008fbb9700e00f5200e08f5a00e00f5b0016
:1015a000e08f5b0032003d003e00b3006022b800d7
:1015b0006033b8005fb49700efb497007fb5970031
:1015c0008fbd97000804520089845a000a055b0009
:1015d0008b855b0022003700e00f570005003d00bf
:1015e0002fb297004401be004400be00a4b79f0084
:1015f0000f00370070006700120032002fb4970010
:101600004803be00a8b79f00e6a79f00f7a79f006a
:101610008004eb0089af9f000005eb009aaf9f00ac
:101620006fa09700ffa097000fa997009fa99700b0
:10163000d0b79f00e1b79f00f2b79f0083bf9f0024
:101640000b003700afb0970041027800a1b79f00b0
:1016500004047800090020000a0020000b0020008c
:10166000d8b79f00e9b79f00fab79f008bbf9f00d4
:10167000efac9700e08f54000d003a001a002000f4
:10168000eaaf9f005fb09700efb097007fb197007f
:101690008fb99700e00f5000e08f5800e00f59001d
:1016a000e08f5900020032008000eb00e1af9f00a4
:1016b0000e017800020cb200b2af9f0005042000ba
:1016c000850f51003f00320003003c00e00f510045
:1016d000080032005600370004082000bfa9970018
:1016e000848f51001b003200040c2000848f5100b5
:1016f0004f003a0013c0b300c3779f00218620003b
:10170000100037000200fb004300dd0000804000b5
:101710003002be002003be005fb49700efb4970014
:101720007fb597008fbd97000440e10005c8e10038
:1017300006d0e10007d8e1003d0039000241e80091
:10174000c2779f004f719700f44f5100edff3a00b0
:101750003700370013c0b300c3779f000401200097
:10176000050020006033b800120037005fb4970016
:10177000efb497007fb597008fbd97000440e1005c
:1017800005c8e10006d0e10007d8e10028003900d3
:10179000490020000402d0008582d2000683d200d6
:1017a0008783d2008904e900faff3a000040e8008c
:1017b000c0779f004f709700f04f5000ebff3a004a
:1017c0001b00370013c0b300c3779f0084002000c4
:1017d000050020006033b800120037005fb49700a6
:1017e000efb497007fb597008fbd97000440e100ec
:1017f00005c8e10006d0e10007d8e1000c0039007f
:10180000390020000402d0008582d2000683d20075
:101810008783d2008904e900faff3a000040e8001b
:10182000c0779f004f709700f54f5000ebff3a00d4
:101830004f7597008a02fb00efad97008b8f520027
:1018400002003d00cb779f00040037006fa897008f
:10185000850f500001003d00e5af9f00cfa8970025
:10186000e08f500004003200630267000200320083
:101870008100e900c1af9f0004002400040267005a
:10188000090032004fa99700efa99700830f51007c
:101890000300340003015100c2af9f000200370073
:1018a0000002eb00c4af9f004f7397008602fb005d
:1018b0008003eb00a7af9f004fac9700850f54004b
:1018c0000200340085025400a5af9f006402670047
:1018d0004c003200e202670061036700e08f5200b3
:1018e0001b003200cfb49700390290000404b2000c
:1018f0000900320099037800b5c2b300e00f53002d
:101900000100320085c2e800854b78004fb5970092
:10191000070de8000a003700d5022000e00f530051
:1019200001003a008582e900cfb0970005007800f9
:101930001efd070000027800e10f4200180032008f
:10194000bfb597008b05e800bbb79f0014003700b8
:10195000e00f5300120032004fb0970030029000a9
:101960000404b200050032009002780003c2b30004
:10197000834a78000508e80006003700cfb09700da
:101980000002200009fd070000027800e10f42007c
:1019900003003200bfb097008100e800b1b79f009c
:1019a0002fa99700e00f51001101320008c3b300c6
:1019b000820678004fb697003c0090000004b20009
:1019c000040032001c00780008487800000ee8008f
:1019d000050037008c00780000032000f3fc0700ae
:1019e000e10f400003003200bfb197008301e8001f
:1019f000b3b79f008d06e900efff3a00adaf9f003f
:101a0000fb0037002faa9700e00f520017003200aa
:101a10006802670015003a0008c2b300afae970035
:101a20004fb697003c0090000004b2000400320062
:101a30001c00780008487800000ee8000500370018
:101a40008c00780000022000d8fc0700e10f400065
:101a500003003200bfb297008502e800b5b79f00cf
:101a60008d06e900efff3a00adaf9f00e20267008c
:101a700061036700e08f52001c003200cfb3970073
:101a8000370290000404b2000a0032000704780014
:101a900098037800b5c2b300e00f53000100320094
:101aa00085c2e800854b7800cfb49700870ce8002a
:101ab0000a003700d5022000e00f530001003a0071
:101ac0008582e900cfb0970005007800b7fc0700d9
:101ad00000027800e10f4200c50032003fb59700d8
:101ae0000a05e800bab79f00c1003700e00f5300b5
:101af000bf003200cfb597003b0290000404b20053
:101b0000050032009b02780003c2b300834a7800cc
:101b1000850de80006003700cfb0970000022000d6
:101b2000a2fc070000027800e10f4200b000320082
:101b30003fb097000000e800b0b79f00ac0037004e
:101b40000e07e90000042000bfa89700808f500016
:101b50008200320003003c00e08f50000800320099
:101b60008e003700000820003fa99700800f510029
:101b700065003200000c2000800f510087003a0001
:101b80004370dd00cfa99700e08f51002a003d008f
:101b900024862000000042003004be002005be0064
:101ba000e8af9f00f9af9f008ab79f009bb79f00e7
:101bb0000802be000a03be005fb09700efb09700b6
:101bc0007fb197008fb997002e020700c0779f0062
:101bd0000004fb00cfc4de00090578008a05780008
:101be0006faa9700ffaa97000fb397009fb39700c3
:101bf0000800be000a01be008e0207000203be00fc
:101c00000002be005fb09700efb097007fb1970071
:101c10008fb99700040050008580580006015900d4
:101c200087815900d0b79f00e1b79f00f2b79f00ae
:101c300083bf9f0030003700df989700e08f50008f
:101c40001f0032005fb69700efb697002286200093
:101c5000000041003004be002005be000801be00a7
:101c60000c00be0063010700c0779f000000fb006e
:101c7000cf80de000801be006e01070000025600a2
:101c800081825e00a4a79f00b5a79f008002eb00a1
:101c9000c5a79f000003eb00d6a79f002fa49700c5
:101ca000bfa497004fa59700dfa59700d8b79f0066
:101cb000e9b79f00fab79f008bbf9f000e00370067
:101cc00029862000690178005fb59700811f7800a0
:101cd000110009000285d800cf007800a200200082
:101ce000811f7800110009000280d80001007800ef
:101cf000cf007800c0779f00cf7597000b43b000ee
:101d0000cb779f0025003700249020004f98970044
:101d1000e00f500001003a00349120004270dd00d5
:101d20005fb49700efb497007fb597008fbd970021
:101d3000800278008502e900050033008b05d100a0
:101d40000a85d3008984d3000884d300f9ff3700c3
:101d50006f006400644078000f0037006370b900c2
:101d60005fb49700efb497007fb597008fbd9700e1
:101d7000000278000402e900050033008b05d10061
:101d80000a85d3008984d3000884d300f9ff370083
:101d9000674064000043b000c0779f00cfb2970057
:101da000350090000004b2000700320015017800f1
:101db0004f70970000497800820ae800e04f500019
:101dc00007003a00120037004f7397000600fb002f
:101dd000cfb09700f5fb0700e10f40000c00320088
:101de000bfb397008703e800b7b79f00080037002c
:101df00070046700d89f9f008e0478000902b2002b
:101e0000c99f9f000e057800caaf9f006faf970073
:101e1000e00f57004aff3a004faf97006801670094
:101e200018003200afad9700e08f55001500340068
:101e300008c2b3008b0678003fb797004fb69700f3
:101e40003c0090000004b200040032001c00780046
:101e500008487800000ee800050037008c00780084
:101e600000022000d1fb0700e10f4000010032001a
:101e70000e07e8008d06e900f1ff3a000e00780039
:101e8000b0b79f00dfa8970091427800c5779f0008
:101e9000e0cf52003afc3a003fb097004f0778007d
:101ea0004f06be004f05be004f04be000f04b10038
:101eb00000000600881f78000004780038009000b9
:101ec000800078001120b200e18f500005003a0038
:101ed0008000eb0011049800a8009000010c78002d
:101ee00019003700000178002220b2000000eb004a
:101ef00021202000810f510016003a00a800900018
:101f0000808f50001300320018019000800f5100a4
:101f100010003200480090008700070098009000f1
:101f2000810f500003003200380090000003b3001e
:101f3000300498000000eb00100498002800900086
:101f4000000c7800380090000002b200010032005e
:101f50000080eb004f047800000006000200fa0049
:101f6000889fbe00a0ff9f00010478003800900009
:101f7000800078000104b20033003a00e200600003
:101f800005003a000003b3003004980011049800e3
:101f90000080eb002e003700d8049000e08f540042
:101fa00006003a0012002000e6805700480090002a
:101fb000610007001904980023003700a800900072
:101fc000e08f500008003a0051952000210498004d
:101fd000010c7800210020005104980011049800a1
:101fe0000030a0003004980018019000a800900074
:101ff0004800900050000700280090008080eb000f
:1020000011049800aff8970001487800000ce80030
:102010002ff89700ea4f50000b003a00380090006c
:102020000010b2000800320018019000a8009000d3
:1020300048009000400007000000eb0010049800ea
:10204000a8009000010c7800aff897000100fb0099
:102050004f04be000080fa000000060000c0da0055
:10206000000006000a00fa00e00f500026003a00c7
:10207000c04a8000e10f500006003200e02120003d
:10208000c52120008421200063212000e00f5000a2
:1020900004003a004021200025212000e4202000f7
:1020a000c3202000060028009303630002003a00ca
:1020b0000708780093097300020078000c003700cd
:1020c0008301e900940378006183630002003a0011
:1020d000e08f5100faff3a0014037800e101630039
:1020e0000700320095017800835878000000e9006d
:1020f000e00f500002003200030a2000f1ff370019
:10210000000051000800370023002000b3bf9f00eb
:10211000c0bf9f00d1bf9f00e2bf9f006a805700f1
:10212000ceff07006fb897000080fa00000006009d
:1021300000c0da00000006000a00fa00e20f5000ba
:1021400021003e00c04a8000e10f5000060032002e
:10215000e5212000a421200083212000602120000f
:10216000e08f520004003a004521200004212000a5
:10217000e3202000c0202000060028009003630018
:1021800002003a00870a780010087300004020001f
:102190001300600001003a0013a0a00002007800c4
:1021a00006003700930278000510b200fdff3200f0
:1021b000b102fb00050a78000000e900e00f5000c2
:1021c000f8ff3a000800370033002000b3bf9f003b
:1021d000c0bf9f00d1bf9f00e2bf9f006a80570031
:1021e000d3ff07006fb99700020078000080fa0063
:1021f000000006006022b800060220000000d000a7
:102200008180d2000482d2008582d2000000a0002a
:102210000202520083825a0003003100020242008f
:1022200083824a000000a1000603e900f3ff3a00a0
:1022300000000600020ab900001bb9000200b80045
:10224000810042008100430000000600889fbe001c
:102250008a9fbe003004be002005be000404440076
:1022600085844c0006054d0087854d000898be000a
:102270000a90be000440e10005c8e10006d0e1007c
:1022800007d8e10002003100680040001008e800b3
:102290004f05be004f04be0000000600889fbe0030
:1022a0008a9fbe008c1f7800000678003c04be00a8
:1022b0002c05be000400540085805c0006015d0012
:1022c00087815d00009ebe00029ebe0010002000bf
:1022d0000440e10005c8e10006d0e10007d8e100b4
:1022e000010039000000eb001c0e10004f067800c2
:1022f0004f05be004f04be00000006001200fa00a9
:10230000889fbe008a9fbe008c9fbe000205be0053
:102310000004be00e4b79f00f5b79f0086bf9f0092
:1023200097bf9f000000eb00d0b79f00c0b79f0091
:10233000b0b79f00a0b79f0090b79f00000678003d
:10234000fd032000dfb197004fb0970003814100eb
:10235000bfb09700e08f510004003d002900070046
:102360007e805700b9ff07000300370025000700f3
:102370007e805700c9ff0700dfb09700e08f500054
:102380000700350014002000050020006033b8006d
:1023900008047200898472000a0573008b8573003b
:1023a0000c06e8008d0f5600e6ff3400e08f500069
:1023b00006003d006fb29700ffb297000fbb970079
:1023c0009fbb97007e805700a0ff07005fa8970083
:1023d000e00f500004003a001fb49700afb497001c
:1023e0003fb59700cfb597000800be000a01be00b8
:1023f0004f06be004f05be004f04be000080fa002d
:1024000000000600cf01de0002817100b2b79f001c
:102410004f09de000000400000007100a0b79f00df
:102420000fb097004f01de008180400081007100f5
:1024300091b79f007faa9700cf20de0000004000e8
:102440000080700080b79f000800be000a01be0037
:102450004f18de000402420000027200f4af9f0039
:102460000804440089844c000a054d008b854d000a
:102470004fb29700dfb297006fb39700ffb397009a
:1024800000000600881f780018002000881f7800d0
:102490009aff07008f87e9004f04780000000600cc
:1024a000801feb0095ff07008f87e9000000060002
:1024b000889fbe008a9fbe008c1f7800e00f5000ee
:1024c000e08f5800e00f5900e08f59000f003d00e9
:1024d0006044b8006055b8000000540081805c0082
:1024e00002015d0083815d001c0020000820e100e6
:1024f00009a8e1000ab0e1000bb8e1000d003d00c1
:10250000190007000006eb000a0037000006eb0088
:10251000e00f5200e08f5a00e00f5b00e08f5b009d
:1025200004003d006044b8006055b8000e0007008c
:102530001c002000d3ff0700e00f56000600320009
:102540006022b8006033b8000000520081805a0059
:1025500002015b0083815b004f0678004f05be00df
:102560004f04be00000006000402540085825c0097
:1025700006035d0087835d0000000600889fbe00a3
:102580008a9fbe008c1f7800e00f5000e08f58003b
:10259000e00f5900e08f59000d003d006044b80085
:1025a0006055b8000000540081805c0002015d00ad
:1025b00083815d001c0020000820e10009a8e100e3
:1025c0000ab0e1000bb8e1000d003d000800370043
:1025d0000006eb00e00f5200e08f5a00e00f5b00b6
:1025e000e08f5b0006003d006044b8006055b80015
:1025f0000402540085825c0006035d0087835d0051
:10260000a7ff0700e00f5600060032006022b80066
:102610006033b8000000520081805a0002015b0064
:1026200083815b004f0678004f05be004f04be005b
:1026300000000600889fbe008a9fbe008c1f7800a5
:102640000006eb00e00f5000e08f5800e00f59004b
:10265000e08f590007003d006044b8006055b800a5
:102660000000540081805c0002015d0083815d00f8
:102670001c002000e00f5200e08f5a00e00f5b00ca
:10268000e08f5b0007003d006044b8006055b80073
:102690000402540085825c0006035d0087835d00b0
:1026a0000c00a2000c000700e00f560006003200ec
:1026b0006022b8006033b8000000520081805a00e8
:1026c00002015b0083815b004f0678004f05be006e
:1026d0004f04be0000000600889fbe008a9fbe0017
:1026e0008c9fbe000404b8000506b80089044600ab
:1026f00060854e000606b8000a054600e0854e00db
:102700000706b8008b054600040eb8008904460091
:102710000a854e00e0854d00050eb8000a0546000a
:102720008b854e00060eb8008b0546000416b800d7
:102730000a0546008b854e000516b8008b0546003d
:10274000041eb8008b0546000800be000a01be004a
:102750004f06be004f05be004f04be00000006003d
:020000040000fa
:102760007372000076200000257500000a0d00003d
:10277000005000004f5300005f250000752000004e
:1027800053520000565f00002575000020460000ef
:10279000525f00002575000020250000730a00002c
:1027a0000d000000646500006275000067670000ae
:1027b000696e0000673a0000207300007276000026
:1027c0003d250000750a00000d0000004552000084
:1027d000524f0000523a000020740000686100006f
:1027e0007420000077610000732000006e6f00000d
:1027f0007420000072650000636f0000676e0000c7
:10280000697a000065640000212e00002e2e000071
:10281000005000004f5300005f25000075200000ad
:1028200053520000565f000025750000204600004e
:10283000525f0000257500000a0d00000000000036
:020000040000fa
:102840000000fa0010fe2d000040880070b627003e
:10285000104088001140800000408000f2002000fd
:10286000d0f60700c1108000f0f32f0080806000d8
:102870000004200000807000c01088008f00a800b5
:1028800016c2a90020002000c04a88000080fa007b
:10289000000006004000fa00a0852000801f78009c
:1028a000003b2900801f780040802000e3f60700ed
:1028b000e4875700000f780064004700801f78000d
:1028c00080852000801f780060852000801f7800b0
:1028d00040852000801f7800903b2900801f7800f1
:1028e00040802000d5f60700ea87570010079800bf
:1028f0001e007800e10f500007003a00d04280002f
:10290000801f7800203d2900801f7800c4f6070052
:10291000e4875700050037001e009000e20f5000ca
:1029200002003c00603e2900b1f607001e00900046
:102930000080fa00000006000200fa000000eb0030
:10294000000f780000438000e00f500003003200c9
:10295000004380000000e900010037000000eb00a8
:10296000418020000100400010407800ed4f5000f1
:1029700011003a00408020009df60700c5ff0700c7
:102980000000eb00004388000000eb00000f78001f
:1029900005003700408020009e0040000040eb0012
:1029a000804878001e0fe800f00420009e007800a8
:1029b000808f5000f7ff34000080fa00000006000e
:1029c0000000fa00f0428000e00f50000c003200de
:1029d000e2428000d1428000a0428000821f780045
:1029e000811f7800801f780090402900801f7800a8
:1029f0008bf60700e88757000000eb00f0428800e4
:102a00000080fa00000006003600f800809fbe003b
:102a1000829fbe00849fbe00869fbe003400f800e7
:102a200000002000a00188000000fa008700a90033
:102a30001500370002438000e0108000004078005d
:102a400041802000810041008048780001438000df
:102a50004080200000804000104078000000fb0013
:102a60006df60700004380000000e8000043880086
:102a700001438000f0042000808f500002003600e7
:102a80000000eb0000438800c0108000610060007f
:102a9000e00f5000e7ff3a000080fa003400f90030
:102aa0004f03be004f02be004f01be004f00be00ec
:082ab0003600f90000400600a9
:020000040000fa
:102ab8005e080000020000000200000000000000a4
:102ac800000800005e000000000000006008000030
:102ad8000200000002000000000000005809000089
:102ae800020000000200000001000000520900007e
:102af80006000000000000002c090000260000006d
:102b080002000000530900000053090009000000fa
:102b18000002000055090000005509000e020100de
:102b28000000000000000000000000000602020093
:102b3800000000002c0900005a09000002000000f3
:102b480000000000020900002a0000000200000046
:102b580030313200333435003637380039414200dd
:102b680043444500460030003132330034353600e6
:102b780037383900616263006465660000286e00ba
:102b8800756c6c002900000062080000a0000000bd
:102b980002000000010000000000000000000a0020
:102ba80000000000000000000064000000000000b9
:102bb80000000000e8030000000000000000100012
:102bc800270000000000000000a0860001000000af
:102bd8000000000040420f000000000000008000dc
:102be80096980000000000000000e100f5050000d4
:102bf8000000000000ca9a003b000000000000002e
:102c0800e40b5400020000000000e80076481700ba
:102c1800000000000010a500d4e80000000000003b
:102c2800a0724e0018090000000040007a10f3005e
:102c38005a0000000080c600a47e8d00030000003a
:102c480000c16f00f2862300000000008a5d780052
:102c58004563010000006400a7b3b600e00d000062
:102c680000e889000423c7008a0000000000000073
:020000040000fa
:102c78000000fa00e0ff2f004015880001158000d1
:102c8800f0cf2f000080600000158800011580003b
:102c9800000e20000080700000158800a062a800c7
:102ca800a042a900a022a90011158000f0ff210070
:102cb8000080600010158800a342a900111580004b
:102cc800f0cf2f00008060001015880011158000db
:102cd80030fc2f000080600010158800a222a90097
:102ce800a202a90021158000f00f2e00808060004c
:102cf800001020000080700020158800a4e2a900c0
:102d08002115800000fc2f00008060000040a0001a
:102d18002015880031158000f0f32f000080600036
:102d280030158800a6a2a800a682a9003115800047
:102d380000ff2f0000806000301588001000200080
:102d480050158800a1e2a8008560a9008d60a80040
:102d58000080fa00000006000000fa008560a90063
:102d68000080fa00004006000000fa000000eb00b6
:102d7800800888000000eb0030088800a04022008e
:102d8800600888008cc0a80081088000f0fc2f0033
:102d980080806000000220000080700080088800a9
:102da80011e1a80084c0a9000080fa000000060014
:102db800809fbe00821f78000000fa0084c0a9002e
:102dc80081168000000024008080600010c0b300dd
:102dd800e08f5000010032000040eb000080fb0053
:102de800610060004e00dd0082168000f1ff2b00bc
:102df8008100610000807000801688000080fa0061
:102e08004f0178004f00be00004006000000fa00a5
:102e18008ba1a9008a81a9008a61a900510c8000b0
:102e280080ff2f00008060006000b300500c880015
:102e3800d1428000601620000088b9008000780028
:102e4800a005200000017800110009008280d80048
:102e5800c014b000300c88000080fa0000000600a2
:102e68000000fa0097a1a9009681a9009661a9001f
:102e7800b10c800080ff2f00008060005000b3007c
:102e8800b00c8800600880000000d100a00c880009
:102e980060088000900c88000080fa00000006009e
:102ea8000000fa002342a80022a2a8002302a800da
:102eb8001111800030fe2f00008060001011880082
:102ec800101180003000b300101188008500a9009f
:102ed8008d00a80020c2a90021e2a8000080fa0005
:102ee800000006000000fa008500a90020c2a90021
:102ef8000080fa00004006000200fa00000f780087
:102f0800f0ff20001e0f6000000021001e0070006e
:102f1800201188000080fa00000006000000fa0076
:102f28000000eb00f00888000000eb00a008880013
:102f380000682100d00888008ea0a800f108800051
:102f48000003200000807000f008880086a0a90017
:102f58001fe1a8000080fa0000000600801f78002a
:102f68000000fa0086a0a90010002000f0428800a6
:102f78000080fa004f007800004006000600fa00c2
:102f8800200798000f0037000000220011002000e1
:102f9800008fbe00040037000080eb008080eb004b
:102fa8001e0f40005e9748001e00be00e00f500054
:102fb800e08f5800f8ff3a002e0090000000e9006a
:102fc800200798002e009000e00f5000eeff3a0016
:102fd8000080fa00000006000000fa0016fe070054
:102fe8003900070060ff070088ff0700cbff0700d4
:102ff800400b2000d04288004dfe07006efe0700ff
:10300800d1428000601620000088b9008000780056
:10301800a005200000017800110009008280d80076
:10302800c014b000300c8800f3ff37000000fa002d
:103038000000eb00900888000000eb0050088800b2
:10304800c0122000700888008ce0a8009108800059
:10305800f0fc2f00008060009008880084e0a90040
:1030680013e1a8000080fa00000006000000fa0042
:1030780084e0a9000080fa00004006000000fa0081
:10308800110a800080ff2f00008060000010a0005f
:10309800100a8800110a8000f0f92f0000806000f3
:1030a800100a880042e1a9008420a9008c20a80009
:1030b8000080fa00000006000000fa008420a90041
:1030c8000080fa00004006000000fa00d902a800bb
:1030d800c602a800c622a800cdc2a900cda2a90098
:0c30e800d222a9000080fa0000000600bf
:020000040000fa
:0200000401f009
:04000000f7bf000046
:020000040000fa
:0200000401f009
:04000400ff7f00007a
:00000001FF
