:020000040000fa
:080000000001040000000000f3
:020000040000fa
:1000080090010000900100009001000090010000a4
:100018009001000090010000900100009001000094
:1000280090010000ca2b0000900100009001000020
:1000380090010000900100007a2b0000a42b000022
:100048000c2b00009001000090010000ea2900003c
:100058009001000090010000900100009001000054
:100068009001000090010000900100009001000044
:1000780090010000222a0000900100009001000079
:1000880090270000900100009001000090010000fe
:100098009001000090010000900100009001000014
:1000a8009001000090010000900100009001000004
:1000b80090010000900100009001000090010000f4
:1000c80090010000900100009001000090010000e4
:1000d80090010000900100009001000090010000d4
:1000e80090010000900100009001000090010000c4
:0800f8009001000090010000de
:020000040000fa
:1001080090010000900100009001000090010000a3
:100118009001000090010000900100009001000093
:1001280090010000ca2b000090010000900100001f
:1001380090010000900100007a2b0000a42b000021
:100148000c2b00009001000090010000ea2900003b
:100158009001000090010000900100009001000053
:100168009001000090010000900100009001000043
:1001780090010000222a0000900100009001000078
:1001880090270000900100009001000090010000fd
:100198009001000090010000900100009001000013
:1001a8009001000090010000900100009001000003
:1001b80090010000900100009001000090010000f3
:1001c80090010000900100009001000090010000e3
:1001d80090010000900100009001000090010000d3
:1001e80090010000900100009001000090010000c3
:0801f8009001000090010000dd
:020000040000fa
:100200004fb420000eff20000e0188000000000007
:100210000c000700c0282200010020001100070088
:10022000000020000000e000020032000000020098
:1002300000000000d0280200000000000040da00aa
:100240000000fe004440a900a01620000000e000cd
:100250000300320000002000a00188004440a800f4
:100260000000060091018800800078000000eb008b
:1002700015003700e280400032a0b4009101ba00be
:10028000e280400032a0b4009102ba00e280400057
:1002900032a0b4000002eb00472bde00f507b200ed
:1002a000602ce10004003a000059eb008301e900f2
:1002b000fdff3e00040037006128e100010032002c
:1002c0000082eb00040007001101ba000200e00008
:1002d000e8ff3a00000006003159ba008301e90046
:1002e0000c0032002159ba008301e90008003200f5
:1002f0000400e00003003a00e280400032a0b400b5
:10030000f5ff370011d9ba008301e900faff3a007e
:100310008100e800e180400032a0b4000000060047
:100320000040da000000fe001004b10007003500b4
:100330009001b100040034007000b10003003500ea
:100340009001b10001003c00100005000000050014
:100350006900e100040035006d00e1000300340095
:100360000002b1000100320000000500100005008d
:100370001004b100030035009001b10001003c0001
:100380001000050000000500800078001104b10095
:10039000030035009101b10001003c000050a000b5
:1003a0000000060017e2a9008f00a9008f20a90015
:1003b0008700a9008720a900000006008700a90087
:1003c0008720a900670160000305800081ff2f00de
:1003d0008180610082807000010588000001780042
:1003e0000207b20003058000f1f82f008180610050
:1003f0008280700001058800680160004311de0002
:10040000610161004811dd00710480000180a100dc
:1004100082807000710488000008b2004700de008e
:10042000610060004900dd00710480000190a100be
:10043000808070007104880000000600c0108000f9
:100440006140600000000600f2108800b0108800d3
:10045000c110880000000600b01080006600600037
:10046000e60f500002003a00e01080000000060095
:10047000e0108000f00fb20000000600800178005c
:1004800002003700b1597800040178000202e90047
:10049000e00f5100fbff3a0000000600889fbe00fd
:1004a0000004be00060037000000fb008900780051
:1004b00098020700e10f4000050032000804e80040
:1004c00018407800e04f5000f7ff3a000000eb00c2
:1004d0004f04be0000000600881f780001b2200013
:1004e000eeff07000004780001b22000a000200009
:1004f00088020700080078004f047800000006001a
:100500009041780031c1510004003a00e0cf510021
:10051000020032000000e800f9ff37000200fb0093
:10052000000006008001780031417800825978008f
:10053000e04f5100fcff3a00000006000d003700bc
:1005400010417800e04f510002003200914f5100fd
:10055000050032000281fb00914078000180fb0021
:1005600000005100000006000000e8008100e800e3
:10057000030178008201e900e00f5100f0ff3a002a
:1005800002007800000006000000fa0068815700b1
:10059000cfb8970000b220006d0307000080fa007a
:1005a000000006000c00fa00a0bf9f00c0bf9f0023
:1005b0009d020700b0bf9f00f0bf9f00100c2000fd
:1005c000d0bf9f0074815700efb097006c80570038
:1005d000340007000080fa0000000600881f780041
:1005e000105a8000ca010700000478000800780053
:1005f00057ff0700e00f5000f9ff3a00e10f4400f9
:1006000003003200115a8000080078008d020700b4
:100610004f04780000000600889fbe008a1f780003
:1006200000047800814478000205780000fd2f0066
:1006300008004000e90f500002003e00000478006e
:10064000100037000800780049ff0700e00f500055
:1006500005003200e00f550003003200080078006a
:1006600049ff070000047800080078002eff07000b
:100670008000780000c0eb00e08f500006003200e0
:100680007805b1008984fb0000c0eb00890f54009d
:1006900001003d00084078004f0578004f04be007f
:1006a00000000600f2874700889fbe008a9fbe00b8
:1006b0008c9fbe008e1f780080017800e1b79f00fc
:1006c000d2b79f00135a88000000eb00b0b79f001c
:1006d00080407800e1ef9f005d0137006fb0970028
:1006e0000000e800e0b79f000885fb000a007800e2
:1006f00017ff0700e00f500002003200b7ff0700ad
:100700005301370051c2b300814f540041013a00f8
:1007100021c0b300004778006fb297000145780010
:1007200084067800040037002ac0b30001003700b7
:100730004ac0b3000d0278003d44780081c6b30082
:10074000814f5400f8ff320015003e00f0c0500009
:10075000814f54002f0032000a003e00ecc05000d0
:10076000814f54002700320086003e00e04f5400c5
:10077000bb003200a1c2b300814f540081003a0097
:100780001e00370031c6b300814f540060003200b4
:100790008140e800814f54007a003a008d00370014
:1007a00031c7b300814f54002100320007003e00e2
:1007b000e7c05000814f540012003200e3c04000f7
:1007c000814f54006f003a008700370051c7b300d3
:1007d000814f54007f003200e3c04000814f54003d
:1007e00068003a00cae79f0000467800edb79f0016
:1007f0000000eb00b0b79f000b0037000e47e80089
:10080000ccff3700e24f5500c9ff32008ac0b30069
:10081000c8ff3700cae79f0000467800edb79f0089
:1008200011002000b1b79f000dc1b3007200370066
:1008300000467800edb79f0068ff0700e04f5700c3
:1008400004003a005fb09700c0007800d0b79f0066
:10085000c1b79f00105a80002d01070000047800e6
:10086000e10f440014003a0008007800f40037005b
:10087000efb097001100fb00800f540005003a0014
:100880000a007800c0b79f008100e800e1b79f0030
:1008900017003700e04f570001003a00085d78006c
:1008a0000c46e9000d003200105a800018010700c4
:1008b00000047800010037004fb597000800e800f9
:1008c000e10f50000800360008007800a0fe070085
:1008d000e00f5000e6ff3200030037000a00780006
:1008e000c0b79f00020037008a007800c1b79f00a0
:1008f000e04f5700d6003a006fe897000040e8004c
:10090000e0ef9f00cfb097008e487800d00037000e
:1009100000467800edb79f00e04f570008003a000e
:100920006fe897000040e800e0ef9f00dfb097001d
:1009300041007800d1b79f00000478000100370023
:100940004fb49700105a8000f10007008000780033
:10095000e18f400002003a0001007800b800370043
:10096000e04f570001003a00015c78000c46e900b6
:100970004240a900f3ff3c0008007800c0b79f0088
:10098000b30037000884fb0000fd2f000800400082
:10099000e90f500009003e0004007800b80007008d
:1009a000010037008d06e8009d00fb000103b10047
:1009b000e98f5000fbff36005eff3700edb79f0068
:1009c000105a8000d2000700800f540097003a00b0
:1009d0009f003700cae79f0000467800edb79f00f0
:1009e000adc0b30004003700cae79f00004678009e
:1009f000edb79f008dc0b300f8fe0700105a8000cd
:100a0000c3000700800278000040eb00b0e79f00c1
:100a1000d3022000838f520005003a00105a800054
:100a2000bb0007008002780011c0b300b1e79f004f
:100a30003fb197008d4078000500780085bf9f008a
:100a4000f5fe0700804178008fba9700e1cf4100a2
:100a50000e003a00115a8000050078007901070065
:100a60006fe89700e04f50000200320080407800ad
:100a70007c003700105a8000300090007000600049
:100a8000790032000080eb0077003700030320007c
:100a9000838f52001b003a00105a800085bf9f00d0
:100aa0009b00070080017800840720008fba970020
:100ab000848f510004003a003fb09700e00f5000cf
:100ac000070032000a00370084052000848f51009f
:100ad00007003a00bfb09700e08f500004003200da
:100ae000105a80008a000700800278000500370055
:100af000115a80000300780085bf9f005101070054
:100b00008fba97006044b8000d85fb000b002000f1
:100b10000e407800a0e79f00050778000a01be009c
:100b20000800be00d90b07000004be003fb19700cb
:100b30008d4078000e007800b7fe07000042780074
:100b40000482fb00050020000404440085844c005e
:100b50000c46e9000a003200105a80006c000700c1
:100b6000000778003fb197008d4078000e007800b4
:100b7000a9fe070080417800e1cf4100e7ff3a007d
:100b80008e0278002fe797003fb197008d407800e4
:100b90000500780085bf9f009ffe07008040780019
:100ba0008fba9700e1cf400003003a00115a80004d
:100bb0000500780023010700bfe09700e0cf500058
:100bc0000200320060041400e0841c00e04f570073
:100bd0001f003a006fe897000040e800e0ef9f0038
:100be000dfb097000180e900cfe09700e4cf50002c
:100bf00004003a00d0b79f00900078008888be00bb
:100c000013003700d0b79f00900078008808780064
:100c10000f003700105a80003d0007008000780068
:100c2000810f55000a00320001007800e10f4000fa
:100c300003003200115a800002010700080037004b
:100c4000efe89700e0cf500006003a0006003700ba
:100c50006fb0970010447800e04f54009ffe3a00b8
:100c6000efe897000180fb004f0778004f06be00b9
:100c70004f05be004f04be002f01b100000006006a
:100c800002c2b300010037000000e8009040780085
:100c900082cf5000fcff3200e9cf5000faff320053
:100ca000d2c2b30082cf500003003a000000e80037
:100cb00012c0b300050037000041eb00b3c2b3001f
:100cc00083cf500001003a000000e8008000eb00f4
:100cd000050037006a0ab90001fd2f00848040003a
:100ce000838040000000e8009001fb0004fd2f001d
:100cf00003024200e90f5200f6ff3600e04f5100b8
:100d0000010032008100ea000100780000000600c6
:100d1000881f78000004780038009000f10060001f
:100d2000e18f500006003a00800078000120b200f8
:100d30000800320098009000e08f5000050032005b
:100d4000380090000040a000300498000080eb00c4
:100d5000200037000090a100300498001800900097
:100d6000e00f5000070034000000e9001004980074
:100d700098007800114178000280fb00010ce80027
:100d800005003700380090000004b200ecff3a0084
:100d90000800780011000700b80090000108b200b8
:100da0000c003a00fa0f500008003a0028009000aa
:100db000e00f5000e2ff3200180090000000e80051
:100dc00010049800180ce900ddff3700ed0f50000b
:100dd000e2ff32004f047800000006000200fa0033
:100de000889fbe008a9fbe00000478000000eb00d0
:100df00010049800b8009000e18060000080eb00d3
:100e000040003200a0b320008040eb0090cf1000e3
:100e10000f00320049b120002b1020004a022000b0
:100e200009054500390090002010b2008b0f5000da
:100e300002003a0009007800d4070700ec8444005f
:100e40008a8f5400f7ff3a00a0b320000048eb005f
:100e500058019000e00f51000e003a001204980073
:100e600012002000ea805700480090003308070075
:100e7000e10f500003003a006ff197000280fb0081
:100e800020003700380090000040a0003004980097
:100e900013003700a80090004800900027080700c2
:100ea00010049800e00f500003003200e10f4000f2
:100eb0000d003a0003003700380090000040a00009
:100ec00002003700380090000003b300300498009f
:100ed00028009000000c78000000eb00100498003f
:100ee0000080eb0007003700a8009000010c78009c
:100ef0000000e90010049800114178000280fb0016
:100f0000010ce8004f05be004f04be000080fa004f
:100f100000000600889fbe0001047800b800900021
:100f2000628160008084eb003c0032008101780027
:100f30000320b2001801900002003a00e00f5100b7
:100f400036003a000190a000310498008004780037
:100f5000f90fb200e00f510002003a0028009000a3
:100f6000000c7800ea8f540006003a000100780077
:100f70000008b20003003a0088007800d00020008a
:100f8000e4ff070018009000d8009000810f500087
:100f90000b0032000000e8001004980018007800f0
:100fa00009487800000ce80010c0b300a1b320008d
:100fb00080487800ea8f540018003a000500370096
:100fc00088007800094078009a07070080047800bc
:100fd00012003700380090000010b2000f003200fd
:100fe00018019000a8009000480090000808070031
:100ff00098009000810f50000400320038009000eb
:101000000003b300300498008084eb000000eb0084
:101010001004980028009000000c78000900780067
:101020004f04be0000000600800078000041eb0085
:10103000b14f1100fdff3a000080ea00008040003f
:1010400000000600e10f40001c003200310190005a
:101050001220b200e10f510015003a002102900069
:10106000e00f52001200320011019000d1019000f7
:10107000830f51001000320091017800848f5100dd
:1010800002003a008308e800020037000201e8008d
:10109000920098001101e90082087800b1009000e8
:1010a0000104b20005003a00004978000000060083
:1010b0000080eb00000006000080eb00000006004e
:1010c000889fbe008a9fbe000084fb00d1c6b3008b
:1010d000814f5000210036004b062000110009000e
:1010e0000b84d80081057800720040004300dd00c9
:1010f000a9992000008044006022b800060020006a
:1011000007fe23005001be004000be00ad090700ed
:10111000aa00200000027800811f78001100090059
:101120008a85d8000002fd00cf00780069024200e5
:101130004322dd00048244005403be004402be008a
:10114000a0090700809fbe00110009000a84d80092
:10115000010478004f00be0010003700ea4f500035
:1011600013003600a9002000110009000984d800ee
:1011700001047800690040004300dd00a9992000c7
:10118000008044006022b8000600200007fe230013
:101190005001be004000be008a0907004344dd0044
:1011a000888444003902be002903be0008003700cd
:1011b0004344dd00a0992000080440006022b800ec
:1011c0000600200007fe23003800be002801be00f4
:1011d0007c0907004f05be004f04be00000006005a
:1011e000889fbe008a9fbe00d1c6b300e04f50006a
:1011f00025003d000040ea000004fb00814f500044
:101200000b00340042062000110009000204d8003f
:1012100001007800a9002000110009000900d80091
:10122000690040004300dd00aa9920002300370038
:10123000ea4f500011003400a20020001100090004
:101240000204d8000104780080007800e9804000a2
:10125000c308dd00a0992000810040004344dd0068
:10126000080040003002be002003be005101be0055
:101270004100be0053090700320037004344dd003f
:10128000a09920002c0037000004fb00814f500083
:101290001c00340042062000110009000204d8009e
:1012a00001007800a9002000110009000900d80001
:1012b000690040004300dd00aa8e200000004500c8
:1012c0003002be002003be008b0920008a85450045
:1012d0003b00be002b01be003a090700809fbe0004
:1012e000110009000904d800010478004f00be0075
:1012f0004344dd00080545003a02be002a03be0053
:10130000dcff3700ea4f500009003400a200200043
:10131000110009000204d800010478008000780060
:10132000e9804000c308dd00a08e2000caff37001e
:101330004344dd00a08e2000080440003800be00b9
:101340002801be004f05be004f04be00000006008d
:101350002f05b000889fbe008a9fbe008c9fbe00f4
:101360008e1f780000037800f1a79f0082af9f00d6
:101370000000eb00f0b79f00060778007706370003
:10138000ffa097008100e800f1a79f0052c2b300c0
:1013900082cf520006003a000004eb0006c3b300ff
:1013a00003c2b300b1c2b3007fa0970012003700a0
:1013b0003e0190000204b200040032009e01780059
:1013c00085497800030fe800070037000501fb009e
:1013d0008e00780002007800cefe07000001780041
:1013e000e10f41005d0632007fb197000201e80085
:1013f000f2b79f005906370090427800d4c2b3007c
:1014000084cf52000b0032000001e80084cf52006c
:1014100005003c0083cf52000900320081cf52000a
:101420000e003a000800370086cf52000b003a0049
:10143000070037000830a0000000e800eeff37008a
:101440000800a000030037000810a00001003700ca
:101450000820a00002007800e7ff3700f0a79f00f7
:10146000e2016400010032000800a100e80164000c
:10147000010032000820a1008501fb000303b10038
:10148000e98f51000d003e00000020007fa1970071
:101490006a00b9000003b1009200fb0001004000a7
:1014a000d200fb000103b100e98f5000f8ff3600c5
:1014b00090b79f00f2a79f000c0037000003eb00dd
:1014c00096b79f00a3c2b30083cf520007003a0033
:1014d0008fab9700c704780087af9f0099b79f0034
:1014e0007fa597000a05e800faa79f00e3c2b300b2
:1014f000ffa597009bcf11001f003a0008e0a00055
:10150000e8b79f00e4c151008b05e800fba79f00ee
:101510001b407800834f5000030032000000200081
:101520008b0178000c0037000fa99700c2017800ea
:1015300082af9f0093af9f007fa297000402e80054
:10154000f4a79f00100037006a00b9000003b10043
:10155000020040008301e8001301fb0001fd2f00a1
:1015600082804000e98f5000f7ff360090af9f0067
:10157000f3a79f000400370008c0a000e8b79f0051
:101580008002eb0095af9f00ccc6b3006fb197000f
:10159000ffa1970033447800a8679f008c4f540048
:1015a0002b003200e2b79f00f3a79f00c3c6b30031
:1015b000834f540014003c004cc6b3008c4f5400c1
:1015c000e600320009003c00f4c15100834f540092
:1015d0002d003200ebc14100834f5400b1003200b6
:1015e000e04f5400e2053200d300370063c6b30079
:1015f000834f54001c003200e3c14100834f54006c
:10160000cd003a00d50037003cc7b3008c4f5400e2
:101610002400320007003c00f3c6b300834f54009f
:10162000150032008341e800834f5400c2003a00a5
:101630001500370053c7b300834f5400c400320075
:10164000e3c14100834f5400bb003a001100370052
:10165000700061000100280001003a000101200033
:1016600001017100cbff37006fb3970006a0a00007
:10167000e6b79f00b9003700efb397000760a000fe
:10168000e7b79f00b50037006fb497000850a0007f
:10169000e8b79f00efb497000970a000e9b79f007a
:1016a000ae0037000fad97004a0478008aaf9f0064
:1016b000a8b79f00e00f540002003a00c0b020001d
:1016c000a0b79f008000eb00b1b79f002fb097003c
:1016d000bfb097004fb19700dfb19700010037000e
:1016e0008500e8008102780061427800e04f5200f6
:1016f000fbff3a00a0b79f00b1b79f00c2b79f00a1
:10170000d3b79f009faa9700e08f520005003200d8
:101710003fb39700868f52000200310085037800a6
:10172000b7b79f00bfb297000006eb001fb4970049
:10173000850f54000100360005065400efb49700f1
:10174000688464002e003a008c0178000dc2b3005a
:10175000100037003e0090000004b2000400320088
:101760001e0078000d487800000fe80005003700e3
:101770008e00780000022000e6fd0700e10f400027
:10178000030032007fb597000a05e800fab79f0012
:101790008c0178000c06e900e08f5100edff3a0063
:1017a000170037003e0090000004b200090032002c
:1017b0009e01780008017800324078008049780066
:1017c000030fe80002047800e04f50000a003a00de
:1017d00011003700080178003200fb000204780095
:1017e0008e00780086bf9f00cafd07000fbb9700e0
:1017f000e10f4000080032008d06e80006003700c7
:10180000ffb69700080378002fb49700bfb4970085
:101810004fb59700dfb59700090078008004e90014
:10182000e00f5000dfff3a00fdb79f00a8b79f0010
:10183000b9b79f00cab79f00dbb79f0006047800c6
:10184000e00f540045053200110037003e009000c3
:101850000004b200040032001e0078000d48780039
:10186000000fe800050037008e007800000220001d
:10187000a8fd0700e10f400003003200ffb0970011
:101880008100e800f1b79f000806780001003700ea
:101890000dc2b3000c04e900e00f5600ebff3a0064
:1018a0002e0537000fa997004204780082af9f00f1
:1018b00008027800cfa2de000503780086037800d6
:1018c000d4af9f00e5af9f00f6af9f0087b79f00a2
:1018d0000605be000404be004844de00c84add0020
:1018e00008847200a8679f006fb3970070066300ba
:1018f00009003200e04f540007003200e14f44007d
:1019000005003200b8679f00c4679f0027002000d1
:10191000b7b79f00040037002fdc9700b8679f001f
:1019200019002000b9b79f003afa2f000a85470036
:10193000aab79f0073ff37002bfa2f008b85470053
:10194000abb79f0010002000b0b79f006dff3700bd
:10195000efb09700010cb300e1b79f0008702000c2
:101960006fb197000806610096023200080021005e
:1019700008046100020032006300200093af9f0062
:101980006fb2970070046200090032000fa8970040
:101990004005be004004be0080af9f00d8af9f004e
:1019a000e9af9f00faaf9f008bb79f000a00370096
:1019b0000fa997004200be0082af9f00ee0607000d
:1019c0000002be000203be00d4af9f00e5af9f003f
:1019d000f6af9f0087b79f006022b8006033b80061
:1019e0005fa89700efa897007fa997008fb1970095
:1019f0003306070080027800e08f52000c003d00a3
:101a00005fac9700efac97007fad97008fb5970064
:101a10000bf0a200d8af9f00e9af9f00faaf9f0084
:101a20008bb79f00efb497003900b300e9b79f0070
:101a30000004eb00b8979f006022b8006033b80044
:101a40005fa89700efa897007fa997008fb1970034
:101a50007f06070080027800888f52003b0032002a
:101a60005fa89700efa897007fa997008fb1970014
:101a7000cb07070062fa2f000f014100390707006a
:101a80003f9397000603e9006333b900a8002000e4
:101a9000809fbe00110009000803d80000037800f1
:101aa0004f00be00b6979f00e00f530002003d00bc
:101ab0000603e900b6979f003f9697008c41ea0025
:101ac00003407800c6fd07005faa9700efaa9700c1
:101ad0007fab97008fb397003a0707000002be0064
:101ae0000203be00a4a79f00b5a79f00c6a79f0042
:101af000d7a79f006022b8000600200007ff230040
:101b0000ef05070080027800e08f520002003d00e0
:101b10000c04e9000c0037006022b8000600200029
:101b2000470224002fa09700bfa097004fa1970065
:101b3000dfa19700e705070080027800e08f5200e0
:101b4000020035000c04e800b8979f009faa970098
:101b5000f88f52000f003c000540780058fd070048
:101b60000002be000203be005fa89700efa8970026
:101b70007fa997008fb19700540507000004be00ad
:101b80000205be00d8af9f00e9af9f00faaf9f00eb
:101b90008bb79f003f969700e90f560016003c0058
:101ba0006022b8006033b8005fa89700efa89700e4
:101bb0007fa997008fb19700250607008002780063
:101bc000e08f5200350032005fa89700efa8970021
:101bd0007fa997008fb1970086060700e00f50009d
:101be000e08f5800e00f5900e08f59002b003a00b9
:101bf000e10f5600290034000400200005002e00eb
:101c0000b6e02200170124002fa09700bfa0970084
:101c10004fa19700dfa19700a90507008002780077
:101c2000e08f520002003d007304560001003700af
:101c300072045600b8979f006f60970068fd070018
:101c40000002be000203be00a4a79f00b5a79f002c
:101c5000c6a79f00d7a79f005fa89700efa897008f
:101c60007fa997008fb197009f05070061060700c5
:101c7000a0b79f00b1b79f00c2b79f00d3b79f0026
:101c80006000b8006011b800d0af9f00e1af9f00c6
:101c9000f2af9f0083b79f00190037005fa897003d
:101ca000efa897007fa997008fb197005106070012
:101cb000a0b79f00b1b79f00c2b79f00d3b79f00e6
:101cc0007d0607000002be000203be005fa8970069
:101cd000efa897007fa997008fb197002e07070004
:101ce0000004be000205be00d8af9f00e9af9f0010
:101cf000faaf9f008bb79f000004eb00b8979f00de
:101d000013c0b300a3679f00a1a4200010003700f8
:101d10000200fb004300dd00008040003002be00f6
:101d20002003be002fb49700bfb497004fb59700b3
:101d3000dfb597000440e10005c8e10006d0e100ee
:101d400007d8e100050039000241e800a2679f00c2
:101d50002f619700f44f5100edff3a0002437800e5
:101d6000bf9397009fb49700878354001fad9700df
:101d70008a8353000603fb000683530096b79f0037
:101d8000e00f5500020032000603e90096b79f00fd
:101d9000efb5970063836500030032001fb0970022
:101da0000000e90090b79f00efb0970064836000e7
:101db000480032006284600061866000e00f5400d9
:101dc000190032003e0390000604b2000800320001
:101dd0009e067800b8c2b300e00f56000100320042
:101de00008c4e800884e78000d0fe8000a003700ac
:101df000d8022000e00f560001003a000884e900f4
:101e00008e0078000800780042fc0700800278000d
:101e1000e18f4200270032007fb197000201e80005
:101e2000f2b79f0023003700e00f56002100320078
:101e30003e0390000604b200050032001e04780044
:101e400003c2b300034c7800080fe8000600370017
:101e50008e007800000220002efc0700800278002f
:101e6000e18f420013003200ffb197008301e800c8
:101e7000f3b79f000f0037003e0090000004b2004f
:101e8000040032001e0078000c487800000fe800c3
:101e9000050037008e007800000320001dfc0700bd
:101ea000e10f4000010032008d06e8000804e9005f
:101eb000030037000cc3b3001fb49700ffb69700b0
:101ec000e00f5400ecff3c0098b79f00fdb79f0067
:101ed0007a0037006fb297006803620017003a007b
:101ee0000f0037003e0090000004b20004003200f2
:101ef0001e0078000c487800000fe800050037004d
:101f00008e0078000002200002fc0700e10f400074
:101f1000010032008d06e8000804e90003003700e4
:101f20000cc2b3001fb49700ffb69700e00f540037
:101f3000ecff3c0098b79f00fdb79f00efb2970001
:101f40006284620061866200e00f54001900320072
:101f50003e0390000604b200080032009e0678009e
:101f6000b8c2b300e00f56000100320008c4e80018
:101f7000884e78000d0fe8000a003700d8022000d4
:101f8000e00f560001003a000884e9008e00780056
:101f900008007800dffb070080027800e18f420034
:101fa000460032007fb397000603e800f6b79f00b3
:101fb00042003700e00f5600400032003e03900020
:101fc0000604b200050032001e04780003c2b3000c
:101fd000034c7800080fe800060037008e007800f8
:101fe00000022000cbfb070080027800e18f420056
:101ff00032003200ffb397008703e800f7b79f0075
:102000002e0037003e0190000204b2000300fb00e6
:10201000e00f5100120032001e0678004300dd0080
:10202000008046003002be002003be000800be0053
:102030000a01be0029070700a400200005002000b7
:102040006033b8002c0707000203be000002be0088
:1020500000c3b300004e42000c0fe800130037002d
:102060004300dd00008046003002be002003be00b9
:102070000800be000a01be0018070700a4002000e7
:10208000050020006033b8001b0707000203be00f4
:102090000002be000403b0008e0078000400780047
:1020a0009cfb0700e10f400009003200ffb09700e1
:1020b0008100e800f1b79f0005003700ada42000c3
:1020c0002fb49700bfb497004fb59700dfb59700c6
:1020d0002f6097008041e900a3679f00e04f500008
:1020e000c8ff3a00110037003e0090000004b20023
:1020f000040032001e0078000c487800000fe80051
:10210000050037008e0078000003200081fb0700e7
:10211000e10f4000010032000804e8003f90970002
:102120000000e900b0979f00020037000cc3b30025
:102130007fb497003f909700e00f5000eaff3c000b
:10214000f8b79f001fa9970023c1b300f20f5100f9
:1021500001003c00afd19700a3679f002f64970058
:102160008802fb001faa97008502520095af9f00ce
:10217000e04f540011003200be0290000504b2008e
:10218000050032001e047800e3c2b300034c78005f
:10219000080fe800060037008e007800e0022000fb
:1021a0005cfb070080027800e18f420003003200f0
:1021b000ffb297008502e800f5b79f002f609700f7
:1021c00007fc07000002be000203be005fa89700e4
:1021d000efa897007fa997008fb1970079050700b6
:1021e00004050700a0b79f00b1b79f00c2b79f00ca
:1021f000d3b79f00ada420003f003700be01900080
:102200000304b2000401fb00e08f51001200320011
:102210001e0678004311dd00028146003202be0036
:102220002203be002fb09700bfb097004fb19700b8
:10223000dfb19700a9060700a400200005002000d8
:102240006033b800ac06070009c3b300094e400074
:102250000c0fe800160037004311dd000281460034
:102260003202be002203be002fb09700bfb097001d
:102270004fb19700dfb1970098060700a400200037
:10228000050020006033b8009b0607000203be0073
:102290000002be000403b0008e0078000400780045
:1022a0001cfb070000017800e10f41000300320031
:1022b0007fb597000a05e800fab79f00af65970061
:1022c0000b01fb004311dd00028146003202be001b
:1022d0002203be002fb09700bfb097004fb1970008
:1022e000dfb1970084060700a0b79f00b1b79f0039
:1022f000c2b79f00d3b79f002f6197000242e90049
:10230000a4679f00e04f5100bcff3a000f00370068
:102310003e0090000004b200040032001e0078006d
:102320000c487800000fe800050037008e007800a8
:1023300000032000f7fa0700e10f4000010032001f
:102340008d06e8000804e900030037000cc3b30061
:102350001fac9700ffb69700e00f5400ecff3a0067
:10236000fdb79f00efb29700688162007b023200e8
:102370001fb39700e00f53007802340008c2b30087
:10238000060678003e0090000004b200040032000f
:102390001e00780008487800000fe80005003700ac
:1023a0008e00780000022000dafa0700e10f4000fa
:1023b000010032008d06e8000c06e900f1ff3a004a
:1023c00065023700efb29700050cb20043003a00f7
:1023d000efb39700e08f530005003d000fa8970072
:1023e0004005be004004be0080af9f0010003700d3
:1023f000efb09700f0826000120032000faa970041
:102400004401be0084af9f00a29f9f00b39f9f0026
:10241000140490004fc4de00c89f9f00d89f9f0007
:102420002f9c9700bf9c97004f9d9700df9d9700c2
:10243000a8b79f00b9b79f00cab79f00dbb79f003e
:102440000b0037008fac9700c902780089af9f005e
:1024500005007800cf80de0001017800820178005d
:10246000a0b79f00b1b79f00c2b79f00d3b79f002e
:102470002fb29700bfb297004fb39700dfb397001a
:10248000e00f5200e08f5a00e00f5b00e08f5b002e
:1024900038003d00efb297003500b300e5b79f006c
:1024a0006044b8006055b8002fb09700bfb09700e7
:1024b0004fb19700dfb197000000540081805c00ad
:1024c00002015d0083815d00a0b79f00b1b79f004e
:1024d000c2b79f00d3b79f0026003700efb0970028
:1024e000e08f500005003d000fac97004803be0090
:1024f0004802be0088af9f000e003700efb497007f
:10250000f0826400100032000fa897004005be0062
:1025100080af9f00ea979f00fb979f008c9f9f00d2
:102520009c9f9f006f929700ff9297000f9b9700d0
:102530009f9b9700a4b79f00b5b79f00c6b79f00a9
:10254000d7b79f000b0037000fab9700c60278008b
:1025500086af9f0005047800090020000a002000d3
:102560000b002000a8b79f00b9b79f00cab79f0013
:10257000dbb79f009fac9700e08f54000d003a003e
:102580001a0020009aaf9f002fb09700bfb09700ad
:102590004fb19700dfb19700e00f5000e08f580077
:1025a000e00f5900e08f5900020032008000eb007c
:1025b00091af9f006fb19700020cb200d2af9f00a5
:1025c00008042000880f51003f00320003003c0047
:1025d000e00f5100080032005600370005082000c7
:1025e000dfa99700858f51001b003200050c2000e9
:1025f000858f51004f003a0013c0b300a3679f00be
:10260000a1a42000100037000200fb004300dd0001
:10261000008040003002be002003be002fb49700af
:10262000bfb497004fb59700dfb597000440e100b5
:1026300005c8e10006d0e10007d8e1003d003900ff
:102640000241e800a2679f002f619700f44f5100fc
:10265000edff3a003700370013c0b300a3679f00b7
:1026600008012000090020006055b8001200370062
:102670002fb29700bfb297004fb39700dfb3970018
:102680000820e10009a8e1000ab0e1000bb8e10070
:1026900028003900450020000804d0008984d200b9
:1026a0000a85d2008b85d2008502e900faff3a0044
:1026b0000040e800a0679f002f609700f04f500097
:1026c000ebff3a001b00370013c0b300a3679f0065
:1026d00088002000090020006055b8001200370073
:1026e0002fb29700bfb297004fb39700dfb39700a8
:1026f0000820e10009a8e1000ab0e1000bb8e10000
:102700000c003900350020000804d0008984d20074
:102710000a85d2008b85d2008502e900faff3a00d3
:102720000040e800a0679f002f609700f54f500021
:10273000ebff3a002f6397000604fb009fab970066
:10274000870f540002003d00a7679f000400370078
:102750009fac9700888f540001003d0098af9f0008
:102760001fb59700e00f550005003200efb5970048
:10277000e3826500020032000a05e9009ab79f0073
:10278000050024006fb09700850260000900320048
:102790009fb097001fa99700828f5000030034005c
:1027a0008280500091b79f00020037008001eb004b
:1027b00093b79f002f6297000404fb008002eb0098
:1027c000e5a79f001fb39700880f53000200340055
:1027d00008045300e8a79f00efb39700e48263006a
:1027e000490032006283630007047800e10364005b
:1027f000e00f530019003200be0290000504b20041
:10280000080032001e067800b6c2b300e08f530005
:102810000100320006c3e800064e78000c0fe80005
:102820000a003700d6022000e08f530001003a0072
:102830000683e9008e00780006007800b5f90700ed
:1028400080027800e18f420017003200ffb4970049
:102850008904e800f9b79f0013003700e08f5300a8
:1028600011003200be0290000504b20005003200e3
:102870001e03780003c2b300034b7800060fe80084
:10288000060037008e00780000022000a1f9070042
:1028900080027800e18f4200030032007fb597008c
:1028a0000a05e800fab79f00efa59700e08f5500f2
:1028b000050132000cc3b3000b047800ffb697008b
:1028c0003e0090000004b200040032001e007800b8
:1028d0000c487800000fe800050037008e007800f3
:1028e000000320008bf90700e10f400001003200d7
:1028f0008d06e8000804e900f1ff3a00e8a79f0010
:10290000fdb79f00f00037006fa09700e00f500068
:1029100017003200efb09700e882600014003a0020
:102920000cc2b30000047800ffb697003e00900090
:102930000004b200040032001e0078000c48780049
:10294000000fe800050037008e007800000220002c
:1029500070f90700e10f4000010032008d06e80029
:102960000804e900f1ff3a00e8a79f00fdb79f00c7
:102970006fb1970062036100e1036100e00f530053
:1029800019003200be0290000504b20008003200b7
:102990001e067800b6c2b300e08f5300010032007b
:1029a00006c3e800064e78000c0fe8000a00370066
:1029b000d6022000e08f530001003a000683e900b0
:1029c0008e0078000600780052f907008002780037
:1029d000e18f4200bc003200ffb197008301e800a4
:1029e000f3b79f00b8003700e08f5300b600320005
:1029f000be0290000504b200050032001e037800fc
:102a000003c2b300034b7800060fe800060037004e
:102a10008e007800000220003ef907008002780056
:102a2000e18f4200a80032007fb297000402e80064
:102a3000f4b79f00a40037000e07e900000420004f
:102a4000dfaa9700808f52007a00320003003c001a
:102a5000e08f520008003200860037000008200096
:102a60005fab9700800f53005d003200000c200028
:102a7000800f53007f003a004370dd00efb39700f2
:102a8000e08f530022003d00a8a420000000440075
:102a90003002be002003be0094af9f00a5af9f0090
:102aa000b6af9f00c7af9f002fb09700bfb0970091
:102ab0004fb19700dfb1970088040700a0679f001f
:102ac0000004fb00cfc4de00090578008a05780009
:102ad0001faa9700afaa97003fab9700cfab970014
:102ae0000800be000a01be00e80407002fb49700ea
:102af000bfb497004fb59700dfb5970000045400ae
:102b000081845c0002055d0083855d001d00370047
:102b1000df949700e08f54001f0032002fb697001b
:102b2000bfb69700aaa42000000045003004be00f4
:102b30002005be000801be000c00be00c303070054
:102b4000a0679f000000fb00cf80de000801be00f0
:102b5000ce0307000001560081815e00e29f9f00c6
:102b6000f39f9f008001eb0083a79f000002eb0012
:102b700094a79f006f9c9700ff9c97000fa597005c
:102b80009fa59700a8b79f00b9b79f00cab79f003d
:102b9000dbb79f000e003700a9a420006901780070
:102ba0002fb59700811f7800110009000285d80019
:102bb000cf007800a2002000811f780011000900da
:102bc0000280d80001007800cf007800a0679f0045
:102bd000af6597000b43b000ab679f00250037003f
:102be000a4ae20004f909700e00f500001003a0083
:102bf000b4af20004270dd002fb49700bfb497003f
:102c00004fb59700dfb59700800278008502e90094
:102c1000050033008b05d1000a85d3008984d300d9
:102c20000884d300f9ff37006f0064006440780027
:102c30000f0037006370b9002fb49700bfb497003e
:102c40004fb59700dfb59700000278000402e90055
:102c5000050033008b05d1000a85d3008984d30099
:102c60000884d300f9ff3700674064000043b000d8
:102c7000a0679f009fb29700350090000004b2004b
:102c800007003200150178002f6097000049780096
:102c9000820ae800e04f500007003a0013003700b6
:102ca0002f6397000600fb009fb0970099f807007c
:102cb000e10f40000d003200ffb397008703e800ea
:102cc000f7b79f00090037006fb4970070046400e5
:102cd000d8979f00efb497000902b200c9979f00f0
:102ce0000e0578009ab79f001faf9700e00f5700be
:102cf00051ff3a001fb79700efb597006881650054
:102d0000160032006fa09700e00f5000130034004f
:102d100008c2b30000067800ffb697003e0090009e
:102d20000004b200040032001e0078000848780059
:102d3000000fe800050037008e0078000002200038
:102d400074f80700e10f4000010032008d06e80032
:102d50000c06e900f1ff3a00fdb79f00ffa09700c5
:102d600091427800a5679f00e0cf520084f93a00b5
:102d70007fb097004f0778004f06be004f05be009a
:102d80004f04be002f05b10000000600881f780028
:102d90000004780038009000800078001120b20014
:102da000e18f500005003a008000eb00110498000c
:102db000a8009000010c780019003700000178008d
:102dc0002220b2000000eb0021202000810f5100e2
:102dd00016003a00a8009000808f500013003200c7
:102de00018019000800f5100100032004800900040
:102df0008700070098009000810f50000300320008
:102e0000380090000003b300300498000000eb008d
:102e10001004980028009000000c78003800900002
:102e20000002b200010032000080eb004f04780085
:102e3000000006000200fa00889fbe00a0ff9f006d
:102e40000104780038009000800078000104b2008e
:102e500033003a00e200600005003a000003b300ce
:102e600030049800110498000080eb002e00370019
:102e7000d8049000e08f540006003a0012002000b1
:102e8000e680570048009000610007001904980090
:102e900023003700a8009000e08f500008003a009f
:102ea000d1b3200021049800010c780021002000fb
:102eb00051049800110498000030a00030049800dc
:102ec00018019000a80090004800900050000700f2
:102ed000280090008080eb0011049800aff8970064
:102ee00001487800000ce8002ff89700ea4f5000e6
:102ef0000b003a00380090000010b20008003200c9
:102f000018019000a80090004800900040000700c1
:102f10000000eb0010049800a8009000010c78005d
:102f2000aff897000100fb004f04be000080fa00dc
:102f30000000060000c0da00000006000a00fa00e7
:102f4000e00f500026003a00005a8000e10f5000c8
:102f500006003200e0212000c5212000842120004d
:102f600063212000e00f500004003a0040212000bf
:102f700025212000e4202000c32020000600280096
:102f80009303630002003a00070878009309730076
:102f9000020078000c0037008301e90094037800f8
:102fa0006183630002003a00e08f5100faff3a00ab
:102fb00014037800e10163000700320095017800f6
:102fc000835878000000e900e00f50000200320052
:102fd000030a2000f1ff370000005100080037000d
:102fe00023002000b3bf9f00c0bf9f00d1bf9f0040
:102ff000e2bf9f006a805700ceff07006fb89700be
:103000000080fa000000060000c0da0000000600a0
:103010000a00fa00e20f500021003e00005a800032
:10302000e10f500006003200e5212000a42120001d
:103030008321200060212000e08f520004003a002c
:103040004521200004212000e3202000c020200092
:10305000060028009003630002003a00870a780007
:1030600010087300004020001300600001003a00c7
:1030700013a0a00002007800060037009302780039
:103080000510b200fdff3200b102fb00050a780016
:103090000000e900e00f5000f8ff3a000800370098
:1030a00033002000b3bf9f00c0bf9f00d1bf9f006f
:1030b000e2bf9f006a805700d3ff07006fb99700f7
:1030c000020078000080fa00000006002800fa00e4
:1030d000889fbe008a9fbe008c9fbe0007067800b6
:1030e000878669000c003b000304780087047800a1
:1030f00008f0a10009f0a100840f5000858f58004e
:10310000860f5900890f5c00030033000cf0a20009
:1031100001003a000cf0a100fe0007006400e1008d
:103120005f003200780147006408e100610032006e
:103130006c014700748557003200be001201be00ca
:103140003a04be001a05be001e039000be0a90009d
:103150008503530006003d000004fd008104fd00ce
:103160000205fd008305fd008703ea0005037800e2
:103170000df8a3000400320060041400e0841c0079
:1031800060051d00e0851d006022b8007d03200061
:103190000d38e1008006eb000b0039004433dd0000
:1031a000f300b2008301730039003700848272009b
:1031b0000d027800e10664008b85d1000a85d300fa
:1031c0008984d3000884d3008703e900f7ff3b001c
:1031d00008004000898048000a0149008b814900ad
:1031e00004003b0060001000e0801800600119003e
:1031f000e08119000358a300090032008d8272009b
:1032000084827200610260008301d1000281d300d8
:103210008180d3000080d3000603e8001b00370044
:103220000348a30017003a000600e000170034002e
:103230000603e9000d00a30000004800818048005b
:1032400002014900838149000348a3000f003a00ae
:103250000600e000090034000603e9000000400019
:1032600081804800020149008381490001003a0041
:103270000003eb000348a300f5ff32006022b80012
:1032800002003700848272006182660075000700c8
:1032900003f0a1000cf0a70003f0a000b10037007c
:1032a000640147006408e10002003a000df8a30041
:1032b000a9003a003200be001201be00a90037008a
:1032c0008f1fd100270307008f87e9000000e0006f
:1032d00000000600809feb00220307008f87e900b3
:1032e0000000e000000006002800fa00889fbe00f1
:1032f0008a9fbe008c9fbe0003866b00850007007e
:103300006400e100440032006408e1004a00320039
:103310006100e100460032006108e100490032002e
:10332000ec0647006000b8003d02be003d03be0051
:10333000f48657006011b8003d04be003d05be0094
:103340007d0320000b0037000000a0008d06e9007f
:10335000130032000402420085824a0006034b003b
:1033600087834b0000004000818048000201490033
:10337000838149000802520089825a000a035b00d7
:103380008b835b00f0ff3b000802420089824a0009
:103390000a034b008b834b008d06e900edff3a00da
:1033a0008482720086827200f707b2008782720000
:1033b00001003200150020001e0490003e0b90001a
:1033c00006035400e63fb0000368a3000700320084
:1033d0000000a7000500a0008301d1000281d300f6
:1033e0008180d3000080d3000603e8008301d10070
:1033f0000281d3008180d3000080d3000002eb0063
:103400000482d2001700070003f0a1000cf0a7000f
:1034100003f0a00053003700640247006408e10095
:103420004d0032003400be003401be00f6ff37000c
:103430006108e100480032006011b8006000b80087
:10344000f1ff370003ff270002002000fbff3700d9
:10345000801feb00c30207008f87e9000000e00037
:103460000000060018002000570020000804530048
:103470000d003d000600200097fc2f000740e100f2
:103480001e00340084827200610260008301d1005a
:103490000281d3008180d3000080d3000804e800bb
:1034a000f8ff3a0047002000610460000504740042
:1034b000040464000d00320061004000e080480018
:1034c00060014900e081490003b8a500070032000f
:1034d0000603e8006538e10004003a008301d100ea
:1034e0000281d3008180d3000080d300f87f2000c8
:1034f0000830e10003003500080378006000b800e0
:103500006011b8004433dd00f300b20083017300a2
:1035100000000600680447000294be000094be004c
:10352000fc0447008694be008494be000900780025
:10353000d502070008007800d30207009900780040
:10354000814f70000b003b000800be00ae02070078
:103550004f00b10003003700f3ff2700f2ff2f00f8
:103560006110b9004f06be004f05be004f04be00fb
:103570000080fa0000000600810378007c0007004c
:103580000001be006000b8000478a30013003a00f8
:103590006220e10015003e000d0039008301d100da
:1035a0000281d3008180d3008301d1000281d30046
:1035b0008180d3008301d1000281d3008180d300b8
:1035c0000538b000c42add00f300b2008381720028
:1035d00007f0a70003f0a00000000600f3ff27009b
:1035e000f2ff2f006110b900fbff370003ff270037
:1035f000f7ff37001400fa00889fbe008a9fbe00c4
:103600008c9fbe000004be000205be00680047009b
:103610000a90be000890be009b0207000070a70041
:103620000bf0a1000bf8a30020003a009e099000c7
:103630000e099000fe0090006e0090009e02900027
:103640003443200084825200c6ff32000a003c004e
:10365000b4fc2f000428e100140034008301d100e1
:103660000281d3008180d3000080d3008502e8006e
:10367000faff3a00bbff3700b40020000428e10045
:1036800007003c0000004000818048000201490022
:10369000838149008502e900faff3a00b1ff370053
:1036a0000300280002002000010037006011b8006c
:1036b0006000b800abff3700889fbe00008270003a
:1036c000040271000482710024003200364320009d
:1036d000c50020008383cf000a0039000541b100f6
:1036e0008283cf00070039000541b1008183cf00fc
:1036f000040039000541b1008083cf00010039008a
:103700000541b10085c353006022b80012003200a9
:103710000a003b0084827200610260008301d100d4
:103720000281d3008180d3000080d3000603e8002b
:103730008743e800f7ff3a00070037000000400029
:103740008180480002014900838149000603e900a5
:103750008743e900f9ff3a0042ff07004f04be002b
:1037600000000600f20107000509780000000600cd
:10377000c70ade00f107b200f50fb2000800320000
:10378000e1cf4200020032000170a00024000500d9
:10379000810f70000100320004080500440005009c
:1037a000810f700002003a00140005008502e90054
:1037b0000000400081c04800fcff3b000170a000f9
:1037c000240005002800fa00889fbe008a9fbe00e2
:1037d0008c9fbe0003866b004eff07000028a300ed
:1037e00064003a000128a30067003a000008a30023
:1037f00062003a000108a30065003a001e00900034
:10380000be08900081064000ed3fb100f4805700f3
:10381000ee019000111ab8008e099000311bb8001b
:103820009e099000311cb800511db800f485570066
:1038300046000700fe0190003a0007008b85e80073
:103840003e0007008e09900040000700ee01900046
:10385000340007008b85e800380007008e099000cf
:10386000400007009e0990001b18b8008904400022
:103870000a854800fe019000340007008b85e800af
:1038800038000700ee019000300007008e0990001c
:103890001b18b800890440000a8548000a98a30054
:1038a00008003a000402420085824a0006034b00e9
:1038b00087834b0008044c0089844c000a054d00a6
:1038c0008d06e90084827200850273004c3add00a7
:1038d000850272000100320015002000443ade002b
:1038e0001400b2004538de00cb45dd000b0070004f
:1038f000c540de00cb4ddd008b8070004549de0009
:10390000cb55dd000b017100c551de000d037800c1
:10391000d4fe070003f0a1000cf0a70003f0a00004
:1039200010ff37001b18b8008502400006834800ce
:10393000e0834b0060044c00070037001b18b80000
:103940000603400087834800faff37001b18b800c1
:103950008703400008844800e0844c0060054d0067
:10396000000006001b18b8000804400089844800c5
:10397000faff37000108a300f7fe3a005800be0026
:103980005801be00e3ff37000008a300f2fe3a0032
:1039900009047800f9ff370007f0a200cbfd3700db
:1039a0001400fa00889fbe008a9fbe008c9fbe0054
:1039b0000005be000206be00680047000c90be0075
:1039c0000a90be00b00107006400e1001a00320056
:1039d00016003e006100e1001a0032006e04900003
:1039e000fe0490000e0b90009e0b90006011b8003a
:1039f0009e0590000b38b100d50120008281710036
:103a0000610164008703d1000683d3008984d30059
:103a10000884d3008502e900f8ff3a00c1010700dd
:103a20000df0a70001f0a000cefe3700f1ff270047
:103a3000f0ff2f00cbfe370001f827000000200028
:103a4000f7ff37006000b800f5ff37006022b800cc
:103a5000060220000000d0008180d2000482d20043
:103a60008582d2000000a0000202520083825a0028
:103a7000030031000202420083824a000000a100dc
:103a80000603e900f3ff3a0000000600020ab9004d
:103a9000001bb9000200b800810042008100430011
:103aa00000000600889fbe008a9fbe003004be0052
:103ab0002005be000404440085844c0006054d002a
:103ac00087854d000898be000a90be000440e100c2
:103ad00005c8e10006d0e10007d8e100020031008e
:103ae000680040001008e8004f05be004f04be000b
:103af00000000600889fbe008a9fbe008c1f7800d1
:103b0000000678003c04be002c05be0004005400f2
:103b100085805c0006015d0087815d00009ebe001f
:103b2000029ebe00100020000440e10005c8e10034
:103b300006d0e10007d8e100010039000000eb00e9
:103b40001c0e10004f0678004f05be004f04be004b
:103b5000000006001200fa00889fbe008a9fbe0087
:103b60008c9fbe000205be000004be00e4b79f00ab
:103b7000f5b79f0086bf9f0097bf9f000000eb0036
:103b8000d0b79f00c0b79f00b0b79f00a0b79f00fd
:103b900090b79f0000067800fd032000dfb197007a
:103ba0004fb0970003814100bfb09700e08f5100f4
:103bb00004003d00290007007e805700b9ff070080
:103bc00003003700250007007e805700c9ff07006b
:103bd000dfb09700e08f5000070035001400200090
:103be000050020006033b800080472008984720068
:103bf0000a0573008b8573000c06e8008d0f5600d4
:103c0000e6ff3400e08f500006003d006fb29700e1
:103c1000ffb297000fbb97009fbb97007e805700b5
:103c2000a0ff07005fa89700e00f500004003a00d3
:103c30001fb49700afb497003fb59700cfb597007a
:103c40000800be000a01be004f06be004f05be00c0
:103c50004f04be000080fa0000000600cf01de0025
:103c600002817100b2b79f004f09de0000004000e2
:103c700000007100a0b79f000fb097004f01de0059
:103c8000818040008100710091b79f007faa97005a
:103c9000cf20de00000040000080700080b79f0051
:103ca0000800be000a01be004f18de0004024200f8
:103cb00000027200f4af9f000804440089844c00a5
:103cc0000a054d008b854d004fb29700dfb297007b
:103cd0006fb39700ffb3970000000600881f7800bd
:103ce00018002000881f78009aff07008f87e900de
:103cf0004f04780000000600801feb0095ff0700ce
:103d00008f87e90000000600889fbe008a9fbe00e2
:103d10008c1f7800e00f5000e08f5800e00f590032
:103d2000e08f59000f003d006044b8006055b800b6
:103d30000000540081805c0002015d0083815d0011
:103d40001c0020000820e10009a8e1000ab0e10001
:103d50000bb8e1000d003d00190007000006eb0064
:103d60000a0037000006eb00e00f5200e08f5a0017
:103d7000e00f5b00e08f5b0004003d006044b80092
:103d80006055b8000e0007001c002000d3ff07009c
:103d9000e00f5600060032006022b8006033b80021
:103da0000000520081805a0002015b0083815b00a9
:103db0004f0678004f05be004f04be00000006000d
:103dc0000402540085825c0006035d0087835d0069
:103dd00000000600889fbe008a9fbe008c1f7800ee
:103de000e00f5000e08f5800e00f5900e08f5900bd
:103df0000d003d006044b8006055b800000054005c
:103e000081805c0002015d0083815d001c00200058
:103e10000820e10009a8e1000ab0e1000bb8e100c8
:103e20000d003d00080037000006eb00e00f5200d7
:103e3000e08f5a00e00f5b00e08f5b0006003d0062
:103e40006044b8006055b8000402540085825c00ec
:103e500006035d0087835d00a7ff0700e00f5600a3
:103e6000060032006022b8006033b8000000520043
:103e700081805a0002015b0083815b004f0678005d
:103e80004f05be004f04be0000000600889fbe0024
:103e90008a9fbe008c1f78000006eb00e00f5000e8
:103ea000e08f5800e00f5900e08f590007003d00f7
:103eb0006044b8006055b8000000540081805c0088
:103ec00002015d0083815d001c002000e00f5200b4
:103ed000e08f5a00e00f5b00e08f5b0007003d00c1
:103ee0006044b8006055b8000402540085825c004c
:103ef00006035d0087835d000c00a200af00070091
:103f0000e00f5600060032006022b8006033b800af
:103f10000000520081805a0002015b0083815b0037
:103f20004f0678004f05be004f04be00000006009b
:103f30000003be000efe07006220e1000200320016
:103f40000600be0005000500e507b100f107b2005c
:103f500004f023008480700007f0a70001f0a000a7
:103f600024000500889fbe008a9fbe008c9fbe0073
:103f70000404be000605be00809fbe00829fbe00f6
:103f80002f000700040678000800be000a01be00ea
:103f90002b000700840678004f03be004f02be00ce
:103fa0008d4f76007fb0970013003300f0ff2f0095
:103fb0008b8f6b0006003b000d0666000c00a7000f
:103fc0000a00370007f0a600100020000a003700a2
:103fd000880f5200898f5a008a0f5b008b8f5b001d
:103fe000030039001000200001003e000000200006
:103ff00007f0a7000000ea004f06be004f05be0014
:104000004f04be0000000600e48240001078a300c8
:1040100007003200640240001178a3003400be00a3
:104020001401be00040032000330a70000000600a7
:104030003500be001501be000330a00000000600e0
:1040400005ff270005826100070032000428e10017
:1040500001003200240005000600070001003a00bc
:10406000440005000408050002000700f9ff3a00bb
:10407000140005006f8261008102700085027100ea
:104080008502720000000600800078005002be0029
:104090005003be004439de00f700b200f37f200079
:1040a00003016100090032000218e10016003a0025
:1040b0008501720083017300838173000008200072
:1040c00015003a00400020001300370085017200ff
:1040d000830173008381730005003a0004a8be00c9
:1040e00006a8be00100020000b0037000201e90006
:1040f0000402420085824a0006034b0087834b007e
:104100000748a300f9ff32000740a00004a8be0042
:1041100006a8be00200020008000980092009800b1
:104120000000060081002000618055000b003d006a
:104130000b00200061fe2f000100e1001d00340093
:1041400082817100610164008904d1000884d30078
:104150000000e800faff3a007100200061006400ee
:104160000300700002006000090032006104440096
:10417000e0844c000988a500050032008b05e800aa
:104180006808e10002003a008904d1000884d300e5
:10419000f20f20000258e10005003d00c75ddd0080
:1041a000f907b20089807500080078000000060059
:1041b0000bf827008b00780000000500889fbe00e8
:1041c0008a9fbe008c9fbe000404b8000506b8009c
:1041d0008904460060854e000606b8000a054600c0
:1041e000e0854e000706b8008b054600040eb800b7
:1041f000890446000a854e00e0854d00050eb80092
:104200000a0546008b854e00060eb8008b05460059
:104210000416b8000a0546008b854e000516b80046
:104220008b054600041eb8008b0546000800be0042
:104230000a01be004f06be004f05be004f04be007f
:044240000000060074
:020000040000fa
:104244004944000053090000454c0000414200006d
:104254005f48000049440000524f000053540000de
:10426400415400005f4400005350000049430000e3
:104274005f560000312e0000300900002573000055
:104284000d000000535400004f500000454400004e
:1042940000530000544f000050500000494e0000ed
:1042a40047000000524500005345000054490000f7
:1042b4004e470000006900006473000000630000c2
:1042c40066670000002500002a730000092500002d
:1042d4006409000025640000092500006409000049
:1042e4002564000000430000464700000925000043
:1042f4006409000025640000092500006409000029
:10430400256400000d000000434f00004e460000ed
:104314004947000055520000494e00004700000084
:10432400637500007200000043550000520900004c
:1043340025640000092500006409000025640000cc
:1043440009250000640d0000007300007472000071
:10435400005300005441000052540000494e000034
:104364004700000053540000520d000000530000a9
:10437400545000000d000000535400004f50000042
:10438400504900004e47000000530000544f000005
:10439400504500004400000053540000504f0000fa
:1043a4004b0d0000004300004f4e00004649000042
:1043b40047550000524900004e47000000530000da
:1043c4005441000052540000494e000047000000d0
:1043d4005245000053450000544900004e47000078
:1043e400004300004f4e00004649000047550000be
:1043f400524500004400000043460000474f0000bf
:104404004b0d0000005300005441000052540000c2
:104414004544000000530000545200004f4b00007c
:104424000d000000524500005345000054450000b3
:104434004400000052530000544f00004b0d000094
:1044440000000000505700005f250000750a0000be
:104454000d2500007300000045520000524f00007b
:10446400523a0000207400006861000074200000cb
:1044740077610000732000006e6f0000742000005c
:1044840072650000636f0000676e0000697a0000c7
:1044940065640000212e00002e2e00000050000054
:1044a4004d5f00002575000020500000575f00009c
:1044b4002575000020530000525f000025750000a0
:1044c40020460000525f0000257500000a0d000020
:1044d4000000000044410000540d000000250000cd
:1044e4006609000025660000092500006609000031
:1044f4002566000009250000660d00000045000047
:104504004e4400000d000000746500007374000048
:04451400650000003e
:020000040000fa
:10451800cc0800001000000000000000e2080000c5
:10452800020000000200000000000000e408000093
:104538000200000002000000000000000008000067
:104548006000000000000000e60800000200000013
:104558000200000000000000b20800001a0000007d
:1045680000000000dc080000060000000200000057
:104578000000000000000000600800005200000079
:1045880000000000e8080000020000000000000031
:10459800400b0000020000000200000001000000c3
:1045a8003a0b00000600000000000000140b000099
:1045b80026000000020000003b0b0000003b0b003f
:1045c80009000000000200003d0b0000003d0b0048
:1045d8000e020100000000000000000000000000c2
:1045e8000602020000000000140b0000420b00004d
:1045f8000200000000000000ea0a00002a00000093
:1046080002000000303132003334350036373800cc
:1046180039414200434445004600300031323300fe
:1046280034353600373839006162630064656600e6
:1046380000286e00756c6c00290000004a0a000012
:10464800a0000000020000000100000000000000bf
:1046580000000a00000000000000000000640000e4
:104668000000000000000000e80300000000000057
:1046780000001000270000000000000000a08600d5
:10468800010000000000000040420f000000000090
:104698000000800096980000000000000000e10083
:1046a800f50500000000000000ca9a003b00000069
:1046b80000000000e40b5400020000000000e800c5
:1046c80076481700000000000010a500d4e800009c
:1046d80000000000a0724e00180900000000400011
:1046e8007a10f3005a0000000080c600a47e8d00f6
:1046f8000300000000c16f00f286230000000000e4
:104708008a5d78004563010000006400a7b3b60025
:10471800e00d000000e889000423c7008a000000bb
:10472800ea0800006001000002000000000000002c
:1047380000000000f03f000000000000000024001e
:104748004000000000000000005940000000000088
:10475800000040008f400000000000000088c300f7
:1047680040000000000000006af84000000000005f
:10477800008084002e41000000000000d012630079
:104788004100000000008400d797410000000000ad
:104798000065cd00cd410000000020005fa00200b0
:1047a8004200000000801d00af154400000000001a
:1047b80040593e0029460000000000000000f000bb
:1047c8007f0000000000000000f07f0000000000f3
:1047d80000000000f07f0000000000000000f00072
:1047e8007f0000000000000000f07f0000000000d3
:1047f80000000000f07f0000000000000000f00052
:104808007f0000000000000000f07f0000000000b2
:1048180000000000f07f0000000000000000f00031
:104828003f00000000a0990099b93f000000000077
:1048380040e17a00843f00000000e0004d62500033
:104848003f00000000e0e200361a3f0000000000d0
:1048580080b5f800e43e00000000a000f7c6b000f4
:104868003e00000000a0f200d77a3e0000000000e1
:10487800e08e7900453e00000000e0000b2e11009c
:104888003e00000000e0df007cdb3d00000000008f
:1048980000a19c00c73b0000000000004c48b40089
:1048a80039000000000020006ca137000000000063
:1048b80000000000000000000000000000000000f0
:1048c80000000000000000000000000000000000e0
:1048d80000000000000000000000000000000000d0
:1048e80000000000000000000000000000000000c0
:1048f80000000000000000000000000000000000b0
:084908000000000000000000a7
:020000040000fa
:104910000000fa00e11b2a00208b2000f8ee0700bf
:10492000e00f500005003a0002030700720020006b
:10493000711c2a00208b2000d0ee0700711c2a0079
:10494000208b2000eeee0700e00f50001a003a0026
:10495000e01c2a00801f78000bef07008f87e9001a
:104960000600370072002000711c2a00208b2000f6
:10497000c2ee0700940007000060fe00511d2a00ef
:10498000208b2000deee0700e00f50000a0032000e
:10499000111e2a00208b2000d9ee0700e00f5000e6
:1049a00005003200a11e2a00208b2000d4ee070053
:1049b000e00f5000ebff3a00511d2a00208b200031
:1049c000cfee0700e00f500004003a00b2002000d4
:1049d000311f2a00208b2000a8ee0700311f2a007b
:1049e000208b2000c6ee0700e00f500024003a00a4
:1049f000e01f2a00801f7800e3ee07008f87e900a0
:104a000006003700b2002000311f2a00208b200052
:104a10009aee07006c0007000060fe00111e2a00dd
:104a2000208b2000b6ee0700e00f5000140032008b
:104a3000a11e2a00208b2000b1ee0700e00f5000dd
:104a40000f003200e11b2a00208b2000acee070093
:104a5000e00f50000a003200a11e2a00208b200027
:104a6000a7ee0700e00f500005003200511d2a009c
:104a7000208b2000a2ee0700e00f5000e1ff3a007b
:104a8000111e2a00208b20009dee0700e00f500031
:104a900008003a0000478000e10f500001003a0092
:104aa000840207008200200051202a00208b200071
:104ab00072ee070051202a00208b200090ee0700a4
:104ac000e00f50001b003a00d0202a00801f780021
:104ad000adee07008f87e90000478000e10f50002e
:104ae00009003a0076020700080037008200200023
:104af00051202a00208b200060ee070032000700c2
:104b00000060fe000100370000000000e11b2a00e9
:104b1000208b20007aee0700e00f500005003200e5
:104b2000a11e2a00208b200075ee0700e00f500028
:104b3000eeff3a00a11e2a00208b200070ee070035
:104b4000e00f500004003a008200200041212a00ba
:104b5000208b200049ee070041212a00208b2000f5
:104b600067ee0700e00f500015003a00c0212a0050
:104b7000801f780084ee07008f87e9000600370069
:104b80008200200041212a00208b20003bee0700fc
:104b90000d0007000060fe00511d2a00208b200040
:104ba00057ee0700e00f500005003200e11b2a001d
:104bb000208b200052ee0700e00f5000f0ff3a007b
:104bc0000080fa00000006000000fa0020048000c7
:104bd00068006000e00f5000280032008460a900e7
:104be00081168000000024008080600010c0b300a7
:104bf000e08f5000010032000040eb000080fb001d
:104c0000610060004e00dd0082168000f1ff2b0085
:104c1000810061000080700080168800208b2000d9
:104c2000801f780020122a00801f780056ee0700af
:104c3000e487570041142a00208b200030ee070043
:104c4000e00f500003003200f04680000000e80052
:104c5000f0468800f1468000300b2000808f500025
:104c60000600340092002000b1142a00208b20009e
:104c700002ee07000000eb00f0468800013a8000d9
:104c80000004200000806000e00f500004003a00a3
:104c9000003a800070006000e00f50000600320013
:104ca00040c7a9004087a9009200200041152a00b2
:104cb000208b2000f1ed070077000700e00f500087
:104cc00003003a00e0468000e10f50005c003a002b
:104cd00032002000d1152a000086200017ee0700c0
:104ce000e00f500006003a00208b2000801f780063
:104cf00020122a00801f780023ee0700e487570067
:104d00003200200011162a00008620000bee07005a
:104d1000e00f50001d003a00a08c2000801f78009a
:104d2000808c2000801f7800608c2000801f78001d
:104d3000008e2000801f780050162a00801f780007
:104d40000086200017ee0700ea87570053468000d0
:104d5000424680003146800000478000831f780073
:104d6000821f7800811f7800801f780050172a006a
:104d7000801f780004ee0700ea875700c200200079
:104d800061182a00208b2000bced070032002000b3
:104d900021192a0000862000e8ed0700e00f5000ee
:104da0000c003a00534680004246800031468000a5
:104db00000478000831f7800821f7800811f7800e1
:104dc000801f780060192a00801f7800eeed070030
:104dd000ea87570032002000711a2a00008620005e
:104de000d6ed0700e00f500008003a0092002000c6
:104df000b11a2a00208b2000a0ed0700401b2a00da
:104e0000801f7800e0ed07008f87e900e046800012
:104e1000e10f50000a003a000000eb00e046880075
:104e2000901b2a00801f7800d7ed07008f87e900cc
:104e300092002000b1142a00208b20008fed070083
:104e40000080fa00000006000600fa0055ed070099
:104e500000f02d00000f7800d07d2700100798008b
:104e6000c0f72f002007980020002000005a88007b
:104e70002e00900051ed0700f20020009e009000ef
:104e80001e00780070ed0700008620008045880035
:104e90000080fa00000006000000fa00881f780079
:104ea00007003700884580006bed07000040780060
:104eb000004c7800804580000000e80080458800b4
:104ec0005eed0700e04f5000f6ff3a00814580009c
:104ed00000862000808f50000d0032008045800049
:104ee0000000e90010407800ed4f500008003a0043
:104ef000804580008000e9000040eb008048780099
:104f00000086200080458800100020000100370046
:104f10000000eb004f0478000080fa00000006005b
:104f20003600f800809fbe00829fbe00849fbe00b6
:104f3000869fbe00881f78003400f8000000200023
:104f4000a00188000000fa008700a90007003700d0
:104f50008845800040ed070000407800004c780054
:104f6000804580000000e8008045880033ed0700a0
:104f7000e04f5000f6ff3a00018620009140780093
:104f800030c7b30080cf50000f003a0011862000d8
:104f90009140780040c7b30080cf50000a003a002b
:104fa000218620009140780000c7b30080cf5000d8
:104fb00005003a0063c8bf00ed4f500002003a0000
:104fc00010002000e0468800018620009140780013
:104fd00020c7b30080cf500005003a0011862000a2
:104fe0009140780030c7b30080cf500000003a00f5
:104ff0000080fa003400f9004f0478004f03be002f
:105000004f02be004f01be004f00be003600f90047
:10501000004006000000fa0010fe2d00004088004d
:1050200070b62700104088001140800000408000ca
:10503000f200200004ed0700c1108000f0f32f0003
:10504000808060000004200000807000c010880094
:105050008f00a80016c2a90020002000005a880076
:105060000080fa00000006005200fa00e003200071
:105070000e004000418020002aed0700e0032000e0
:105080000e0040008e80e800811f7800c18520005e
:10509000811f780041222a00811f780041ed07001e
:1050a000e6875700000f78001e007800e00f5000e0
:1050b00002003c00e0222a0007ed07000000eb00a0
:1050c0000080fa00000006000200fa000000eb0079
:1050d000000f780030478000e00f500003003200de
:1050e000304780000000e900010037000000eb00bd
:1050f000418020000100400010407800ed4f50003a
:1051000011003a0040802000f3ec0700d6ff0700b2
:105110000000eb00304788000000eb00000f780033
:1051200005003700408020009e0040000040eb005a
:10513000804878001e0fe800f00420009e007800f0
:10514000808f5000f7ff34000080fa000000060056
:105150000000fa0020478000e00f50000e003200ef
:10516000d3428000f2428000e1428000a0428000f1
:10517000831f7800821f7800811f7800801f7800cd
:1051800010252a00801f7800ffec0700ea875700ef
:105190000000eb00204788000080fa0000000600b5
:1051a0000000fa00100020004047880026ff07009a
:1051b0007c0107003d010700e100070091000700a6
:1051c0004800070020032000e0428800f1428000f0
:1051d000601620000088b90080007800a00520003b
:1051e00000017800110009008280d800c014b000ce
:1051f000300c880060282a00b7ec0700b2ff0700d7
:105200002c00370078000700a000200010010700e4
:10521000a042800080007800e04280008080500042
:105220004001200000017800110009008200d80030
:1052300080007800f042800000804000f04288004a
:10524000a042800080007800e04280000080500092
:10525000e00f500002003400100020000100370071
:105260000080eb00f142800001004000f042880025
:10527000f1428000400b2000808f50000200360079
:10528000400b2000f0428800f142800060162000b0
:105290000088b90080007800a00520000001780097
:1052a000110009008280d800c014b000300c8800c2
:1052b000a7ff0700e04280008080e900a042800054
:1052c000808f5000cfff3e00e04280008080e800e9
:1052d000a0428000808f5000caff39009cff070069
:1052e000c6ff37000000fa00c0ff2f0040158800fd
:1052f00001158000f0cf2f000080600000158800ad
:1053000001158000000e200000807000001588004c
:10531000a062a800a042a800a022a9001115800048
:10532000f0ff21000080600010158800a342a90052
:1053300011158000f0cf2f00808060000010200049
:10534000008070001015880011158000c003200037
:105350000080700010158800a222a900a202a900f6
:1053600021158000f00f2e008080600000a020003a
:105370000080700020158800a4e2a900211580009b
:10538000f003200000807000201588003115800097
:10539000f0f32f000080600030158800a6a2a9005d
:1053a000a682a9003115800000ff2f000080600058
:1053b0000000a00030158800300020005015880043
:1053c000a1e2a9008560a9008d60a8000080fa0014
:1053d000000006000000fa008560a900a1e2a90013
:1053e0000080fa00004006000000fa00d01480009f
:1053f000a0428800e0148000d04288000080fa00bb
:10540000000006000000fa000000eb00f008880031
:105410000000eb00a008880000102e00d0088800d3
:105420008ea0a800f108800000032000008070001a
:10543000f008880086a0a9001fe1a8000080fa00fb
:1054400000000600809fbe00821f78000000fa0066
:1054500086a0a900811680000000240080806000e2
:1054600010c0b300e08f5000010032000040eb009c
:105470000080fb00610060004e00dd0082168000ad
:10548000f1ff2b0081006100008070008016880011
:1054900010002000204788000080fa004f017800ab
:1054a0004f00be00004006000000fa000080fa0035
:1054b000000006000000fa000080fa00000006006c
:1054c0001400fa00c0262a00801f78002eec070086
:1054d0008f87e9000e0890009e089000809fbe0014
:1054e0006e009000fe009000809fbe004e00900075
:1054f000de009000809fbe002e009000be00900055
:10550000809fbe001e00be00809fbe0010272a00a4
:10551000801f78001cec0700f687570010282a002f
:10552000801f780018ec07008f87e9000080fa00e0
:10553000000006000000fa000080fa0000000600eb
:105540000000fa008ba1a9008a81a9008a61a90044
:10555000510c800080ff2f00008060006000b300cd
:10556000500c8800f1428000601620000088b900cd
:1055700080007800a00520000001780011000900db
:105580008280d800c014b000300c88000080fa007f
:10559000000006000000fa0097a1a9009681a9006a
:1055a0009661a900b10c800080ff2f000080600090
:1055b0005000b300b00c8800600880000000d100eb
:1055c000a00c880060088000900c88000080fa0021
:1055d000000006000000fa002342a80022a2a80052
:1055e0002302a8001111800030fe2f00008060000f
:1055f00010118800101180003000b30010118800d5
:105600008500a9008d00a80020c2a90021e2a80001
:105610000080fa00000006000000fa008500a900e2
:1056200020c2a9000080fa00004006000200fa0033
:10563000000f7800f0ff20001e0f60000000210026
:105640001e007000201188000080fa000000060093
:105650000600fa00200798000f0037000000220023
:1056600011002000008fbe00040037000080eb0016
:105670008080eb001e0f40005e9748001e00be00b9
:10568000e00f5000e08f5800f8ff3a002e00900025
:105690000000e900200798002e009000e00f500065
:1056a000eeff3a000080fa00000006000000fa0059
:1056b0000000eb00800888000000eb003008880044
:1056c000a0402200600888008cc0a80081088000eb
:1056d000f0fc2f008080600000022000008070003d
:1056e0008008880011e1a80084c0a9000080fa00a9
:1056f000000006000000fa0084c0a900a1e2a80092
:105700000080fa00004006000000fa000000eb00f4
:10571000900888000000eb0050088800c0122000ac
:10572000700888008ce0a80091088000f0fc2f0031
:10573000008060009008880084e0a90013e1a800c0
:105740000080fa00000006000000fa0084e0a900d2
:105750000080fa00004006000000fa00110a8000f4
:1057600080ff2f00008060000010a000100a880059
:10577000110a8000f0f92f0000806000100a8800f4
:1057800042e1a9008420a9008c20a8000080fa0032
:10579000000006000000fa008420a9000080fa0042
:1057a000004006000000fa00d902a800c602a800c6
:1057b000c622a800cdc2a900cda2a900d222a9006c
:0857c0000080fa000000060061
:020000040000fa
:0200000401f009
:04000000f7bf000046
:020000040000fa
:0200000401f009
:04000400ff7f00007a
:00000001FF
