:020000040000fa
:080000000001040000000000f3
:020000040000fa
:100200006fae20000eff20000e01880000000000ed
:100210000c000700a0e122000100200011000700ef
:10022000000020000000e000020032000000020098
:100230000000000036350200000000000040da0037
:100240000000fe004440a900004720000000e0003c
:100250000300320000002000a00188004440a800f4
:100260000000060091018800800078000000eb008b
:1002700015003700e280400032a0b4009101ba00be
:10028000e280400032a0b4009102ba00e280400057
:1002900032a0b4000002eb00472bde00f507b200ed
:1002a000602ce10004003a000059eb008301e900f2
:1002b000fdff3e00040037006128e100010032002c
:1002c0000082eb00040007001101ba000200e00008
:1002d000e8ff3a00000006003159ba008301e90046
:1002e0000c0032002159ba008301e90008003200f5
:1002f0000400e00003003a00e280400032a0b400b5
:10030000f5ff370011d9ba008301e900faff3a007e
:100310008100e800e180400032a0b4000000060047
:100320000040da000000fe001004b10003003500b8
:100330009001b10001003c00100005000000050024
:10034000800078001104b100030035009101b10074
:1003500001003c000050a000000006001004b100a5
:10036000070035009001b100040034007000b100b6
:10037000030035009001b10001003c0010000500b1
:10038000000005006900e100040035006d00e10097
:10039000030034000002b10001003200000005003b
:1003a000100005000a00fa0080017800e20f5000fa
:1003b00028003e0010578000e10f50000800320076
:1003c000e02120000000e000050032006421200050
:1003d00085212000a621200080017800040037003c
:1003e000c4202000e5202000062120004321200019
:1003f000144090000004e000040035008009eb0088
:10040000144090000074a000104298001540900025
:100410000028a30003003a00154090000024a0002b
:10042000904298008001eb000700370015409000d3
:100430000008a300fdff320063c078000000fb004d
:10044000000b78008301e800828f5100f7ff3a002b
:100450000800370030002000b0bf9f00c3bf9f00de
:10046000d1bf9f00e2bf9f006a80570000c0da0042
:100470006fb99700020078000080fa0000000600c3
:100480000a00fa00881f7800800178000000e00070
:1004900029003a0010578000e10f50000800320098
:1004a000e02120000000e00005003200642120006f
:1004b00085212000c721200080017800040037003a
:1004c000c4202000e5202000272120004321200017
:1004d000144090000004e000040035008009eb00a7
:1004e000144090000074a000104298000002eb003d
:1004f0000c003700130a20001544780061406400a6
:1005000002003a008301e900fbff3a000402e80020
:100510009541780061c06100050032001700780045
:100520008058780004035100820f5200f1ff3a0016
:10053000060051000800370020002000a0bf9f00e7
:10054000b3bf9f00c1bf9f00d2bf9f006c80570008
:1005500000c0da005fb897004f0478000080fa000e
:1005600000000600020ab900001bb9000200b80032
:1005700081004200810043000000060003f0a20059
:10058000889fbe008a9fbe008c1f78001f01070055
:10059000260133006450e1004f0032006420e10086
:1005a0005200320003826c0007003b000905d000b6
:1005b0000306d000820f54000c065d0002003900d3
:1005c0000200320089017800030678008582550018
:1005d00004003d000003fd008103fd008502ea00e8
:1005e0008b854200840f720002003b006000100007
:1005f000e08018006011b8000005eb007a28e100e7
:100600000a00390006007800c75ddd00f707b20078
:10061000878075002d003700828171000a01780003
:10062000610560008180d1000080d3008502e9006f
:10063000f9ff3b00060440008784480002003b00ad
:1006400060041400e0841c000988a3000700320045
:100650008a81710082817100610164008904d10086
:100660000884d3008b05e800170037000978a30041
:1006700013003a000b00e000130034008b05e90082
:100680000804440089844c000a4474000978a300db
:100690000d003a000b00e000070034008b05e90074
:1006a0000804440089844c0001003a000b0020003b
:1006b0000978a300f7ff32000001eb0002003700c9
:1006c000828171000a017800e80007000cf0a700a1
:1006d00001f0a000de0037006420e10002003a00d3
:1006e000838f6c00de0033000801be000200be00f4
:1006f000d7003700889fbe008a9fbe008c1f7800fd
:10070000c2000700c900330003866c006450e1009a
:10071000240032006420e100270032006150e10033
:10072000220032006120e100210032008b8542006e
:10073000eb07b1000134b800003ab80008044200e9
:1007400089844a00013ab8000030b800888040002f
:1007500009014a0004003300000040008180480085
:10076000020149008b05e900c909dd008301700021
:100770000100320013002000c814de004814dd0020
:100780004709de001200b200c808de0008847000cd
:10079000b600070001f0a1000cf0a70001f0a000d6
:1007a000ab0037006120e100ad0032000801be005f
:1007b0000200be00f7ff37006150e100fcff3a0085
:1007c000a7003700f4ff2f00ce003700889fbe003f
:1007d0008a9fbe00010578000100e000040035009a
:1007e00008003c000000e000200032000500370057
:1007f00060001000e080180002003b0001f02c00b7
:100800001a0037000004be006011b8006b09200018
:100810000982cf00020039000882cf000441b000f5
:10082000694252000e00320008003b0082817100d4
:10083000610164008904d1000884d3008b05e800bd
:100840000442e800f9ff3a000500370008044400bc
:1008500089844c008b05e9000442e900fbff3a0063
:10086000820007000af0a70001f0a0004f05be00bb
:100870004f04be0000000600889fbe008a9fbe0095
:100880008c1f7800610007006800330003866c004d
:100890006450e1002e0032006420e1003300320099
:1008a0006150e1002f0032006120e1003100320090
:1008b00085855500eb07b0000900200008042000e2
:1008c000050037000804440089844c000a00310008
:1008d0000603430087834b000001530081815b00c6
:1008e000f8ff33000203be000800a0000804440023
:1008f00089844c00f6ff3900c639dd00830173009e
:1009000001003200130020008904d1000884d300c4
:100910000998a300050032000800a7000300a0000a
:100920008904d1000884d3008b05e8008904d10034
:100930000884d3000001eb000281d2004b000700c5
:1009400001f0a1000cf0a70001f0a000400037006a
:100950006420e100420032000801be000200be0037
:10096000f7ff37006120e1003d0032006000b80071
:10097000f3ff37000000200001f82700f0ff3700e8
:10098000140020005f0037000001be00780007005f
:100990000470a70003f0a1006509b1001600320041
:1009a0000d0035006828e10006003500f0ff2f003b
:1009b000f1ff27000300e00013003b0001002800c6
:1009c0000000050000004000818048008502e90029
:1009d000fcff3a0008003700f88f420002003c009c
:1009e0008000eb00000005008100d1000080d300f2
:1009f0008502e800fcff3a000300e00002003b0033
:100a000060001000e0801800000006000004be0036
:100a1000570007000003be000405be000200be0030
:100a200053000700844f7500000006000200be005e
:100a30006450e100050036006420e1000200360049
:100a40000968a30001003a000800be000160a00090
:100a50004f0678004f05be004f04be0000000600a0
:100a6000f0ff2f00f1ff2700f9ff37008100200081
:100a7000618055000b003d000b00200061fe2f003f
:100a80000100e1001d0034008281710061016400f9
:100a90008904d1000884d3000000e800faff3a007e
:100aa000710020006100640003007000020060001b
:100ab0000900320061044400e0844c000988a5006c
:100ac000050032008b05e8006808e10002003a00ea
:100ad0008904d1000884d300f20f20000258e100fd
:100ae00005003d00c75ddd00f907b2008980750093
:100af00008007800000006000bf827008b00780043
:100b000000000500889fbe008a9fbe00841f7800f9
:100b1000beff07004f00780011003300f0ff2f00e8
:100b2000838f6c0006003b00040565000a00a700e7
:100b30000800370009f0a600100020000800370068
:100b4000820f5400838f5c000300390010002000e6
:100b500001003e000000200009f0a7000000ea00ac
:100b60004f05be004f04be000000e000000006007c
:100b7000c70ade00f107b200f50fb200080032002c
:100b8000e1cf4200020032000170a0002400050005
:100b9000810f7000010032000408050044000500c8
:100ba000810f700002003a00140005008502e90080
:100bb0000000400081c04800fcff3b000170a00025
:100bc00024000500881f7800000478005001be0052
:100bd0004000be0004004000858048000601490036
:100be00087814900009cbe000294be000400e10021
:100bf0000588e1000690e1000798e100020031005d
:100c0000680044001008e8004f0478000000060067
:100c1000f4874700889fbe008a9fbe008c9fbe005d
:100c20008e1f78000205be000004be00d4b79f00ee
:100c3000e5b79f00f6b79f0087bf9f000000eb005d
:100c4000c0b79f00b0b79f00a0b79f0090b79f00ac
:100c500080b79f000d042000bfb097004fb09700f1
:100c6000000140000000e0000f003d004f08de00e2
:100c700000007100c0b79f009e00070001003d000a
:100c800012002000a100070001003d00120020001a
:100c9000a6000700b1000700b60007000f004000e3
:100ca000c8ff0700220037004f08de000006710071
:100cb000ccb79f008f00070001003d00120020000c
:100cc0009200070001003d0012002000970007007d
:100cd000a20007000fb297009fb297002fb39700b2
:100ce000bfb39700a90007000000520081805a009e
:100cf00002015b0083815b0080b79f0091b79f007a
:100d0000a2b79f00b3b79f000007eb009f0007004a
:100d10000020e10001a8e10002b0e10003b8e10019
:100d2000010031001e0020000e005600c0b79f00d9
:100d30004fb297000400e0000700350010002000cb
:100d4000010020006011b800080470008984700060
:100d50000a0571008b8571008d06e900beff3a001f
:100d60000400e00003003d00820007000f00400087
:100d700094ff07004fa897000000e00004003a002d
:100d80000fb497009fb497002fb59700bfb5970099
:100d9000940007004f0778004f06be004f05be00c5
:100da0004f04be004f01b10000000600881f78000c
:100db00018002000881f780095ff07008f87e90042
:100dc0004f04780000000600801feb0090ff070032
:100dd0008f87e90000000600889fbe008a9fbe0042
:100de0008c1f78006e00070007003d0073000700ad
:100df000e00f5b00e08f5b0007003d003200070062
:100e00000006eb00040037003400070002003d003c
:100e10002a0007001c00200072000700e3ff070003
:100e20000203be000002be000c00e0000100320020
:100e3000220007000400be000601be004f06780035
:100e40004f05be004f04be0000000600889fbe0094
:100e50008a9fbe008c1f78005100070005003d00ee
:100e600056000700e00f5b00e08f5b0006003d00ce
:100e7000040037001900070003003d006000b800bf
:100e80006011b8001000070056000700ceff0700f1
:100e90000203be000002be000c00e00001003200b0
:100ea000060007000400be000601be004f067800e1
:100eb0004f05be004f04be00000006006000b800f1
:100ec0006011b8000000370004025000858258000d
:100ed0000603590087835900000006000006eb0056
:100ee000e00f5200e08f5a00e00f5b00e08f5b00e4
:100ef000000006000180400090b79f000001eb0059
:100f00008fb097000100e0000000060002007000b2
:100f100090b79f000180400080b79f000001eb0068
:100f2000ffa897000100e00000000600020070002a
:100f300080b79f00018040006faa9700cf20de009d
:100f400001007000f0af9f0004024200250007007e
:100f50004f18de000002720000000600e4af9f00a0
:100f60000804440089844c000a054d008b854d001f
:100f7000000006003fb29700cfb297005fb3970022
:100f8000efb3970000fe2f00000006003fb097006f
:100f9000cfb097005fb19700efb197000000060057
:100fa0000205be000004be00e00f5000e08f5800b4
:100fb000e00f5900e08f5900000006006000b80003
:100fc0006011b80008045000898458000a055900cf
:100fd0008b8559001c002000e00f5200e08f5a0062
:100fe000000006000800be000a01be000000060066
:100ff0002800fa00889fbe008a9fbe008c9fbe001a
:1010000003866b000c0207000028a30064003a006e
:101010000128a30067003a000008a30062003a001c
:101020000108a30065003a001e009000be08900071
:1010300081064000ed3fb100f4805700ee019000c2
:10104000111ab8008e099000311bb8009e0990005b
:10105000311cb800511db800f48557004600070048
:10106000fe0190003a0007008b85e8003e00070073
:101070008e09900040000700ee0190003400070048
:101080008b85e800380007008e09900040000700bb
:101090009e0990001b18b800890440000a8548008a
:1010a000fe019000340007008b85e800380007003f
:1010b000ee019000300007008e0990001b18b80068
:1010c000890440000a8548000a98a30008003a00f5
:1010d0000402420085824a0006034b0087834b00ce
:1010e00008044c0089844c000a054d008d06e90077
:1010f00084827200850273004c3add008502720022
:101100000100320015002000443ade001400b20055
:101110004538de00cb45dd000b007000c540de0029
:10112000cb4ddd008b8070004549de00cb55dd00e6
:101130000b017100c551de000d037800d7010700d7
:1011400003f0a1000cf0a70003f0a000ce013700cf
:101150001b18b8008502400006834800e0834b005e
:1011600060044c00070037001b18b800060340005d
:1011700087834800faff37001b18b8008703400038
:1011800008844800e0844c0060054d000000060023
:101190001b18b8000804400089844800faff370093
:1011a0000108a300b5013a005800be005801be0076
:1011b000e3ff37000008a300b0013a0009047800fb
:1011c000f9ff37008103780069fe07000001be00c7
:1011d0006000b8000478a30013003a006220e10028
:1011e00015003e000d0039008301d1000281d300bb
:1011f0008180d3008301d1000281d3008180d3009c
:101200008301d1000281d3008180d3000538b00072
:10121000c42add00f300b2008381720007f0a7004a
:1012200003f0a00000000600f3ff2700f2ff2f00ec
:101230006110b900fbff370003ff2700f7ff3700fd
:101240008f1fd100c10107008f87e9000000e00077
:1012500000000600801feb00bc0107008f87e9003b
:101260000000e000000006001400fa00889fbe00a5
:101270008a9fbe008c9fbe000005be000206be0015
:10128000680047000c90be000a90be00d80107001d
:101290006400e1001a00320016003e006100e10027
:1012a0001a0032006e049000fe0490000e0b9000b5
:1012b0009e0b90006011b8009e0590000b38b100a5
:1012c000d501200082817100610164008703d10093
:1012d0000683d3008984d3000884d3008502e90003
:1012e000f8ff3a00e1fd07000df0a70001f0a000b3
:1012f00065013700f1ff2700f0ff2f006201370082
:1013000001f8270000002000f7ff37006000b80058
:10131000f5ff3700dd010700050978000000060031
:10132000809feb00890107008f87e9000000e00043
:10133000000006002800fa00889fbe008a9fbe00b9
:101340008c9fbe0007067800878669000c003b0072
:10135000030478008704780008f0a10009f0a100d8
:10136000840f5000858f5800860f5900890f5c004c
:10137000030033000cf0a20001003a000cf0a100c1
:101380002d0107006400e1005f0032007801470092
:101390006408e100610032006c0147007485570069
:1013a0003200be001201be003a04be001a05be00a3
:1013b0001e039000be0a90008503530006003d0006
:1013c0000004fd008104fd000205fd008305fd0011
:1013d0008703ea00050378000df8a300040032003b
:1013e00060041400e0841c0060051d00e0851d0001
:1013f0006022b8007d0320000d38e1008006eb007c
:101400000b0039004433dd00f300b20083017300a8
:1014100039003700848272000d027800e106640012
:101420008b85d1000a85d3008984d3000884d3003a
:101430008703e900f7ff3b0008004000898048006f
:101440000a0149008b81490004003b006000100044
:10145000e080180060011900e08119000358a30022
:10146000090032008d827200848272006102600085
:101470008301d1000281d3008180d3000080d3009a
:101480000603e8001b0037000348a30017003a00da
:101490000600e000170034000603e9000d00a30079
:1014a0000000480081804800020149008381490012
:1014b0000348a3000f003a000600e00009003400d2
:1014c0000603e90000004000818048000201490055
:1014d0008381490001003a000003eb000348a300a8
:1014e000f5ff32006022b8000200370084827200eb
:1014f00061826600e900070003f0a1000cf0a7007c
:1015000003f0a000e0003700640147006408e10038
:1015100002003a000df8a300d8003a003200be00e5
:101520001201be00d80037001400fa00889fbe00e8
:101530008a9fbe008c9fbe000004be000205be0054
:10154000680047000a90be000890be00280107000e
:101550000070a7000bf0a1000bf8a30020003a00d8
:101560009e0990000e099000fe0090006e00900011
:101570009e0290003443200084825200c200320058
:101580000a003c00b4fc2f000428e10014003400e1
:101590008301d1000281d3008180d3000080d30079
:1015a0008502e800faff3a00b7003700b4002000d7
:1015b0000428e10007003c00000040008180480052
:1015c00002014900838149008502e900faff3a00df
:1015d000ad003700030028000200200001003700a2
:1015e0006011b8006000b800a70037002800fa00ba
:1015f000889fbe008a9fbe008c9fbe0003866b0042
:101600008d0007006400e100440032006408e1003e
:101610004a0032006100e100460032006108e1004a
:1016200049003200ec0647006000b8003d02be00f1
:101630003d03be00f48657006011b8003d04be00b3
:101640003d05be007d0320000b0037000000a00018
:101650008d06e900130032000402420085824a0030
:1016600006034b0087834b00000040008180480048
:1016700002014900838149000802520089825a0010
:101680000a035b008b835b00f0ff3b000802420013
:1016900089824a000a034b008b834b008d06e900c8
:1016a000edff3a008482720086827200f707b20072
:1016b0008782720001003200150020001e04900095
:1016c0003e0b900006035400e63fb0000368a30001
:1016d000070032000000a7000500a0008301d10030
:1016e0000281d3008180d3000080d3000603e8008c
:1016f0008301d1000281d3008180d3000080d30018
:101700000002eb000482d2006400070003f0a10095
:101710000cf0a70003f0a0005b0037006402470054
:101720006408e100550032003400be003401be0000
:10173000f6ff37006108e100500032006011b80088
:101740006000b800f1ff370003ff2700020020000f
:10175000fbff3700889fbe00830478000300e00091
:101760002c00350003003c00008270000402710070
:101770002600320036432000c50020008383cf00be
:101780000a0039000541b1008283cf00070039000b
:101790000541b1008183cf00040039000541b1004b
:1017a0008083cf00010039000541b10085c353009b
:1017b0006022b800120032000a003b0084827200ee
:1017c000610260008301d1000281d3008180d300d7
:1017d0000080d3000603e8008743e800f7ff3a00e3
:1017e00007003700000040008180480002014900e6
:1017f000838149000603e9008743e900f9ff3a00c5
:101800002600070009f0a70003f0a0004f04be0067
:101810000000060060001000e08018006001190060
:10182000e0811900d3ff3b00033e2c00f7ff370097
:1018300007f0a200bffe3700680447000294be0014
:101840000094be00fc0447008694be008494be0051
:1018500009007800660007000800780064000700af
:1018600099007800814f70000b003b000800be001b
:10187000930007004f00b10003003700f3ff27007b
:10188000f2ff2f006110b9004f06be004f05be00e9
:101890004f04be000080fa0000000600180020007f
:1018a00057002000080453000d003d0006002000f2
:1018b00097fc2f000740e1001e0034008482720074
:1018c000610260008301d1000281d3008180d300d6
:1018d0000080d3000804e800f8ff3a004700200029
:1018e0006104600005047400040464000d0032000b
:1018f00061004000e080480060014900e08149004b
:1019000003b8a500070032000603e8006538e100cf
:1019100004003a008301d1000281d3008180d3000a
:101920000080d300f87f20000830e100030035007c
:10193000080378006000b8006011b8004433dd008f
:10194000f300b2008301730000000600889fbe0010
:101950008a9fbe008c9fbe000404be000605be0028
:10196000809fbe00829fbe006300070004067800cf
:101970000800be000a01be005f0007008406780070
:101980004f03be004f02be008d4f76007fb0970020
:1019900013003300f0ff2f008b8f6b0006003b001d
:1019a0000d0666000c00a7000a00370007f0a6002d
:1019b000100020000a003700880f5200898f5a005b
:1019c0008a0f5b008b8f5b00030039001000200042
:1019d00001003e000000200007f0a7000000ea0020
:1019e0004f06be004f05be004f04be0000000600bb
:1019f000800078005002be005003be004439de0073
:101a0000f700b200f37f20000301610009003200fb
:101a10000218e10016003a0085017200830173008c
:101a2000838173000008200015003a004000200068
:101a300013003700850172008301730083817300f6
:101a400005003a0004a8be0006a8be001000200051
:101a50000b0037000201e9000402420085824a00bf
:101a600006034b0087834b000748a300f9ff3200b1
:101a70000740a00004a8be0006a8be002000200069
:101a80008000980092009800000006000003be004d
:101a900037fc07006220e100020032000600be00b1
:101aa00005000500e507b100f107b20004f02300ce
:101ab0008480700007f0a70001f0a000240005005a
:101ac000e48240001078a300070032006402400066
:101ad0001178a3003400be001401be0004003200df
:101ae0000330a700000006003500be001501be004f
:101af0000330a0000000060005ff270005826100fa
:101b0000070032000428e100010032002400050033
:101b10000600070001003a00440005000408050023
:101b200002000700f9ff3a00140005006f8261000f
:101b300081027000850271008502720000000600bb
:101b400016c2bf0066406000e64f500002003a0037
:101b5000e010800000000600e0108000f00fb200ee
:101b60000000060010417800b141510003003a0026
:101b70000000e8000204e000faff3a000300fb0066
:101b800000000600810178000002eb000b00370026
:101b9000e44078000104e000030032000402e800a1
:101ba00093cf5000040032008180fb001380fb00c3
:101bb00000805000000006008301e800820f520000
:101bc000f3ff3a00000005000c00fa00a0bf9f00e0
:101bd000c0bf9f0011000700b0bf9f00f0bf9f0073
:101be000100c2000d0bf9f0074815700efb0970009
:101bf0006c8057003b0007000080fa0000000600e0
:101c00000000fa00cfb897006881570040ac200070
:101c1000ac0107000080fa00000006008000780098
:101c20003004e000feff3a00010050000000e9002f
:101c300000000600889fbe00000478008144780000
:101c400000fd2f0000004400e90f500002003e009c
:101c5000000178000d00370008007800b2f9070095
:101c60000000e0000300320008007800b4f907002b
:101c70000004780008007800b8f907000000e000d0
:101c80000700320090fa2f00000144000980fb0099
:101c9000800f510002003d000280fb000100370070
:101ca000f00f20004f04be0000000600881f7800df
:101cb00020578000c806070000047800b1f907002b
:101cc0000000e000faff3a00e10f44000300320098
:101cd0002157800008007800f30607004f047800c1
:101ce00000000600ec874700889fbe008a9fbe0068
:101cf0008c9fbe008e1f780081bf9f000207780076
:101d0000205788008046eb00040137008884fb00e0
:101d1000090078009bf90700800078000000e000cf
:101d200002003200e1ff0700fc00370050c2b300a0
:101d3000804f5400f0003a000fbd970020c0b30060
:101d4000c0ef9f00d1ef9f0081ef9f00030037009d
:101d500040c0b300c0ef9f000fbd97000fb99700c0
:101d6000b240780082bf9f008184fb0090c6b30020
:101d700080cf50003500320017003e006640500012
:101d800080cf5000620032000c003e0077405000cf
:101d900080cf50002800320006003e000104e00021
:101da0009b003200a0c2b30080cf50006e003a000a
:101db0001d00370080c5b3001600370040c6b300d1
:101dc00080cf5000210032006440400080cf50009e
:101dd00065003a001200370030c7b30080cf5000d2
:101de0001e00320007003e006740500080cf5000c8
:101df000110032006340400080cf50005a003a008a
:101e00001400370050c7b30080cf50000f003200dd
:101e10006340400080cf500053003a006500370017
:101e200020c0b300cbff3700dfe897008140e80017
:101e3000d1ef9f00c8ff37004fe9970080c0b30083
:101e4000e24f5100c3ff3a00c1ff3700acc0b300fe
:101e5000590037008cc0b3005700370093ff0700cc
:101e6000dfe897000104e00002003a004e0178002c
:101e7000d2b79f0020578000570607000004780063
:101e8000e10f4000a20032008fec970012003700f3
:101e90000a85e8008abf9f00160037008fb89700b8
:101ea0001100fb00800f5400f9ff32005fe997003a
:101eb0000204e00003003a005fb097000858780081
:101ec000d0b79f008944e9000a0032002057800003
:101ed00041060700000478000800e800e10f500008
:101ee000040036000800780026f907000000e00032
:101ef000eaff3200dfe897000104e00087003a00c3
:101f00008d46e8005fb197000149780083003700f3
:101f10005fe897000004e00003003a008d46e80007
:101f2000ce007800d1b79f00205780002a06070016
:101f3000e10f4000760032005fe997000204e00004
:101f400003003a00dfb0970080587800d1b79f00b7
:101f50000fe997000241e90082ef9f004240a9008b
:101f60006e003400f0ff37000180fb0008fd2f00f9
:101f700008004000e90f50005f003e000a007800b2
:101f80006606070080ef9f00880078000300370096
:101f90000fb897000000e80080bf9f000fb99700be
:101fa0001200fb0001004000e90f5000f8ff36006e
:101fb00069ff37000cc1b3003cff070020578000c9
:101fc00005060700000578000040eb00e0ef9f00e9
:101fd000d0022000800f550005003a0020578000f5
:101fe000fd0507000005780011c0b300e1ef9f0078
:101ff0008c4078000a0078000eff0700e14f400097
:102000000a003a00215780000a00780026060700df
:102010000d04e0004b003a00205780003000900093
:102020000048a30043003200480037008fed9700be
:102030006044b8000c81fb00030020000800be00d3
:1020400048f907000004be008c4078000a007800c0
:10205000f8fe07000080fb0001002000080440009b
:10206000898448008b45e900070032002057800032
:10207000d9050700000578008c407800edfe0700c8
:10208000e14f4000ebff3a008c4078000a007800f6
:10209000e8fe0700e14f400003003a0021578000ae
:1020a0000a007800000607006fe997000204e000cc
:1020b0000200320060041400e0841c005fe8970016
:1020c0000004e00015003a008d46e800cfe89700d4
:1020d000e4cf500003003a004e0078000888be00ac
:1020e0000e0037000e81e900020778001200780028
:1020f000080878000900370020578000b60507005f
:10210000808f540005003200e10f40000b003a00c0
:102110000d04e0000d0032000a0037008fb8970070
:102120003144780081bf9f000804e000f7fe3a00c8
:10213000040037000000eb00050037002157800045
:10214000d90507000d80fb00010037000080eb007f
:102150004f0778004f06be004f05be004f04be007b
:10216000cf00b10000000600889fbe008a1f7800e3
:10217000804078000004e00021003d008040ea003b
:10218000d0c6b30080cf5000090034008104fb00aa
:1021900042062000110009008204d80000017800e6
:1021a000010078004311dd00ca8820001f003700bd
:1021b0000100fb00c388200039003700a200200086
:1021c000110009000200d800000178000100780029
:1021d0004311dd00030141004300dd000300400026
:1021e0003002be002003be0042209000d2209000aa
:1021f000f2219000622190007dfb07002e00370045
:10220000d0c6b30080cf5000230034008104fb000f
:1022100042062000110009008204d8000001780065
:10222000010078004311dd00ca9320000a0141003b
:10223000a8002000110009000800d8004300dd00bc
:102240000a00400040229000d022900060239000bd
:10225000f02390000288900092889000b28990004c
:102260002289900062fb0700801f7800010278003d
:10227000110009008804d8000102fd004f00780019
:102280000402fb004322dd000a0242005403be00a8
:102290004402be00d8ff37000100fb00c3932000ba
:1022a000eacf5000c5ff3c004300dd0003004000c2
:1022b0005001be004000be004f0578004f04be0034
:1022c000000006008f03b000889fbe008a9fbe00fa
:1022d0008c9fbe008e1f7800e0b79f00f1b79f0073
:1022e00082bf9f000000eb00a0b79f00e60437000c
:1022f0008001eb0050c2b30080cf500009003200d3
:102300000100fb00efb09700ec040700e10f400074
:10231000dd043200afb097008100e800a1b79f0054
:10232000d90437007fb1970092407800d0c2b30043
:1023300080cf50000c00320007003c006d40500080
:1023400080cf50000d0032006b40400080cf500025
:1023500019003a000e00370000c3b30080cf5000d0
:1023600015003a000f0037000330a0007fb297003d
:102370000402e800f4b79f00eaff37000300a00062
:10238000ffb297008502e800f5b79f00e5ff370030
:102390000310a0007fb697000c06e800fcb79f0072
:1023a000e0ff37000320a0007fb097000000e800a6
:1023b000f0b79f00dbff37000318a30001003200d5
:1023c0000300a1000338a300010032000320a10094
:1023d0000100fb0002fd2f0002004000e90f500049
:1023e00010003e008000eb00c1b79f0002027800a1
:1023f0004fb197006a10b900ffb297001501fb00ba
:102400000001410004014100c2b79f005500fb00dc
:10241000f5b79f0004004000e90f50000d003e009a
:10242000f3ff37000006eb00ccb79f00a0c2b3005b
:1024300080cf500007003a000fb89700c000780026
:1024400080bf9f00c1b79f007fb197000201e800e5
:10245000f2b79f00e0c2b3007fb29700944f100024
:1024600021003a00830678000de0a0008400e80017
:1024700064405000914f100004003200f1b79f00fb
:102480008002eb00b5b79f00100037000fbe970029
:102490004c0078008cbf9f00b0b79f00ffb0970042
:1024a0008180e800f1b79f00130037003fb297002a
:1024b0006a20b9000000410003004000b0b79f004f
:1024c000ffb297008502e800f5b79f007fb697003e
:1024d0001c01fb0003fd2f0003004100e90f500029
:1024e000f2ff360004003700830678000dc0a0001c
:1024f0000000eb00b0b79f007fb19700b2407800ba
:10250000f2b79f00c17f9f00c0c6b30080cf5000cc
:102510002700320014003c006840500080cf50007b
:102520009d00320009003c006c40500080cf5000fc
:10253000290032006b40400080cf50007200320012
:102540000104e000560432008e00370060c6b3007c
:1025500080cf50001c0032006340400080cf50000c
:1025600088003a008c00370030c7b30080cf50009d
:102570001c00320007003c006440500080cf500037
:10258000130032000040e80080cf50007d003a0088
:102590001100370050c7b30080cf50007d003200db
:1025a0006340400080cf500076003a000b003700b7
:1025b000000028000d48a30001003a00000120009f
:1025c00080867600ccff37000da0a0007200370097
:1025d0000d60a000700037000d50a0000d70a0002d
:1025e0006d0037008fb997004300780083bf9f00cc
:1025f000000478000000e00001003a00c8a82000b4
:102600008004eb00010037008104e80089007800b5
:10261000088044001004e000fbff3a003fb297003e
:102620000400e00003003200890f52000100310075
:10263000840478000007eb00cfb29700898f520026
:1026400001003600098752004368de00e1066000a1
:1026500019003a000d06780009003700efb0970026
:102660000002200015040700e10f400003003200c3
:102670002fb097000000e800a0b79f000c06e8000c
:102680008e0f5600f5ff3a000087eb000a00370076
:10269000880078003100fb0001047800efb097005b
:1026a00006040700e10f400003003200afb09700be
:1026b0008100e800a1b79f000900e90080047800cc
:1026c000e10f4000f2ff3a000006eb000d00e000d1
:1026d0000a003a00ec033700efb097000002200038
:1026e000f6030700e10f4000030032002fb197000e
:1026f0000201e800a2b79f000c06e8008e0f56000a
:10270000f5ff3a00e00337008fb9970043007800e7
:1027100083bf9f00cf80de00010178008201780036
:102720000205be000004be000203be000002be009f
:102730004822de00482edd0004027600c47f9f00a0
:102740000d48a3000a0032000404e0000800320033
:10275000e14f420006003200d1fb2f00018047000c
:102760000448780018409800290020000200370033
:10277000d07f9f0019002000d2fb2f000284470069
:10278000a6ff3700c3fb2f00038447001900200079
:10279000a2ff37000d0cb30000702000008266001d
:1027a000270232000dc8a30002003200640020009e
:1027b000b4b79f000d48a300050032000fba970080
:1027c0004401be004400be0084bf9f0004003700e7
:1027d0008fba97004500be0085bf9f0079fa0700b9
:1027e000e0af9f00f1af9f0082b79f0093b79f00bb
:1027f0006022b8006033b8006fa89700ffa8970068
:102800000fb197009fb197008dfa07000000e0001c
:102810000a003d006fa89700ffa897000fb197002e
:102820009fb1970003f0a200e0af9f00f1af9f00bf
:1028300082b79f0093b79f003d00b3000000eb00fc
:1028400080a79f006022b8006033b8006fa897008f
:10285000ffa897000fb197009fb197007dfa07007e
:102860000000e000340032006fa89700ffa8970036
:102870000fb197009fb197007bfa070003fc2f0070
:1028800003814700a3fa07000fa097000000e900aa
:102890006300b900a2002000110009000200d80066
:1028a0008000fd0081a79f000100e00002003d00c4
:1028b0000100e90080a79f000fa497000840ea00ec
:1028c00029fe07006faa9700ffaa97000fb3970091
:1028d0009fb39700c6f90700a0af9f00b1af9f005c
:1028e000c2af9f00d3af9f006022b8000600200057
:1028f00007ff230052fa07000000e00002003d003d
:102900000800e9000b0037006022b8000600200034
:10291000470224002fa89700bfa897004fa997004f
:10292000dfa997007efa07000000e00002003500f2
:102930000800e80080a79f003fb29700f80f520000
:1029400057003c00d0c6b300804f5200290036002b
:102950000485fb0042062000110009000285d80012
:1029600000017800010478004311dd00cb882000cd
:102970000b0141006022b8000600200007fe230082
:102980000288900092889000b2899000228990007d
:1029900097f90700a9002000809fbe0011000900e0
:1029a0000984d800000478004f00be004344dd00d5
:1029b0000b04440048229000d82290006823900025
:1029c000f82390008af90700801f78000102780040
:1029d000110009000985d8000102fd004f007800b0
:1029e0004322dd000b0242005403be004402be003d
:1029f0001f0037000480fb00c9882000ea4f520006
:102a000014003600a2002000110009000280d80046
:102a100000017800010478004311dd000901410044
:102a20006022b8000600200007fe2300422090002c
:102a3000d2209000f2219000622190006cf90700f2
:102a40004344dd00090444003802be002803be00f0
:102a5000070037004300dd00090040006022b80095
:102a60000600200007fe23005001be004000be000b
:102a70005ff907000002be000203be006fa89700c6
:102a8000ffa897000fb197009fb1970029fa0700a0
:102a9000e0af9f00f1af9f0082b79f0093b79f0008
:102aa0000fa49700e90f540015003c006022b80005
:102ab0006033b8006fa89700ffa897000fb1970088
:102ac0009fb19700e3f907000000e00032003200f8
:102ad0006fa89700ffa897000fb197009fb19700cc
:102ae00091fa0700e00f5000e08f5800e00f590006
:102af000e08f590028003a00e10f5400260034000e
:102b00000400200005002e00b6e02200170124007a
:102b10002fa89700bfa897004fa99700dfa997009b
:102b2000c7f907000000e00002003d0073005400f8
:102b3000010037007200540080a79f000fc097006b
:102b400089fd0700a0af9f00b1af9f00c2af9f00fb
:102b5000d3af9f000002be000203be006fa8970023
:102b6000ffa897000fb197009fb197009ffa070049
:102b70006dfa07000205be000004be006000b80048
:102b80006011b800a0a79f00b1a79f00c2a79f0037
:102b9000d3a79f002e0037006fa89700ffa89700cb
:102ba0000fb197009fb197005ffa07000205be00c2
:102bb0000004be00e00f5000e08f5800e00f590005
:102bc000e08f590002003500e2fa070013003700d9
:102bd00010002000010020006011b8000800600013
:102be000898060000a0161008b8161008b03d10044
:102bf0000a83d3008982d3000882d30000007200c8
:102c0000818072000201730083817300d1fa070092
:102c10000002be000203be00c6f907000002be00ab
:102c20000203be006fa89700ffa897000fb197009e
:102c30009fb19700fefa0700a0a79f00b1a79f00d1
:102c4000c2a79f00d3a79f000000eb0080a79f00b2
:102c500014c0b300c59e20000b0037000400fb0029
:102c60004300dd00050040005001be004000be00f2
:102c70000040e10001c8e10002d0e10003d8e1001a
:102c8000030039000442e800f44f5200f3ff3a0019
:102c9000c47f9f000400fb00bfb09700008040008d
:102ca0008fa09700010040004fb19700000751002e
:102cb000bfb197000300e000010032000e07e900f9
:102cc00063806600010032000e07e9000d28a300b2
:102cd00026003200e18066000d18a3000c003200cf
:102ce000d00220000100e00001003a000080e9006d
:102cf000efb0970071020700e10f400018003200aa
:102d00002fb297000402e800a4b79f001400370018
:102d10000100e00012003200efb097000002200036
:102d200066020700e10f40000d003200afb29700cd
:102d30008502e800a5b79f0009003700efb09700b3
:102d4000000320005d020700e10f40000300320095
:102d50002fb697000c06e800acb79f000e07e900fd
:102d60000e00e000f5ff3c003d0037000d38a300e9
:102d70000a0032000b003700efb09700000220007d
:102d80004e020700e10f4000030032002fb0970011
:102d90000000e800a0b79f000e07e9000e00e00069
:102da000f5ff3c00e18066000d18a3000c00320026
:102db000d00220000100e00001003a000080e9009c
:102dc000efb097003d020700e10f40002400320001
:102dd000afb097008100e800a1b79f002000370046
:102de0000100e0001e003200efb09700000220005a
:102df00032020700e10f4000190032002fb19700a6
:102e00000201e800a2b79f00150037000000fb0098
:102e10004300dd00c19e2000010040003002be00e2
:102e20002003be000800be000a01be00dff7070055
:102e3000a4002000050020006033b800e2f707007e
:102e40000003b000efb097001c020700e10f400044
:102e500003003200afb197008301e800a3b79f00e1
:102e60004f7a97000440e900c07f9f00e14f400087
:102e7000e6ff3a000b003700efb097000003200098
:102e80000e020700e10f400003003200afb29700ce
:102e90008502e800a5b79f000fa097000000e90099
:102ea00080a79f000fa097000000e000f2ff3c0009
:102eb0003fb6970020c1b300f20f560001003c005e
:102ec0006fe09700c07f9f00cf7897000100fb0064
:102ed0003fb1970000005100e0a79f000104e0000f
:102ee00008003200efb09700e0022000f301070075
:102ef000e10f400003003200afb197008301e8000a
:102f0000a3b79f004f78970097fc07000002be0010
:102f10000203be002fa09700bfa097004fa197000b
:102f2000dfa1970032f807007ff907001e00370085
:102f30000000fb004300dd00cc9e20000c004000a0
:102f40003002be002003be000800be000a01be0021
:102f500096f70700a4002000050020006033b800a9
:102f600099f707000003b000efb09700d301070006
:102f7000e10f4000030032002fb297000402e80086
:102f8000a4b79f00cf7a97000500fb004300dd0047
:102f90000c0040003002be002003be000800be004e
:102fa0000a01be0088f707000205be000004be004b
:102fb0004f7e97000c40e900c07f9f00e14f40002a
:102fc000dbff3a000006eb0009003700efb0970086
:102fd00000032000b9010700e10f400003003200a8
:102fe0002fb097000000e800a0b79f000c06e80093
:102ff000efa09700810f5600f4ff3a000d38a300b0
:10300000a10132000e00e0009f0134000006eb0039
:10301000efb0970000022000a8010700e10f400078
:10302000030032002fb197000201e800a2b79f0011
:103030000c06e8008e0f560093013200f4ff3700b3
:103040000d007800000cb20028003a000d00e000ee
:1030500005003d008fb997004305be004304be0044
:1030600083bf9f00140037000d48a3000b003200ff
:103070000fba97004400be0084bf9f004f89de0056
:10308000cf91de000002be000203780082037800c8
:103090000605be000404be00070037008fba970083
:1030a0004500780085bf9f0000047800cfc4de0093
:1030b000090578008a057800e00f5400e08f5c0075
:1030c000e00f5d00e08f5d0020003d003d00b3009b
:1030d0006000b8006011b8000804500089845800ee
:1030e0000a0559008b855900180037000d00e000d3
:1030f00005003d000fbe97004c05be004c04be000d
:103100008cbf9f00110037000d48a300080032005b
:103110008fba97004500be0085bf9f00040178006c
:10312000840178000205be000004be0007003700dd
:103130000fbe97004c0078008cbf9f000004780001
:10314000090020000a0020000b0020003fb097007b
:103150000000e00007003a00e00f5400e08f5c0040
:10316000e00f5d00e08f5d0002003a0011002000da
:10317000b1b79f000d0778000e0cb20000042000cc
:10318000800f57002f00320003003c000e00e000cb
:10319000070032003f00370000082000800f570072
:1031a00014003200000c2000800f570039003a0054
:1031b00014c0b300c59e20000b0037000400fb00c4
:1031c0004300dd00050040005001be004000be008d
:1031d0000040e10001c8e10002d0e10003d8e100b5
:1031e0002b0039000442e800f44f5200f3ff3a008c
:1031f0002700370000012000010020006011b80006
:1032000014c0b3000040e10001c8e10002d0e100b9
:1032100003d8e1001e003900450020000000d00066
:103220008180d2000281d2008381d2008502e90030
:10323000faff3a000442e800f04f5200f1ff3a0072
:103240001300370080002000010020006011b8004a
:1032500014c0b3000040e10001c8e10002d0e10069
:1032600003d8e1000a0039003c0020000000d00033
:103270008180d2000281d2008381d2000c06e90055
:10328000faff3a000442e800f54f5200f1ff3a001d
:10329000c47f9f00cf7897000100fb003fb19700eb
:1032a000820f500002003d00c27f9f0004003700e3
:1032b000bfb19700808f510001003d00b0b79f0063
:1032c0004fb297000400e000040032006380660003
:1032d000020032000402e900c4b79f000de8a30019
:1032e0000b003200cfb297003fb697008c8f520090
:1032f00003003c000000eb00c0b79f000400370053
:10330000cfb097003fb1970082805000c1b79f00b7
:10331000cf7997000300fb000002eb0094a79f0009
:10332000cfb29700808f520002003400008052001c
:1033300090a79f000d28a30037003200e1806600af
:103340000d18a3000c003200d00220000100e000a4
:1033500001003a000080e900efb09700d7000700b5
:10336000e10f40000e0032002fb697000c06e80077
:10337000acb79f000a0037000100e00008003200ef
:10338000efb0970000022000cc000700e10f4000e2
:10339000030032002fb097000000e800a0b79f00a4
:1033a0009fa097000100e0000f0032000006eb0034
:1033b000efb0970000032000c0000700e10f4000bd
:1033c000030032002fb197000201e800a2b79f006e
:1033d0000c06e8009fa19700830f5600f4ff3a0007
:1033e0000002eb0094a79f00bfb29700c328dd0046
:1033f000409e20008080400091af9f004228dd0069
:103400006400500080af9f006328b900f0a79f00c0
:1034100063065000820037001fa697000c00e000f2
:1034200011003200688066000f003a000006780044
:10343000efb0970000022000a0000700e10f40005d
:10344000030032002fb097000000e800a0b79f00f3
:103450000c06e8009fa09700810f5600f4ff3a0089
:103460000001eb0092a79f00e18066000d18a30009
:103470000c003200d00220000100e00001003a0000
:103480000080e900efb097008c000700e10f4000da
:10349000d5ff3200afb197008301e800a3b79f00ca
:1034a000d1ff37000100e000cfff3200efb09700fe
:1034b0000002200081000700e10f4000caff320037
:1034c0002fb297000402e800a4b79f00c6ff3700a0
:1034d00000042000800f57003000320003003c0041
:1034e0000e00e000070032003d0037000008200019
:1034f000800f570011003200000c2000800f570091
:1035000037003a001fa897003002be002003be001b
:103510000800be000a01be0024f60700a400200037
:10352000050020006033b80027f6070004c3b3008d
:1035300004424000c47f9f002900370035a92000c5
:10354000d5b79f000d58a30002003a0040aa200002
:10355000d0b79f0014002000050020006033b800a1
:103560008fa897008100e900050033000402d00015
:103570008582d2000683d2008783d200f9ff37000c
:103580000800be000a01be0008f607006f006000d8
:103590005fb19700624078001000370014002000ef
:1035a000050020006033b8008c0178008301e90039
:1035b000050033000402d0008582d2000683d200c9
:1035c0008783d200f9ff37000800be000a01be0061
:1035d000f6f50700674060000043b000c07f9f0021
:1035e0004f7a97000400fb00efb09700330007000c
:1035f000e10f400003003200afb297008502e800ff
:10360000a5b79f001fa897006800500090af9f00cb
:103610008fa89700e480500081af9f00630656009a
:10362000d0ff2f003fb197000090b900ffa1970095
:103630000080410063005000800f5600a4ff3a0054
:103640000d38a300100032001fa297000400e00014
:103650000d0034000006eb00efb0970000022000e0
:1036600016000700e10f400003003200afb29700e0
:103670008502e800a5b79f000c06e8001fa0970090
:10368000800f5600f4ff3a007fb19700b2407800f7
:10369000f2b79f00c17f9f000104e00014fb3a00d5
:1036a0002fb097004f0778004f06be004f05be00b1
:1036b0004f04be008f03b10000000600889fbe00cb
:1036c0000001780001047800b10090000118a30007
:1036d0003d0032000198a30003003a00180090005a
:1036e0000000e00038003a000190a000310498008a
:1036f00082047800f90fb200180090000000e0008a
:1037000002003a0028009000000c7800ea8f540074
:1037100006003a00380090000078a30003003a0049
:1037200088007800d0002000e4ff07009800900097
:1037300058009000808f50000b0032000100e8001c
:10374000100498001800780009587800000c7800e0
:1037500011c0b30000ae200001487800ea8f540089
:103760000600320019003700880078000940780010
:103770008e000700800478001400370038009000a5
:103780000088a3001100320018019000a8009000ea
:103790004800900003f3070098009000810f50004c
:1037a00004003200380090000003b3003004980099
:1037b0008084eb000000eb001004980028009000cb
:1037c000000c7800010037008084eb0009007800cd
:1037d0004f04be0000000600881f78000004780037
:1037e000b00090000148a30007003a000108a300c0
:1037f000050032000198a30008003200100090007c
:103800000000e00005003200380090000040a000f9
:10381000300498008080eb00200037000190a10068
:1038200031049800180090000000e0000600340009
:103830000000e9001004980018007800b080fb0038
:10384000000c780006003700380090000068a300e4
:10385000edff3a000800780097000700800078002c
:10386000380090000078a3000c003a00fa8f500056
:1038700008003a00280090000000e000e2ff32005b
:10388000180090000000e80010049800180ce900ef
:10389000ddff3700ed8f5000e2ff320001007800bd
:1038a0004f0478000000060080017800e10f40001e
:1038b00017003200310090000008a300140032000d
:1038c0000098a30012003a00210290000400e000da
:1038d0000f0032001101900051009000800f510044
:1038e0000b00320011007800840f500002003a00f3
:1038f0008008e800020037000200e800900098000d
:103900001100e900800878000348780001003700c2
:103910008081eb00030078000000060000017800c1
:1039200000c2b300010037000201e80092407800b5
:1039300080cf5000fcff3200e9cf5000faff320088
:10394000d0c2b30080cf500003003a000201e8006b
:1039500014c0b300050037000042eb00b0c2b30052
:1039600080cf500001003a000201e8008000eb0027
:1039700005fd2f00040037006a08b90000804100ef
:10398000850040000201e8009201fb000580410033
:10399000e90f5000f8ff36000404e0000100320097
:1039a0008100ea0001007800000006000200fa0031
:1039b000889fbe00a0ff9f0001047800b100900026
:1039c000810478000904b200020032000000fb000c
:1039d000360037000118a30005003a000103b300c8
:1039e00031049800190498000080eb002f00370084
:1039f000580090000000e00006003a0048009000e7
:103a000012002000e680570066f2070019049800b3
:103a100024003700280090000000e00008003a0071
:103a2000c0ad200020049800000c78002000200089
:103a300050049800100498000130a0003104980050
:103a400018019000a80090004800900055f207006f
:103a500028009000000c78000080eb001004980013
:103a600018007800aff8970001587800000c780033
:103a70002ff89700ea4f50000a003a0038009000f3
:103a80000088a3000700320018019000a8009000f1
:103a90004800900043f2070019049800a800900025
:103aa000010c7800aff897000100fb004f04be0046
:103ab0000080fa00000006000200fa00889fbe00a5
:103ac0008a1f7800000478000000eb0010049800c2
:103ad000380090008080eb000008a3003f00320017
:103ae00000ae20001004e0001000320089ab20007e
:103af000eaab20001a0078006c0545002010b200e7
:103b000021102000810f500002003a0009007800c7
:103b100037000700ec844400c0ad2000808f5400c3
:103b2000f4ff3a0000ae20000048eb00480090008f
:103b3000580190000200e0000d003a0012049800c5
:103b400012002000e88057004df20700e10f5000fe
:103b500003003a000ff897008080fb001f00370039
:103b6000380090000040a000300498001200370098
:103b7000a800900042f20700100498000000e00046
:103b800003003200e10f40000d003a00030037004f
:103b9000380090000040a00002003700380090007c
:103ba0000003b30030049800a8009000010c7800d6
:103bb0000000eb00100498008080eb000700370045
:103bc000a8009000010c78000000e90010049800a3
:103bd00001007800b080fb00000c78000100780044
:103be0004f0578004f04be000080fa000000060078
:103bf000881f780000047800300090000008a300bf
:103c000007003200800078000120b20004003a0072
:103c100011049800a8009000010c780017003700ec
:103c20000018a300190032000098a300170032000a
:103c3000a80090000100e00014003200180190007c
:103c40000200e0001100320048009000d5f10700aa
:103c500098009000810f500003003200380090005f
:103c60000003b300300498000000eb00100498003b
:103c700028009000000c7800380090000058a30045
:103c8000020032000080eb00010037000000eb0072
:083c90004f047800000006005b
:020000040000fa
:0200000401f009
:04000000e7bf000056
:020000040000fa
:0200000401f009
:04000400ffff0000fa
:020000040000fa
:1000080090010000900100009001000090010000a4
:100018009001000090010000900100009001000094
:100028009001000090010000900100009001000084
:100038009001000090010000900100009001000074
:100048009001000090010000900100009001000064
:100058009001000090010000900100009001000054
:100068009001000090010000900100009001000044
:100078009001000090010000900100009001000034
:10008800343300009001000090010000900100004e
:100098009001000090010000900100009001000014
:1000a8009001000090010000900100009001000004
:1000b80090010000900100009001000090010000f4
:1000c80090010000900100009001000090010000e4
:1000d80090010000900100009001000090010000d4
:1000e80090010000900100009001000090010000c4
:0800f8009001000090010000de
:020000040000fa
:1001080090010000900100009001000090010000a3
:100118009001000090010000900100009001000093
:100128009001000090010000900100009001000083
:100138009001000090010000900100009001000073
:100148009001000090010000900100009001000063
:100158009001000090010000900100009001000053
:100168009001000090010000900100009001000043
:100178009001000090010000900100009001000033
:10018800343300009001000090010000900100004d
:100198009001000090010000900100009001000013
:1001a8009001000090010000900100009001000003
:1001b80090010000900100009001000090010000f3
:1001c80090010000900100009001000090010000e3
:1001d80090010000900100009001000090010000d3
:1001e80090010000900100009001000090010000c3
:0801f8009001000090010000dd
:020000040000fa
:103c9800454c0000414200005f48000049440000d4
:103ca800524f000053540000415400005f4400008c
:103cb80053500000494300005f560000312e0000b9
:103cc80030000000496e0000737400007275000037
:103cd80063740000696f00006e73000020610000cb
:103ce800626f00007574000020250000732000003a
:103cf800636f00006d6d0000616e0000647300006a
:103d08003a0d000000280000746f000020730000c6
:103d180065650000207400006865000020690000e7
:103d28006e7300007475000063740000696f000012
:103d38006e730000206300006f720000726500005f
:103d4800637400006c790000206100006464000066
:103d580020610000206e0000657700006c6900009b
:103d68006e65000020610000667400006572000046
:103d7800205c0000722900000a0000006366000051
:103d88006720000020200000207000003120000083
:103d980020200000207000003220000020200000b9
:103da8002070000033200000202000002070000058
:103db800340a0000002000002020000020700000cd
:103dc800312000002d200000707200006f74000088
:103dd8006f6300006f6c000020280000696e00000f
:103de800746500006765000072200000302d000037
:103df800362900003a0a00000020000020200000b8
:103e0800202000002020000020300000202d00008d
:103e1800205400006869000073200000696e0000eb
:103e28007374000075630000746900006f6e000011
:103e3800206d000065730000736100006765000075
:103e48000a000000202000002020000020200000a0
:103e580020200000312000002d2000004e6f0000bf
:103e6800726d0000616c0000206500007870000031
:103e780065720000696d0000656e00007420000026
:103e8800657800006563000075740000696f0000c4
:103e98006e3a00000d0000002020000020200000e5
:103ea800202000002020000020200000202000000a
:103eb80070320000202d0000204900006e690000cb
:103ec80074690000616c0000207000006f730000ce
:103ed80069740000696f00006e200000283000003f
:103ee8002d250000642900000d000000202000009e
:103ef80020200000202000002020000020200000ba
:103f08002020000070330000202d00002046000013
:103f1800696e0000616c0000207000006f73000083
:103f280069740000696f00006e20000028300000ee
:103f38002d250000642900000d000000202000004d
:103f48002020000020200000202000002020000069
:103f58002020000070340000202d0000204e0000ba
:103f6800756d000062650000722000006f66000039
:103f7800207000006f6900006e740000732000005c
:103f8800283200002d32000030300000290a0000dd
:103f98000020000020200000202000002020000039
:103fa80020320000202d000020430000616c00003a
:103fb800696200007261000074650000206d0000f5
:103fc8006f7400006f7200000a00000020200000db
:103fd80020200000202000002020000033200000c6
:103fe8002d200000426f0000747400006f6d000007
:103ff800206c00006967000068740000204f000012
:104008004e0a0000002000002020000020200000b0
:104018002020000020340000202d00002057000040
:10402800616c00006b2000006d6f0000746f000071
:1040380072200000746f00003a0d0000002000009c
:104048002020000020200000202000002020000068
:104058002020000020700000322000002d200000e9
:10406800466900006e6100006c200000706f00005f
:1040780073690000746900006f6e0000202800005a
:10408800302d000025640000290d000000200000ec
:104098002020000020200000202000002020000018
:1040a8002020000020700000332000002d20000098
:1040b800537000006565000064200000286400005b
:1040c800656c0000617900005f310000303000004d
:1040d80079730000202d0000207400007970000022
:1040e8002e200000766100006c750000653a000023
:1040f80020330000372900000a00000020200000bb
:104108002020000020200000202000003520000092
:104118002d2000003720000073650000676d000047
:10412800656e000074730000206c00006564000078
:10413800732000002d2000007465000073740000d7
:104148002028000070720000696e000074200000d2
:10415800766100006c75000065730000290a000094
:104168000020000020200000202000002020000067
:1041780020360000202d00002037000020730000aa
:10418800656700006d6500006e7400007320000014
:104198006c65000064730000202d0000207400008e
:1041a800657300007420000028720000656100003b
:1041b800642000004144000043730000290a000005
:1041c80000440000415400000d0000002566000076
:1041d8000925000066090000256600000925000081
:1041e80066090000256600000d000000454e00002d
:1041f800440d000000440000415400003a0d000046
:1042080000300000093000000930000009300000cb
:10421800093000000d0000003209000032090000da
:104228003209000032090000320d000000310000a0
:10423800093100000931000009310000093100008e
:104248000d000000350900003009000030090000a9
:1042580030090000300d000000350000092500007d
:1042680064090000256400000931000009310000dc
:104278000d00000036090000300900003009000078
:1042880030090000300d000000700000313d0000d2
:10429800256400002c200000703200003d2500003d
:1042a800642c000020700000333d000025640000ed
:1042b8002c200000703400003d250000640d000033
:1042c800003600000925000064090000256400008c
:1042d80009310000093100000d00000049440000c8
:1042e80053090000454c0000414200005f480000af
:1042f80049440000524f000053540000415400004c
:104308005f44000053500000494300005f5600001e
:10431800312e000030090000257300000d00000058
:10432800535400004f500000454400000053000063
:10433800544f000050500000494e00004700000054
:104348005245000053450000544900004e47000004
:1043580000690000647300000063000066670000e5
:10436800002500002a7300000925000064090000e8
:104378002564000009250000640900002564000088
:1043880000430000464700000925000064090000ba
:104398002564000009250000640900002564000068
:1043a8000d000000434f00004e4600004947000042
:1043b80055520000494e0000470000006375000098
:1043c80072000000435500005209000025640000f7
:1043d8000925000064090000256400000925000083
:1043e800640d0000007300007472000000530000a8
:1043f8005441000052540000494e0000470000009c
:1044080053540000520d00000053000054500000a7
:104418000d000000535400004f50000050490000a8
:104428004e47000000530000544f00005045000064
:104438004400000053540000504f00004b0d000092
:104448000049000044530000094500004c410000a9
:10445800425f000048490000445200004f530000ea
:1044680054410000545f00004453000050490000cc
:10447800435f0000563100002e300000092500007f
:10448800730d0000004300004f4e00004649000035
:1044980047550000524900004e47000000530000f5
:1044a8005441000052540000494e000047000000eb
:1044b8005245000053450000544900004e47000093
:1044c800004300004f4e00004649000047550000d9
:1044d800524500004400000043460000474f0000da
:1044e8004b0d0000005300005441000052540000de
:1044f8004544000000530000545200004f4b000098
:104508000d000000524500005345000054450000ce
:104518004400000052530000544f00004b0d0000af
:10452800000000000103000002060000040c000067
:1045380008090000080c000004060000020300003f
:10454800010900004552000052090000310d000029
:1045580000000000535400004f5000004544000084
:104568000000000052530000540d0000000000003d
:020000040000fa
:104578000000fa00dec2a900de62a900e0c2a800bd
:10458800e062a8000080fa00000006000600fa00b9
:10459800200798001000200010079800e062a9008a
:1045a800200020001e0907000000eb00000f780023
:1045b8001b003700e0c2a9002000200018090700ee
:1045c8009e0090002e009000008060001e01900068
:1045d800110009000280d80061406000614060005d
:1045e8004301dd00012e20009140780070cfb30018
:1045f80000c0600002407000e0e2b7001e009000ba
:10460800000040001007980020002000040907005f
:10461800e0c2a80020002000010907001e0fe800e2
:10462800700020009e0f1000e2ff3400e0c2a900d5
:1046380020002000fa080700e062a90020002000fe
:10464800f7080700e0c2a80020002000f4080700cf
:10465800e062a80020002000f10807000080fa00ae
:10466800000006000600fa0020079800100020004d
:1046780010079800e062a90020002000e808070061
:104688000000eb00000f78001b003700e0c2a90013
:1046980020002000e20807009e0090002e009000f5
:1046a800008060001e019000110009000280d800ff
:1046b80061406000614060004301dd00012e200080
:1046c8009140780070cfb30000c0600002407000d5
:1046d800e0e2b7001e0090000000400010079800bc
:1046e80020002000ce080700e0c2a800200020001b
:1046f800cb0807001e0fe800700020009e0f100076
:10470800e2ff34000080fa00000006000600fa000c
:104718002007980010002000100798000000eb0008
:10472800000f78001b003700e0c2a900200020001d
:10473800bb0807009e0090002e00900000806000db
:104748001e019000110009000280d800614060003d
:10475800614060004301dd00012e20009140780097
:1047680070cfb30000c0600002407000e0e2b70004
:104778001e00900000004000100798002000200054
:10478800a7080700e0c2a80020002000a40807002e
:104798001e0fe800700020009e0f1000e2ff34009a
:1047a8000080fa00000006000600fa0020079800c2
:1047b8001000200010079800e0c2a9002000200087
:1047c80097080700e062a90020002000940807006d
:1047d800e0c2a8002000200091080700e062a800bd
:1047e800200020008e080700e062a90020002000b9
:1047f8008b0807000000eb00000f78001b00370053
:10480800e0c2a90020002000850807009e00900053
:104818002e009000008060001e0190001100090029
:104828000280d80061406000614060004301dd0003
:10483800012e20009140780070cfb30000c06000c6
:1048480002407000e0e2b7001e0090000000400047
:10485800100798002000200071080700e0c2a80097
:10486800200020006e0807001e0fe80070002000de
:104878009e0f1000e2ff3400e0c2a90020002000d3
:1048880067080700e062a90020002000640807000c
:10489800e0c2a8002000200061080700e062a8002c
:1048a800200020005e0807000080fa0000000600d3
:1048b8000600fa001007980021079800000420005d
:1048c80032ff0700000c200066ff07000000eb0025
:1048d800000f7800080037001e0078000000400034
:1048e800800078001e0090000080400010007800d2
:1048f80086ff07001e0fe800f00020009e0f100042
:10490800f5ff34002e009000a7ff07000080fa0092
:10491800000006000200fa00000420001bff070048
:10492800000c20004fff07000000eb00000f78008c
:10493800030037000000eb0074ff07001e0fe800bb
:10494800f00020009e0f1000faff3400000820003d
:1049580095ff07000080fa00000006000a00fa0030
:104968001007980021079800320798000000eb0014
:10497800000f78001e0090000000e00003003500e2
:104988001e009000e90f5000030034000000eb0007
:1049980040079800120037003e009000e10f5000d9
:1049a80003003a0000042000400798000c0037007c
:1049b8001e00900080004000c0862000008040005b
:1049c800100f78002e009000e10f500002003a000e
:1049d800000820001e0f40001e00780040079800c5
:1049e8004e0090000080fa00000006002600fa0041
:1049f800881f7800700f9800021798001317980006
:104a0800211798000000eb00400798000000eb0019
:104a18003007980000002000a1472400008fbe0046
:104a28000d0037004e009000000040008000780024
:104a38007e089000008440000001eb008000eb003d
:104a48000080eb00c5ff0700000c78004e009000c6
:104a58000000e800400798002e109000e4001000c5
:104a68004e009000808f5000eeff3c006011b800af
:104a78000e1090009e109000bfef07000000e000ad
:104a8800010035003f0037004e009000e30f500052
:104a98003c003c004e009000000040008000780080
:104aa8007e08900000844000120020008000eb0087
:104ab8000000eb00a9ff0700000c78004e009000f2
:104ac8000000e800400798000e1090009e1090002b
:104ad80001f0a2000017980011179800290037006c
:104ae8003e0490001e01be000e1090009e10900023
:104af8005fef0700a2ef070000017800ea00470017
:104b08000800440002b078003e009000ea00470028
:104b18000000400060807800cf80de0029ef0700a9
:104b28001e01be00f1ee07000001be000e1090004d
:104b38009e1090008fee070000179800111798003c
:104b48000200200003f823001e00be008aef0700c1
:104b58000000e00001003200020037003e00900033
:104b6800200798001e00be00020020000312240047
:104b78003fef0700008fbe003e0090000000e800f5
:104b8800300798003e009000e90f5000d4ff340031
:104b98000000eb0030079800350037003e00900019
:104ba8000000e800300798003e009000ea00470047
:104bb80000004000608078000000e00004003a0037
:104bc800be0090002e009000808f5000f3ff35004b
:104bd800be0090002e009000808f500011003a0017
:104be8004e00900000004000800078007e08900091
:104bf800008440003e009000ea00470000004000aa
:104c0800608078000001eb001100200053ff0700ce
:104c1800000c78004e0090000000e8004007980063
:104c2800100037004e00900000004000800078001f
:104c38007e089000008440003e009000ea00470093
:104c480000004000608078000001eb008000eb006d
:104c580042ff0700000c78004e0090000000e800ba
:104c6800400798003e0090000000e80030079800d8
:104c78003e009000e90f500003003c004e009000f9
:104c8800e30f5000c8ff34004f0478000080fa009a
:104c9800000006001a00fa00500798006207980002
:104ca80073079800040f9800150f9800260f9800b6
:104cb800370f9800410f98000e80e800ce0890004a
:104cc8006e019000fe01900048ff07000000eb0015
:104cd800000f78000c0037001e007800000040002c
:104ce800800078005e009000808040001e00780000
:104cf800000040000e0040000080e800100078002e
:104d0800800878001e0fe800300020009e0f100079
:104d1800f1ff34000e80e800ce0890000e099000e4
:104d28009e09900031ff070040002000000f780026
:104d3800130037001e007800000040008000780053
:104d48005e009000808040001e0078004200200035
:104d5800811f7800110009000200d80000017800c6
:104d680001007800cf007800000040000e004000ed
:104d78000080e80010007800800878001e0fe80026
:104d8800700020009e0f1000eaff34000e80e8003b
:104d9800ce0890002e099000be09900013ff07006e
:104da80080002000000f7800130037001e007800f4
:104db80000004000800078005e0090008080400085
:104dc8001e00780042002000811f780011000900b1
:104dd8000200d8000001780001007800cf007800b8
:104de800000040000e0040000080e800100078003d
:104df800800878001e0fe800b00020009e0f100009
:104e0800eaff34000e80e800ce0890003eb9970013
:104e1800ceb99700f5fe0700c0002000000f78000b
:104e2800130037001e007800000040008000780062
:104e38005e009000808040001e0078004200200044
:104e4800811f7800110009000200d80000017800d5
:104e580001007800cf007800000040000e004000fc
:104e68000080e80010007800800878001e0fe80035
:104e7800f00020009e0f1000eaff34000080fa00c6
:104e8800000006000000fa00c0e42900801f780036
:104e980060e62900801f780057f30700e487570071
:104ea80070e82900801f780053f307008f87e90016
:104eb80020ec2900801f78004ff307008f87e90056
:104ec800f0ed2900801f78004bf307008f87e90079
:104ed80010f02900801f780047f307008f87e9004a
:104ee80060f22900801f780043f307008f87e900ec
:104ef800a0782000801f780000f52900801f780026
:104f08003df30700e4875700a0782000801f780051
:104f1800a0f72900801f780037f30700e4875700bf
:104f280020fa2900801f780033f307008f87e900f3
:104f3800d0fc2900801f78002ff307008f87e90035
:104f4800a0fe2900801f78002bf307008f87e90057
:104f580070002a00801f780027f307008f87e90078
:104f6800a0782000801f780030022a00801f780077
:104f780021f30700e4875700b0042a00801f780057
:104f88001df307008f87e90020082a00801f78009a
:104f980019f307008f87e900500b2a00801f78005b
:104fa80015f307008f87e9000080fa00000006006b
:104fb8000000fa000080fa00000006000000fa0075
:104fc8000080fa00000006000000fa000080fa00e5
:104fd800000006000000fa000080fa000000060049
:104fe8000000fa00cb42a8000080fa00000006008a
:104ff8000000fa000080fa00000006000000fa0035
:105008000080fa00000006000000fa000080fa00a4
:10501800000006004200fa00889fbe008a1f780040
:1050280053fd0700304380000000e00002003d000f
:105038000000eb003043880031438000a078200056
:10504800808f500002003400a07820003043880090
:10505800404380000000e00002003d000000eb003b
:105068004043880041438000a0782000808f500092
:1050780002003400a078200040438800504380009c
:10508800e10f500002003c0020002000504388003f
:1050980051438000800c2000808f500002003400b3
:1050a800800c20005043880041438000304380003a
:1050b80000805000cf80de00c2ed07000004be0073
:1050c800504380000000e900cf80de00bded0700fe
:1050d8000001be000800be00e5ed0700500f980073
:1050e800610f980030438000cf80de00b5ed0700e7
:1050f800700f9800011798000000eb00fc050700ee
:10510800300798000000eb00f90507003007980009
:1051180010002000f6050700200798002000200056
:10512800f30507001007980030002000f00507007d
:10513800000f78007e0890008e1090007606070019
:1051480051022000ef030700500e2a00801f78004c
:10515800a9f207008f87e9000000eb0040079800dc
:10516800520037007e0890008e1090006a060700f3
:1051780051022000e3030700007d2000f505070029
:105188000000eb00da050700be0090005506070096
:10519800300f9800410f980010002000d405070038
:1051a800ae0090004f060700100f9800210f9800de
:1051b80020002000ce0507009e0090004906070049
:1051c80070079800010f980030002000c8050700fc
:1051d8009e00780043060700500798006107980072
:1051e8005e009000ee0090007e0190008e09900015
:1051f8001e0a9000ae0a90003e0c9000ce0c900063
:105208002a0220000e054500809fbe0031002000c4
:105218000203be000801be000a0078009dfe0700d8
:10522800e4875700200220000e004000f10820000b
:105238009ffd07005e009000ee009000809fbe007a
:105248007e0090008e089000809fbe001e0890008f
:10525800ae089000809fbe003e089000ce089000e7
:10526800809fbe007e0890008e109000809fbe0038
:10527800a00e2a00801f78005ff20700f68757000b
:105288005e099000ee0990007e0890008e10900054
:10529800b9ec0700700f9800011798000060fe0035
:1052a8004e0090000000e80040079800514380003d
:1052b8004e009000810f500003003d000044800024
:1052c8000000e000a7ff3200c6030700a00f2a0075
:1052d800801f780048f207008f87e9004f057800a3
:1052e8004f04be000080fa00000006000000fa002b
:1052f800f00f2a00801f78003ff207008f87e9002f
:1053080050102a00801f78003bf207008f87e900c1
:10531800b403070000112a00801f780036f2070046
:105328008f87e900a00f2a00801f780032f207005b
:105338008f87e9000080fa00000006000000fa00ec
:10534800f00f2a00801f78002bf207008f87e900f2
:1053580050102a00801f780027f207008f87e90085
:10536800cb42a800b0112a00801f780022f2070063
:105378008f87e900a00f2a00801f78001ef207001f
:105388008f87e9000080fa00000006000000fa009c
:10539800881f7800f00f2a00801f780016f2070097
:1053a8008f87e90050102a00801f780012f207004a
:1053b8008f87e90040438000000478003043800074
:1053c800cf80de00ffec0700d305070088007800d7
:1053d8004c030700b0112a00801f780006f207006e
:1053e8008f87e900a00f2a00801f780002f20700cb
:1053f8008f87e9004f0478000080fa00000006005b
:105408002000fa005afc0700f00f2a00801f7800dd
:10541800f9f107008f87e90060122a00801f7800e1
:10542800f5f107008f87e9000000200021232c00f8
:10543800809fbe0041002000a6702d0037ca2300bf
:105448000400240055442400d2782900e3f92b00f5
:105458000e0078000ffe0700e4875700f1082000cf
:105468000e00780012fd07004043800031438000a1
:10547800801f7800811f780010132a00801f780091
:10548800ddf10700e6875700a00f2a00801f78008b
:10549800d9f107008f87e9000080fa0000000600b4
:1054a8002800fa00889fbe008a9fbe008c9fbe001d
:1054b8002ffc0700f00f2a00801f7800cef10700ac
:1054c8008f87e900e0132a00801f7800caf10700df
:1054d8008f87e900350037000000eb00040507005e
:1054e80030079800100020000105070020079800e9
:1054f80020002000fe04070010079800300020005c
:10550800fb040700000f78001e007800801f780059
:105518001e009000801f78002e009000801f7800e9
:105528003e009000801f780090142a00801f7800a9
:10553800b1f10700ea8757001e007800cf80de002f
:10554800a0ec07000005be001e009000cf80de0022
:105558009cec07000006be002e009000cf80de0005
:1055680098ec07000004be003e009000cf80de00eb
:1055780094ec07000001be00680047008a9fbe0047
:10558800310020000c03be000802be00c1fd070068
:10559800e487570068004700f1082000c4fc0700b2
:1055a800803e2000eb0407000060fe0000448000fd
:1055b8000000e000c8ff3200404380003143800013
:1055c800801f7800811f780050162a00801f7800fd
:1055d80089f10700e6875700a00f2a00801f78008e
:1055e80085f107008f87e9004f06be004f05be0012
:1055f8004f04be000080fa00000006000000fa0018
:10560800cb42a900c3fc0700e062a90051022000b8
:10561800800c2000bb0207000080fa000000060092
:105628004200fa00889fbe008a1f7800e1202a0005
:105638002085200049f107000000e00005003a003d
:10564800eeff07002085200071212a0006000900ce
:105658003158780071212a00208520003ff1070089
:105668000000e000b9003a00e0212a00801f78001d
:1056780061f107008f87e900a50037002085200029
:1056880071212a000600090031587800120307002a
:105698000060fe00de62a800e0c2bf006840600053
:1056a8000004e0009a003200cb42a800b0fb0700db
:1056b80000002000812c2400500f9800610f9800f2
:1056c8006000b800700f9800011798000000eb0008
:1056d80087040700300798000000eb0084040700e7
:1056e8003007980010002000810407002007980068
:1056f800200020007e0407001007980030002000da
:105708007b040700000f78007e0890008e10900040
:1057180001050700510220007a0207000000eb0093
:10572800400798004b0037007e0890008e109000cc
:10573800f9040700510220007202070070212a00b4
:10574800801f780050222a00801f78002af1070065
:10575800e4875700007d20007e04070070212a009e
:10576800801f780050222a00801f780022f107004d
:10577800e48757000000eb005d040700be009000be
:10578800d8040700300f9800410f9800100020003f
:1057980057040700ae009000d2040700100f9800cd
:1057a800210f980020002000510407009e0090005f
:1057b800cc04070070079800010f98003000200003
:1057c8004b0407009e007800c604070050079800a5
:1057d800610798005e009000ee0090007e01900046
:1057e8008e0990001e0a9000ae0a90003e0c9000b0
:1057f800ce0c90002a0220000e054500809fbe00b6
:10580800310020000203be000801be000a00780033
:1058180020fd0700e4875700200220000e0040000a
:10582800f108200022fc07005e099000ee099000b4
:105838007e0890008e1090004feb0700700f9800c4
:10584800011798000060fe004e0090000000e8007c
:10585800400798004e009000ea0f500003003c00fb
:10586800004480000000e000afff3200020020008a
:1058780003002c005e089000ee0890009beb0700e8
:105888000001be007e0890008e1090003aeb0700e1
:10589800700f9800011798001200370070212a0035
:1058a800801f780050222a00801f7800d2f007005d
:1058b800e48757007e0890008e1090009604070039
:1058c800510220000f0207005e099000ee099000c7
:1058d8007e0890008e10900026eb0700700f98004d
:1058e800011798005e099000ee0990007e0890006c
:1058f8008e109000b1eb07000000e000e7ff3c00cd
:105908003802070003fc0700e062a900cb42a900a7
:1059180071242a002085200090f007000000e00094
:105928000a00320031252a00208520008bf007006c
:105938000000e00005003200c1252a002085200073
:1059480086f007000000e0004cff3a0071242a00ae
:105958002085200081f007000000e00018003a00d0
:10596800204480000000e00001003a0045fd0700e7
:1059780020448000e10f500001003a008cfd070030
:1059880020448000e20f500001003a008bfd070020
:1059980020448000e30f500001003a008afd070010
:1059a80020448000e40f500001003a0089fd070000
:1059b8002085200051262a000a0009003158780065
:1059c80051262a002085200064f007000000e0002e
:1059d80024003a0000272a00801f780086f007007c
:1059e8008f87e900060037002085200051262a000d
:1059f8000a00090031587800370207000060fe00ed
:105a080031252a002085200054f007000000e0001e
:105a180014003200c1252a00208520004ff007001d
:105a28000000e0000f003200e1202a00208520005d
:105a38004af007000000e0000a003200c1252a00f1
:105a48002085200045f007000000e0000500320036
:105a580071242a002085200040f007000000e000a3
:105a6800e1ff3a0031252a00208520003bf007009d
:105a78000000e00014003a0020448000e10f5000cc
:105a880001003a0056fd070020448000e20f500054
